{
	"contracts/SimpleCollectible.sol": {
		"SimpleCollectible": {
			"abi": [
				{
					"inputs": [],
					"stateMutability": "nonpayable",
					"type": "constructor"
				},
				{
					"anonymous": false,
					"inputs": [
						{
							"indexed": true,
							"internalType": "address",
							"name": "owner",
							"type": "address"
						},
						{
							"indexed": true,
							"internalType": "address",
							"name": "approved",
							"type": "address"
						},
						{
							"indexed": true,
							"internalType": "uint256",
							"name": "tokenId",
							"type": "uint256"
						}
					],
					"name": "Approval",
					"type": "event"
				},
				{
					"anonymous": false,
					"inputs": [
						{
							"indexed": true,
							"internalType": "address",
							"name": "owner",
							"type": "address"
						},
						{
							"indexed": true,
							"internalType": "address",
							"name": "operator",
							"type": "address"
						},
						{
							"indexed": false,
							"internalType": "bool",
							"name": "approved",
							"type": "bool"
						}
					],
					"name": "ApprovalForAll",
					"type": "event"
				},
				{
					"anonymous": false,
					"inputs": [
						{
							"indexed": true,
							"internalType": "address",
							"name": "from",
							"type": "address"
						},
						{
							"indexed": true,
							"internalType": "address",
							"name": "to",
							"type": "address"
						},
						{
							"indexed": true,
							"internalType": "uint256",
							"name": "tokenId",
							"type": "uint256"
						}
					],
					"name": "Transfer",
					"type": "event"
				},
				{
					"inputs": [
						{
							"internalType": "address",
							"name": "to",
							"type": "address"
						},
						{
							"internalType": "uint256",
							"name": "tokenId",
							"type": "uint256"
						}
					],
					"name": "approve",
					"outputs": [],
					"stateMutability": "nonpayable",
					"type": "function"
				},
				{
					"inputs": [
						{
							"internalType": "address",
							"name": "owner",
							"type": "address"
						}
					],
					"name": "balanceOf",
					"outputs": [
						{
							"internalType": "uint256",
							"name": "",
							"type": "uint256"
						}
					],
					"stateMutability": "view",
					"type": "function"
				},
				{
					"inputs": [
						{
							"internalType": "string",
							"name": "_tokenURI",
							"type": "string"
						}
					],
					"name": "createCollectible",
					"outputs": [
						{
							"internalType": "uint256",
							"name": "",
							"type": "uint256"
						}
					],
					"stateMutability": "nonpayable",
					"type": "function"
				},
				{
					"inputs": [
						{
							"internalType": "uint256",
							"name": "tokenId",
							"type": "uint256"
						}
					],
					"name": "getApproved",
					"outputs": [
						{
							"internalType": "address",
							"name": "",
							"type": "address"
						}
					],
					"stateMutability": "view",
					"type": "function"
				},
				{
					"inputs": [
						{
							"internalType": "uint256",
							"name": "_tokenId",
							"type": "uint256"
						}
					],
					"name": "getTokenURI",
					"outputs": [
						{
							"internalType": "string",
							"name": "",
							"type": "string"
						}
					],
					"stateMutability": "view",
					"type": "function"
				},
				{
					"inputs": [
						{
							"internalType": "address",
							"name": "owner",
							"type": "address"
						},
						{
							"internalType": "address",
							"name": "operator",
							"type": "address"
						}
					],
					"name": "isApprovedForAll",
					"outputs": [
						{
							"internalType": "bool",
							"name": "",
							"type": "bool"
						}
					],
					"stateMutability": "view",
					"type": "function"
				},
				{
					"inputs": [],
					"name": "name",
					"outputs": [
						{
							"internalType": "string",
							"name": "",
							"type": "string"
						}
					],
					"stateMutability": "view",
					"type": "function"
				},
				{
					"inputs": [
						{
							"internalType": "uint256",
							"name": "tokenId",
							"type": "uint256"
						}
					],
					"name": "ownerOf",
					"outputs": [
						{
							"internalType": "address",
							"name": "",
							"type": "address"
						}
					],
					"stateMutability": "view",
					"type": "function"
				},
				{
					"inputs": [
						{
							"internalType": "address",
							"name": "from",
							"type": "address"
						},
						{
							"internalType": "address",
							"name": "to",
							"type": "address"
						},
						{
							"internalType": "uint256",
							"name": "tokenId",
							"type": "uint256"
						}
					],
					"name": "safeTransferFrom",
					"outputs": [],
					"stateMutability": "nonpayable",
					"type": "function"
				},
				{
					"inputs": [
						{
							"internalType": "address",
							"name": "from",
							"type": "address"
						},
						{
							"internalType": "address",
							"name": "to",
							"type": "address"
						},
						{
							"internalType": "uint256",
							"name": "tokenId",
							"type": "uint256"
						},
						{
							"internalType": "bytes",
							"name": "data",
							"type": "bytes"
						}
					],
					"name": "safeTransferFrom",
					"outputs": [],
					"stateMutability": "nonpayable",
					"type": "function"
				},
				{
					"inputs": [
						{
							"internalType": "address",
							"name": "operator",
							"type": "address"
						},
						{
							"internalType": "bool",
							"name": "approved",
							"type": "bool"
						}
					],
					"name": "setApprovalForAll",
					"outputs": [],
					"stateMutability": "nonpayable",
					"type": "function"
				},
				{
					"inputs": [
						{
							"internalType": "bytes4",
							"name": "interfaceId",
							"type": "bytes4"
						}
					],
					"name": "supportsInterface",
					"outputs": [
						{
							"internalType": "bool",
							"name": "",
							"type": "bool"
						}
					],
					"stateMutability": "view",
					"type": "function"
				},
				{
					"inputs": [],
					"name": "symbol",
					"outputs": [
						{
							"internalType": "string",
							"name": "",
							"type": "string"
						}
					],
					"stateMutability": "view",
					"type": "function"
				},
				{
					"inputs": [
						{
							"internalType": "uint256",
							"name": "tokenId",
							"type": "uint256"
						}
					],
					"name": "tokenURI",
					"outputs": [
						{
							"internalType": "string",
							"name": "",
							"type": "string"
						}
					],
					"stateMutability": "view",
					"type": "function"
				},
				{
					"inputs": [
						{
							"internalType": "address",
							"name": "from",
							"type": "address"
						},
						{
							"internalType": "address",
							"name": "to",
							"type": "address"
						},
						{
							"internalType": "uint256",
							"name": "tokenId",
							"type": "uint256"
						}
					],
					"name": "transferFrom",
					"outputs": [],
					"stateMutability": "nonpayable",
					"type": "function"
				}
			],
			"devdoc": {
				"kind": "dev",
				"methods": {
					"approve(address,uint256)": {
						"details": "See {IERC721-approve}."
					},
					"balanceOf(address)": {
						"details": "See {IERC721-balanceOf}."
					},
					"getApproved(uint256)": {
						"details": "See {IERC721-getApproved}."
					},
					"isApprovedForAll(address,address)": {
						"details": "See {IERC721-isApprovedForAll}."
					},
					"name()": {
						"details": "See {IERC721Metadata-name}."
					},
					"ownerOf(uint256)": {
						"details": "See {IERC721-ownerOf}."
					},
					"safeTransferFrom(address,address,uint256)": {
						"details": "See {IERC721-safeTransferFrom}."
					},
					"safeTransferFrom(address,address,uint256,bytes)": {
						"details": "See {IERC721-safeTransferFrom}."
					},
					"setApprovalForAll(address,bool)": {
						"details": "See {IERC721-setApprovalForAll}."
					},
					"supportsInterface(bytes4)": {
						"details": "See {IERC165-supportsInterface}."
					},
					"symbol()": {
						"details": "See {IERC721Metadata-symbol}."
					},
					"tokenURI(uint256)": {
						"details": "See {IERC721Metadata-tokenURI}."
					},
					"transferFrom(address,address,uint256)": {
						"details": "See {IERC721-transferFrom}."
					}
				},
				"version": 1
			},
			"evm": {
				"assembly": "    /* \"contracts/SimpleCollectible.sol\":131:1040  contract SimpleCollectible is ERC721 {... */\n  mstore(0x40, 0x80)\n    /* \"contracts/SimpleCollectible.sol\":262:334  constructor() ERC721(\"Doggie\", \"Dog\") {... */\n  callvalue\n  dup1\n  iszero\n  tag_1\n  jumpi\n  0x00\n  dup1\n  revert\ntag_1:\n  pop\n    /* \"node_modules/@openzeppelin/contracts/token/ERC721/ERC721.sol\":1390:1503  constructor(string memory name_, string memory symbol_) {... */\n  mload(0x40)\n  dup1\n  0x40\n  add\n  0x40\n  mstore\n  dup1\n  0x06\n  dup2\n  mstore\n  0x20\n  add\n  0x446f676769650000000000000000000000000000000000000000000000000000\n  dup2\n  mstore\n  pop\n  mload(0x40)\n  dup1\n  0x40\n  add\n  0x40\n  mstore\n  dup1\n  0x03\n  dup2\n  mstore\n  0x20\n  add\n  0x446f670000000000000000000000000000000000000000000000000000000000\n  dup2\n  mstore\n  pop\n    /* \"node_modules/@openzeppelin/contracts/token/ERC721/ERC721.sol\":1464:1469  name_ */\n  dup2\n    /* \"node_modules/@openzeppelin/contracts/token/ERC721/ERC721.sol\":1456:1461  _name */\n  0x00\n    /* \"node_modules/@openzeppelin/contracts/token/ERC721/ERC721.sol\":1456:1469  _name = name_ */\n  swap1\n  dup1\n  mload\n  swap1\n  0x20\n  add\n  swap1\n  tag_5\n  swap3\n  swap2\n  swap1\n  tag_6\n  jump\t// in\ntag_5:\n  pop\n    /* \"node_modules/@openzeppelin/contracts/token/ERC721/ERC721.sol\":1489:1496  symbol_ */\n  dup1\n    /* \"node_modules/@openzeppelin/contracts/token/ERC721/ERC721.sol\":1479:1486  _symbol */\n  0x01\n    /* \"node_modules/@openzeppelin/contracts/token/ERC721/ERC721.sol\":1479:1496  _symbol = symbol_ */\n  swap1\n  dup1\n  mload\n  swap1\n  0x20\n  add\n  swap1\n  tag_7\n  swap3\n  swap2\n  swap1\n  tag_6\n  jump\t// in\ntag_7:\n  pop\n    /* \"node_modules/@openzeppelin/contracts/token/ERC721/ERC721.sol\":1390:1503  constructor(string memory name_, string memory symbol_) {... */\n  pop\n  pop\n    /* \"contracts/SimpleCollectible.sol\":326:327  0 */\n  0x00\n    /* \"contracts/SimpleCollectible.sol\":310:323  _tokenCounter */\n  0x06\n    /* \"contracts/SimpleCollectible.sol\":310:327  _tokenCounter = 0 */\n  dup2\n  swap1\n  sstore\n  pop\n    /* \"contracts/SimpleCollectible.sol\":131:1040  contract SimpleCollectible is ERC721 {... */\n  jump(tag_9)\ntag_6:\n  dup3\n  dup1\n  sload\n  tag_10\n  swap1\n  tag_11\n  jump\t// in\ntag_10:\n  swap1\n  0x00\n  mstore\n  keccak256(0x00, 0x20)\n  swap1\n  0x1f\n  add\n  0x20\n  swap1\n  div\n  dup2\n  add\n  swap3\n  dup3\n  tag_13\n  jumpi\n  0x00\n  dup6\n  sstore\n  jump(tag_12)\ntag_13:\n  dup3\n  0x1f\n  lt\n  tag_14\n  jumpi\n  dup1\n  mload\n  not(0xff)\n  and\n  dup4\n  dup1\n  add\n  or\n  dup6\n  sstore\n  jump(tag_12)\ntag_14:\n  dup3\n  dup1\n  add\n  0x01\n  add\n  dup6\n  sstore\n  dup3\n  iszero\n  tag_12\n  jumpi\n  swap2\n  dup3\n  add\ntag_15:\n  dup3\n  dup2\n  gt\n  iszero\n  tag_16\n  jumpi\n  dup3\n  mload\n  dup3\n  sstore\n  swap2\n  0x20\n  add\n  swap2\n  swap1\n  0x01\n  add\n  swap1\n  jump(tag_15)\ntag_16:\ntag_12:\n  pop\n  swap1\n  pop\n  tag_17\n  swap2\n  swap1\n  tag_18\n  jump\t// in\ntag_17:\n  pop\n  swap1\n  jump\t// out\ntag_18:\ntag_19:\n  dup1\n  dup3\n  gt\n  iszero\n  tag_20\n  jumpi\n  0x00\n  dup2\n  0x00\n  swap1\n  sstore\n  pop\n  0x01\n  add\n  jump(tag_19)\ntag_20:\n  pop\n  swap1\n  jump\t// out\n    /* \"#utility.yul\":7:327   */\ntag_11:\n    /* \"#utility.yul\":51:57   */\n  0x00\n    /* \"#utility.yul\":88:89   */\n  0x02\n    /* \"#utility.yul\":82:86   */\n  dup3\n    /* \"#utility.yul\":78:90   */\n  div\n    /* \"#utility.yul\":68:90   */\n  swap1\n  pop\n    /* \"#utility.yul\":135:136   */\n  0x01\n    /* \"#utility.yul\":129:133   */\n  dup3\n    /* \"#utility.yul\":125:137   */\n  and\n    /* \"#utility.yul\":156:174   */\n  dup1\n    /* \"#utility.yul\":146:148   */\n  tag_23\n  jumpi\n    /* \"#utility.yul\":212:216   */\n  0x7f\n    /* \"#utility.yul\":204:210   */\n  dup3\n    /* \"#utility.yul\":200:217   */\n  and\n    /* \"#utility.yul\":190:217   */\n  swap2\n  pop\n    /* \"#utility.yul\":146:148   */\ntag_23:\n    /* \"#utility.yul\":274:276   */\n  0x20\n    /* \"#utility.yul\":266:272   */\n  dup3\n    /* \"#utility.yul\":263:277   */\n  lt\n    /* \"#utility.yul\":243:261   */\n  dup2\n    /* \"#utility.yul\":240:278   */\n  eq\n    /* \"#utility.yul\":237:239   */\n  iszero\n  tag_24\n  jumpi\n    /* \"#utility.yul\":293:311   */\n  tag_25\n  tag_26\n  jump\t// in\ntag_25:\n    /* \"#utility.yul\":237:239   */\ntag_24:\n    /* \"#utility.yul\":58:327   */\n  pop\n  swap2\n  swap1\n  pop\n  jump\t// out\n    /* \"#utility.yul\":333:513   */\ntag_26:\n    /* \"#utility.yul\":381:458   */\n  0x4e487b7100000000000000000000000000000000000000000000000000000000\n    /* \"#utility.yul\":378:379   */\n  0x00\n    /* \"#utility.yul\":371:459   */\n  mstore\n    /* \"#utility.yul\":478:482   */\n  0x22\n    /* \"#utility.yul\":475:476   */\n  0x04\n    /* \"#utility.yul\":468:483   */\n  mstore\n    /* \"#utility.yul\":502:506   */\n  0x24\n    /* \"#utility.yul\":499:500   */\n  0x00\n    /* \"#utility.yul\":492:507   */\n  revert\n    /* \"contracts/SimpleCollectible.sol\":131:1040  contract SimpleCollectible is ERC721 {... */\ntag_9:\n  dataSize(sub_0)\n  dup1\n  dataOffset(sub_0)\n  0x00\n  codecopy\n  0x00\n  return\nstop\n\nsub_0: assembly {\n        /* \"contracts/SimpleCollectible.sol\":131:1040  contract SimpleCollectible is ERC721 {... */\n      mstore(0x40, 0x80)\n      callvalue\n      dup1\n      iszero\n      tag_1\n      jumpi\n      0x00\n      dup1\n      revert\n    tag_1:\n      pop\n      jumpi(tag_2, lt(calldatasize, 0x04))\n      shr(0xe0, calldataload(0x00))\n      dup1\n      0x42842e0e\n      gt\n      tag_18\n      jumpi\n      dup1\n      0xa22cb465\n      gt\n      tag_19\n      jumpi\n      dup1\n      0xa22cb465\n      eq\n      tag_14\n      jumpi\n      dup1\n      0xb88d4fde\n      eq\n      tag_15\n      jumpi\n      dup1\n      0xc87b56dd\n      eq\n      tag_16\n      jumpi\n      dup1\n      0xe985e9c5\n      eq\n      tag_17\n      jumpi\n      jump(tag_2)\n    tag_19:\n      dup1\n      0x42842e0e\n      eq\n      tag_10\n      jumpi\n      dup1\n      0x6352211e\n      eq\n      tag_11\n      jumpi\n      dup1\n      0x70a08231\n      eq\n      tag_12\n      jumpi\n      dup1\n      0x95d89b41\n      eq\n      tag_13\n      jumpi\n      jump(tag_2)\n    tag_18:\n      dup1\n      0x095ea7b3\n      gt\n      tag_20\n      jumpi\n      dup1\n      0x095ea7b3\n      eq\n      tag_6\n      jumpi\n      dup1\n      0x23b872dd\n      eq\n      tag_7\n      jumpi\n      dup1\n      0x31f1f3c3\n      eq\n      tag_8\n      jumpi\n      dup1\n      0x3bb3a24d\n      eq\n      tag_9\n      jumpi\n      jump(tag_2)\n    tag_20:\n      dup1\n      0x01ffc9a7\n      eq\n      tag_3\n      jumpi\n      dup1\n      0x06fdde03\n      eq\n      tag_4\n      jumpi\n      dup1\n      0x081812fc\n      eq\n      tag_5\n      jumpi\n    tag_2:\n      0x00\n      dup1\n      revert\n        /* \"node_modules/@openzeppelin/contracts/token/ERC721/ERC721.sol\":1570:1870  function supportsInterface(bytes4 interfaceId) public view virtual override(ERC165, IERC165) returns (bool) {... */\n    tag_3:\n      tag_21\n      0x04\n      dup1\n      calldatasize\n      sub\n      dup2\n      add\n      swap1\n      tag_22\n      swap2\n      swap1\n      tag_23\n      jump\t// in\n    tag_22:\n      tag_24\n      jump\t// in\n    tag_21:\n      mload(0x40)\n      tag_25\n      swap2\n      swap1\n      tag_26\n      jump\t// in\n    tag_25:\n      mload(0x40)\n      dup1\n      swap2\n      sub\n      swap1\n      return\n        /* \"node_modules/@openzeppelin/contracts/token/ERC721/ERC721.sol\":2470:2568  function name() public view virtual override returns (string memory) {... */\n    tag_4:\n      tag_27\n      tag_28\n      jump\t// in\n    tag_27:\n      mload(0x40)\n      tag_29\n      swap2\n      swap1\n      tag_30\n      jump\t// in\n    tag_29:\n      mload(0x40)\n      dup1\n      swap2\n      sub\n      swap1\n      return\n        /* \"node_modules/@openzeppelin/contracts/token/ERC721/ERC721.sol\":3935:4102  function getApproved(uint256 tokenId) public view virtual override returns (address) {... */\n    tag_5:\n      tag_31\n      0x04\n      dup1\n      calldatasize\n      sub\n      dup2\n      add\n      swap1\n      tag_32\n      swap2\n      swap1\n      tag_33\n      jump\t// in\n    tag_32:\n      tag_34\n      jump\t// in\n    tag_31:\n      mload(0x40)\n      tag_35\n      swap2\n      swap1\n      tag_36\n      jump\t// in\n    tag_35:\n      mload(0x40)\n      dup1\n      swap2\n      sub\n      swap1\n      return\n        /* \"node_modules/@openzeppelin/contracts/token/ERC721/ERC721.sol\":3467:3874  function approve(address to, uint256 tokenId) public virtual override {... */\n    tag_6:\n      tag_37\n      0x04\n      dup1\n      calldatasize\n      sub\n      dup2\n      add\n      swap1\n      tag_38\n      swap2\n      swap1\n      tag_39\n      jump\t// in\n    tag_38:\n      tag_40\n      jump\t// in\n    tag_37:\n      stop\n        /* \"node_modules/@openzeppelin/contracts/token/ERC721/ERC721.sol\":4612:4939  function transferFrom(... */\n    tag_7:\n      tag_41\n      0x04\n      dup1\n      calldatasize\n      sub\n      dup2\n      add\n      swap1\n      tag_42\n      swap2\n      swap1\n      tag_43\n      jump\t// in\n    tag_42:\n      tag_44\n      jump\t// in\n    tag_41:\n      stop\n        /* \"contracts/SimpleCollectible.sol\":561:856  function createCollectible(string memory _tokenURI)... */\n    tag_8:\n      tag_45\n      0x04\n      dup1\n      calldatasize\n      sub\n      dup2\n      add\n      swap1\n      tag_46\n      swap2\n      swap1\n      tag_47\n      jump\t// in\n    tag_46:\n      tag_48\n      jump\t// in\n    tag_45:\n      mload(0x40)\n      tag_49\n      swap2\n      swap1\n      tag_50\n      jump\t// in\n    tag_49:\n      mload(0x40)\n      dup1\n      swap2\n      sub\n      swap1\n      return\n        /* \"contracts/SimpleCollectible.sol\":862:1038  function getTokenURI(uint256 _tokenId)... */\n    tag_9:\n      tag_51\n      0x04\n      dup1\n      calldatasize\n      sub\n      dup2\n      add\n      swap1\n      tag_52\n      swap2\n      swap1\n      tag_33\n      jump\t// in\n    tag_52:\n      tag_53\n      jump\t// in\n    tag_51:\n      mload(0x40)\n      tag_54\n      swap2\n      swap1\n      tag_30\n      jump\t// in\n    tag_54:\n      mload(0x40)\n      dup1\n      swap2\n      sub\n      swap1\n      return\n        /* \"node_modules/@openzeppelin/contracts/token/ERC721/ERC721.sol\":5005:5184  function safeTransferFrom(... */\n    tag_10:\n      tag_55\n      0x04\n      dup1\n      calldatasize\n      sub\n      dup2\n      add\n      swap1\n      tag_56\n      swap2\n      swap1\n      tag_43\n      jump\t// in\n    tag_56:\n      tag_57\n      jump\t// in\n    tag_55:\n      stop\n        /* \"node_modules/@openzeppelin/contracts/token/ERC721/ERC721.sol\":2190:2408  function ownerOf(uint256 tokenId) public view virtual override returns (address) {... */\n    tag_11:\n      tag_58\n      0x04\n      dup1\n      calldatasize\n      sub\n      dup2\n      add\n      swap1\n      tag_59\n      swap2\n      swap1\n      tag_33\n      jump\t// in\n    tag_59:\n      tag_60\n      jump\t// in\n    tag_58:\n      mload(0x40)\n      tag_61\n      swap2\n      swap1\n      tag_36\n      jump\t// in\n    tag_61:\n      mload(0x40)\n      dup1\n      swap2\n      sub\n      swap1\n      return\n        /* \"node_modules/@openzeppelin/contracts/token/ERC721/ERC721.sol\":1929:2133  function balanceOf(address owner) public view virtual override returns (uint256) {... */\n    tag_12:\n      tag_62\n      0x04\n      dup1\n      calldatasize\n      sub\n      dup2\n      add\n      swap1\n      tag_63\n      swap2\n      swap1\n      tag_64\n      jump\t// in\n    tag_63:\n      tag_65\n      jump\t// in\n    tag_62:\n      mload(0x40)\n      tag_66\n      swap2\n      swap1\n      tag_50\n      jump\t// in\n    tag_66:\n      mload(0x40)\n      dup1\n      swap2\n      sub\n      swap1\n      return\n        /* \"node_modules/@openzeppelin/contracts/token/ERC721/ERC721.sol\":2632:2734  function symbol() public view virtual override returns (string memory) {... */\n    tag_13:\n      tag_67\n      tag_68\n      jump\t// in\n    tag_67:\n      mload(0x40)\n      tag_69\n      swap2\n      swap1\n      tag_30\n      jump\t// in\n    tag_69:\n      mload(0x40)\n      dup1\n      swap2\n      sub\n      swap1\n      return\n        /* \"node_modules/@openzeppelin/contracts/token/ERC721/ERC721.sol\":4169:4322  function setApprovalForAll(address operator, bool approved) public virtual override {... */\n    tag_14:\n      tag_70\n      0x04\n      dup1\n      calldatasize\n      sub\n      dup2\n      add\n      swap1\n      tag_71\n      swap2\n      swap1\n      tag_72\n      jump\t// in\n    tag_71:\n      tag_73\n      jump\t// in\n    tag_70:\n      stop\n        /* \"node_modules/@openzeppelin/contracts/token/ERC721/ERC721.sol\":5250:5565  function safeTransferFrom(... */\n    tag_15:\n      tag_74\n      0x04\n      dup1\n      calldatasize\n      sub\n      dup2\n      add\n      swap1\n      tag_75\n      swap2\n      swap1\n      tag_76\n      jump\t// in\n    tag_75:\n      tag_77\n      jump\t// in\n    tag_74:\n      stop\n        /* \"node_modules/@openzeppelin/contracts/token/ERC721/ERC721.sol\":2800:3076  function tokenURI(uint256 tokenId) public view virtual override returns (string memory) {... */\n    tag_16:\n      tag_78\n      0x04\n      dup1\n      calldatasize\n      sub\n      dup2\n      add\n      swap1\n      tag_79\n      swap2\n      swap1\n      tag_33\n      jump\t// in\n    tag_79:\n      tag_80\n      jump\t// in\n    tag_78:\n      mload(0x40)\n      tag_81\n      swap2\n      swap1\n      tag_30\n      jump\t// in\n    tag_81:\n      mload(0x40)\n      dup1\n      swap2\n      sub\n      swap1\n      return\n        /* \"node_modules/@openzeppelin/contracts/token/ERC721/ERC721.sol\":4388:4550  function isApprovedForAll(address owner, address operator) public view virtual override returns (bool) {... */\n    tag_17:\n      tag_82\n      0x04\n      dup1\n      calldatasize\n      sub\n      dup2\n      add\n      swap1\n      tag_83\n      swap2\n      swap1\n      tag_84\n      jump\t// in\n    tag_83:\n      tag_85\n      jump\t// in\n    tag_82:\n      mload(0x40)\n      tag_86\n      swap2\n      swap1\n      tag_26\n      jump\t// in\n    tag_86:\n      mload(0x40)\n      dup1\n      swap2\n      sub\n      swap1\n      return\n        /* \"node_modules/@openzeppelin/contracts/token/ERC721/ERC721.sol\":1570:1870  function supportsInterface(bytes4 interfaceId) public view virtual override(ERC165, IERC165) returns (bool) {... */\n    tag_24:\n        /* \"node_modules/@openzeppelin/contracts/token/ERC721/ERC721.sol\":1672:1676  bool */\n      0x00\n        /* \"node_modules/@openzeppelin/contracts/token/ERC721/ERC721.sol\":1722:1747  type(IERC721).interfaceId */\n      0x80ac58cd00000000000000000000000000000000000000000000000000000000\n        /* \"node_modules/@openzeppelin/contracts/token/ERC721/ERC721.sol\":1707:1747  interfaceId == type(IERC721).interfaceId */\n      not(0xffffffffffffffffffffffffffffffffffffffffffffffffffffffff)\n      and\n        /* \"node_modules/@openzeppelin/contracts/token/ERC721/ERC721.sol\":1707:1718  interfaceId */\n      dup3\n        /* \"node_modules/@openzeppelin/contracts/token/ERC721/ERC721.sol\":1707:1747  interfaceId == type(IERC721).interfaceId */\n      not(0xffffffffffffffffffffffffffffffffffffffffffffffffffffffff)\n      and\n      eq\n        /* \"node_modules/@openzeppelin/contracts/token/ERC721/ERC721.sol\":1707:1811  interfaceId == type(IERC721).interfaceId ||... */\n      dup1\n      tag_88\n      jumpi\n      pop\n        /* \"node_modules/@openzeppelin/contracts/token/ERC721/ERC721.sol\":1778:1811  type(IERC721Metadata).interfaceId */\n      0x5b5e139f00000000000000000000000000000000000000000000000000000000\n        /* \"node_modules/@openzeppelin/contracts/token/ERC721/ERC721.sol\":1763:1811  interfaceId == type(IERC721Metadata).interfaceId */\n      not(0xffffffffffffffffffffffffffffffffffffffffffffffffffffffff)\n      and\n        /* \"node_modules/@openzeppelin/contracts/token/ERC721/ERC721.sol\":1763:1774  interfaceId */\n      dup3\n        /* \"node_modules/@openzeppelin/contracts/token/ERC721/ERC721.sol\":1763:1811  interfaceId == type(IERC721Metadata).interfaceId */\n      not(0xffffffffffffffffffffffffffffffffffffffffffffffffffffffff)\n      and\n      eq\n        /* \"node_modules/@openzeppelin/contracts/token/ERC721/ERC721.sol\":1707:1811  interfaceId == type(IERC721).interfaceId ||... */\n    tag_88:\n        /* \"node_modules/@openzeppelin/contracts/token/ERC721/ERC721.sol\":1707:1863  interfaceId == type(IERC721).interfaceId ||... */\n      dup1\n      tag_89\n      jumpi\n      pop\n        /* \"node_modules/@openzeppelin/contracts/token/ERC721/ERC721.sol\":1827:1863  super.supportsInterface(interfaceId) */\n      tag_90\n        /* \"node_modules/@openzeppelin/contracts/token/ERC721/ERC721.sol\":1851:1862  interfaceId */\n      dup3\n        /* \"node_modules/@openzeppelin/contracts/token/ERC721/ERC721.sol\":1827:1850  super.supportsInterface */\n      tag_91\n        /* \"node_modules/@openzeppelin/contracts/token/ERC721/ERC721.sol\":1827:1863  super.supportsInterface(interfaceId) */\n      jump\t// in\n    tag_90:\n        /* \"node_modules/@openzeppelin/contracts/token/ERC721/ERC721.sol\":1707:1863  interfaceId == type(IERC721).interfaceId ||... */\n    tag_89:\n        /* \"node_modules/@openzeppelin/contracts/token/ERC721/ERC721.sol\":1688:1863  return... */\n      swap1\n      pop\n        /* \"node_modules/@openzeppelin/contracts/token/ERC721/ERC721.sol\":1570:1870  function supportsInterface(bytes4 interfaceId) public view virtual override(ERC165, IERC165) returns (bool) {... */\n      swap2\n      swap1\n      pop\n      jump\t// out\n        /* \"node_modules/@openzeppelin/contracts/token/ERC721/ERC721.sol\":2470:2568  function name() public view virtual override returns (string memory) {... */\n    tag_28:\n        /* \"node_modules/@openzeppelin/contracts/token/ERC721/ERC721.sol\":2524:2537  string memory */\n      0x60\n        /* \"node_modules/@openzeppelin/contracts/token/ERC721/ERC721.sol\":2556:2561  _name */\n      0x00\n        /* \"node_modules/@openzeppelin/contracts/token/ERC721/ERC721.sol\":2549:2561  return _name */\n      dup1\n      sload\n      tag_93\n      swap1\n      tag_94\n      jump\t// in\n    tag_93:\n      dup1\n      0x1f\n      add\n      0x20\n      dup1\n      swap2\n      div\n      mul\n      0x20\n      add\n      mload(0x40)\n      swap1\n      dup2\n      add\n      0x40\n      mstore\n      dup1\n      swap3\n      swap2\n      swap1\n      dup2\n      dup2\n      mstore\n      0x20\n      add\n      dup3\n      dup1\n      sload\n      tag_95\n      swap1\n      tag_94\n      jump\t// in\n    tag_95:\n      dup1\n      iszero\n      tag_96\n      jumpi\n      dup1\n      0x1f\n      lt\n      tag_97\n      jumpi\n      0x0100\n      dup1\n      dup4\n      sload\n      div\n      mul\n      dup4\n      mstore\n      swap2\n      0x20\n      add\n      swap2\n      jump(tag_96)\n    tag_97:\n      dup3\n      add\n      swap2\n      swap1\n      0x00\n      mstore\n      keccak256(0x00, 0x20)\n      swap1\n    tag_98:\n      dup2\n      sload\n      dup2\n      mstore\n      swap1\n      0x01\n      add\n      swap1\n      0x20\n      add\n      dup1\n      dup4\n      gt\n      tag_98\n      jumpi\n      dup3\n      swap1\n      sub\n      0x1f\n      and\n      dup3\n      add\n      swap2\n    tag_96:\n      pop\n      pop\n      pop\n      pop\n      pop\n      swap1\n      pop\n        /* \"node_modules/@openzeppelin/contracts/token/ERC721/ERC721.sol\":2470:2568  function name() public view virtual override returns (string memory) {... */\n      swap1\n      jump\t// out\n        /* \"node_modules/@openzeppelin/contracts/token/ERC721/ERC721.sol\":3935:4102  function getApproved(uint256 tokenId) public view virtual override returns (address) {... */\n    tag_34:\n        /* \"node_modules/@openzeppelin/contracts/token/ERC721/ERC721.sol\":4011:4018  address */\n      0x00\n        /* \"node_modules/@openzeppelin/contracts/token/ERC721/ERC721.sol\":4030:4053  _requireMinted(tokenId) */\n      tag_100\n        /* \"node_modules/@openzeppelin/contracts/token/ERC721/ERC721.sol\":4045:4052  tokenId */\n      dup3\n        /* \"node_modules/@openzeppelin/contracts/token/ERC721/ERC721.sol\":4030:4044  _requireMinted */\n      tag_101\n        /* \"node_modules/@openzeppelin/contracts/token/ERC721/ERC721.sol\":4030:4053  _requireMinted(tokenId) */\n      jump\t// in\n    tag_100:\n        /* \"node_modules/@openzeppelin/contracts/token/ERC721/ERC721.sol\":4071:4086  _tokenApprovals */\n      0x04\n        /* \"node_modules/@openzeppelin/contracts/token/ERC721/ERC721.sol\":4071:4095  _tokenApprovals[tokenId] */\n      0x00\n        /* \"node_modules/@openzeppelin/contracts/token/ERC721/ERC721.sol\":4087:4094  tokenId */\n      dup4\n        /* \"node_modules/@openzeppelin/contracts/token/ERC721/ERC721.sol\":4071:4095  _tokenApprovals[tokenId] */\n      dup2\n      mstore\n      0x20\n      add\n      swap1\n      dup2\n      mstore\n      0x20\n      add\n      0x00\n      keccak256\n      0x00\n      swap1\n      sload\n      swap1\n      0x0100\n      exp\n      swap1\n      div\n      0xffffffffffffffffffffffffffffffffffffffff\n      and\n        /* \"node_modules/@openzeppelin/contracts/token/ERC721/ERC721.sol\":4064:4095  return _tokenApprovals[tokenId] */\n      swap1\n      pop\n        /* \"node_modules/@openzeppelin/contracts/token/ERC721/ERC721.sol\":3935:4102  function getApproved(uint256 tokenId) public view virtual override returns (address) {... */\n      swap2\n      swap1\n      pop\n      jump\t// out\n        /* \"node_modules/@openzeppelin/contracts/token/ERC721/ERC721.sol\":3467:3874  function approve(address to, uint256 tokenId) public virtual override {... */\n    tag_40:\n        /* \"node_modules/@openzeppelin/contracts/token/ERC721/ERC721.sol\":3547:3560  address owner */\n      0x00\n        /* \"node_modules/@openzeppelin/contracts/token/ERC721/ERC721.sol\":3563:3586  ERC721.ownerOf(tokenId) */\n      tag_103\n        /* \"node_modules/@openzeppelin/contracts/token/ERC721/ERC721.sol\":3578:3585  tokenId */\n      dup3\n        /* \"node_modules/@openzeppelin/contracts/token/ERC721/ERC721.sol\":3563:3577  ERC721.ownerOf */\n      tag_60\n        /* \"node_modules/@openzeppelin/contracts/token/ERC721/ERC721.sol\":3563:3586  ERC721.ownerOf(tokenId) */\n      jump\t// in\n    tag_103:\n        /* \"node_modules/@openzeppelin/contracts/token/ERC721/ERC721.sol\":3547:3586  address owner = ERC721.ownerOf(tokenId) */\n      swap1\n      pop\n        /* \"node_modules/@openzeppelin/contracts/token/ERC721/ERC721.sol\":3610:3615  owner */\n      dup1\n        /* \"node_modules/@openzeppelin/contracts/token/ERC721/ERC721.sol\":3604:3615  to != owner */\n      0xffffffffffffffffffffffffffffffffffffffff\n      and\n        /* \"node_modules/@openzeppelin/contracts/token/ERC721/ERC721.sol\":3604:3606  to */\n      dup4\n        /* \"node_modules/@openzeppelin/contracts/token/ERC721/ERC721.sol\":3604:3615  to != owner */\n      0xffffffffffffffffffffffffffffffffffffffff\n      and\n      eq\n      iszero\n        /* \"node_modules/@openzeppelin/contracts/token/ERC721/ERC721.sol\":3596:3653  require(to != owner, \"ERC721: approval to current owner\") */\n      tag_104\n      jumpi\n      mload(0x40)\n      0x08c379a000000000000000000000000000000000000000000000000000000000\n      dup2\n      mstore\n      0x04\n      add\n      tag_105\n      swap1\n      tag_106\n      jump\t// in\n    tag_105:\n      mload(0x40)\n      dup1\n      swap2\n      sub\n      swap1\n      revert\n    tag_104:\n        /* \"node_modules/@openzeppelin/contracts/token/ERC721/ERC721.sol\":3701:3706  owner */\n      dup1\n        /* \"node_modules/@openzeppelin/contracts/token/ERC721/ERC721.sol\":3685:3706  _msgSender() == owner */\n      0xffffffffffffffffffffffffffffffffffffffff\n      and\n        /* \"node_modules/@openzeppelin/contracts/token/ERC721/ERC721.sol\":3685:3697  _msgSender() */\n      tag_107\n        /* \"node_modules/@openzeppelin/contracts/token/ERC721/ERC721.sol\":3685:3695  _msgSender */\n      tag_108\n        /* \"node_modules/@openzeppelin/contracts/token/ERC721/ERC721.sol\":3685:3697  _msgSender() */\n      jump\t// in\n    tag_107:\n        /* \"node_modules/@openzeppelin/contracts/token/ERC721/ERC721.sol\":3685:3706  _msgSender() == owner */\n      0xffffffffffffffffffffffffffffffffffffffff\n      and\n      eq\n        /* \"node_modules/@openzeppelin/contracts/token/ERC721/ERC721.sol\":3685:3747  _msgSender() == owner || isApprovedForAll(owner, _msgSender()) */\n      dup1\n      tag_109\n      jumpi\n      pop\n        /* \"node_modules/@openzeppelin/contracts/token/ERC721/ERC721.sol\":3710:3747  isApprovedForAll(owner, _msgSender()) */\n      tag_110\n        /* \"node_modules/@openzeppelin/contracts/token/ERC721/ERC721.sol\":3727:3732  owner */\n      dup2\n        /* \"node_modules/@openzeppelin/contracts/token/ERC721/ERC721.sol\":3734:3746  _msgSender() */\n      tag_111\n        /* \"node_modules/@openzeppelin/contracts/token/ERC721/ERC721.sol\":3734:3744  _msgSender */\n      tag_108\n        /* \"node_modules/@openzeppelin/contracts/token/ERC721/ERC721.sol\":3734:3746  _msgSender() */\n      jump\t// in\n    tag_111:\n        /* \"node_modules/@openzeppelin/contracts/token/ERC721/ERC721.sol\":3710:3726  isApprovedForAll */\n      tag_85\n        /* \"node_modules/@openzeppelin/contracts/token/ERC721/ERC721.sol\":3710:3747  isApprovedForAll(owner, _msgSender()) */\n      jump\t// in\n    tag_110:\n        /* \"node_modules/@openzeppelin/contracts/token/ERC721/ERC721.sol\":3685:3747  _msgSender() == owner || isApprovedForAll(owner, _msgSender()) */\n    tag_109:\n        /* \"node_modules/@openzeppelin/contracts/token/ERC721/ERC721.sol\":3664:3835  require(... */\n      tag_112\n      jumpi\n      mload(0x40)\n      0x08c379a000000000000000000000000000000000000000000000000000000000\n      dup2\n      mstore\n      0x04\n      add\n      tag_113\n      swap1\n      tag_114\n      jump\t// in\n    tag_113:\n      mload(0x40)\n      dup1\n      swap2\n      sub\n      swap1\n      revert\n    tag_112:\n        /* \"node_modules/@openzeppelin/contracts/token/ERC721/ERC721.sol\":3846:3867  _approve(to, tokenId) */\n      tag_115\n        /* \"node_modules/@openzeppelin/contracts/token/ERC721/ERC721.sol\":3855:3857  to */\n      dup4\n        /* \"node_modules/@openzeppelin/contracts/token/ERC721/ERC721.sol\":3859:3866  tokenId */\n      dup4\n        /* \"node_modules/@openzeppelin/contracts/token/ERC721/ERC721.sol\":3846:3854  _approve */\n      tag_116\n        /* \"node_modules/@openzeppelin/contracts/token/ERC721/ERC721.sol\":3846:3867  _approve(to, tokenId) */\n      jump\t// in\n    tag_115:\n        /* \"node_modules/@openzeppelin/contracts/token/ERC721/ERC721.sol\":3537:3874  {... */\n      pop\n        /* \"node_modules/@openzeppelin/contracts/token/ERC721/ERC721.sol\":3467:3874  function approve(address to, uint256 tokenId) public virtual override {... */\n      pop\n      pop\n      jump\t// out\n        /* \"node_modules/@openzeppelin/contracts/token/ERC721/ERC721.sol\":4612:4939  function transferFrom(... */\n    tag_44:\n        /* \"node_modules/@openzeppelin/contracts/token/ERC721/ERC721.sol\":4801:4842  _isApprovedOrOwner(_msgSender(), tokenId) */\n      tag_118\n        /* \"node_modules/@openzeppelin/contracts/token/ERC721/ERC721.sol\":4820:4832  _msgSender() */\n      tag_119\n        /* \"node_modules/@openzeppelin/contracts/token/ERC721/ERC721.sol\":4820:4830  _msgSender */\n      tag_108\n        /* \"node_modules/@openzeppelin/contracts/token/ERC721/ERC721.sol\":4820:4832  _msgSender() */\n      jump\t// in\n    tag_119:\n        /* \"node_modules/@openzeppelin/contracts/token/ERC721/ERC721.sol\":4834:4841  tokenId */\n      dup3\n        /* \"node_modules/@openzeppelin/contracts/token/ERC721/ERC721.sol\":4801:4819  _isApprovedOrOwner */\n      tag_120\n        /* \"node_modules/@openzeppelin/contracts/token/ERC721/ERC721.sol\":4801:4842  _isApprovedOrOwner(_msgSender(), tokenId) */\n      jump\t// in\n    tag_118:\n        /* \"node_modules/@openzeppelin/contracts/token/ERC721/ERC721.sol\":4793:4893  require(_isApprovedOrOwner(_msgSender(), tokenId), \"ERC721: caller is not token owner nor approved\") */\n      tag_121\n      jumpi\n      mload(0x40)\n      0x08c379a000000000000000000000000000000000000000000000000000000000\n      dup2\n      mstore\n      0x04\n      add\n      tag_122\n      swap1\n      tag_123\n      jump\t// in\n    tag_122:\n      mload(0x40)\n      dup1\n      swap2\n      sub\n      swap1\n      revert\n    tag_121:\n        /* \"node_modules/@openzeppelin/contracts/token/ERC721/ERC721.sol\":4904:4932  _transfer(from, to, tokenId) */\n      tag_124\n        /* \"node_modules/@openzeppelin/contracts/token/ERC721/ERC721.sol\":4914:4918  from */\n      dup4\n        /* \"node_modules/@openzeppelin/contracts/token/ERC721/ERC721.sol\":4920:4922  to */\n      dup4\n        /* \"node_modules/@openzeppelin/contracts/token/ERC721/ERC721.sol\":4924:4931  tokenId */\n      dup4\n        /* \"node_modules/@openzeppelin/contracts/token/ERC721/ERC721.sol\":4904:4913  _transfer */\n      tag_125\n        /* \"node_modules/@openzeppelin/contracts/token/ERC721/ERC721.sol\":4904:4932  _transfer(from, to, tokenId) */\n      jump\t// in\n    tag_124:\n        /* \"node_modules/@openzeppelin/contracts/token/ERC721/ERC721.sol\":4612:4939  function transferFrom(... */\n      pop\n      pop\n      pop\n      jump\t// out\n        /* \"contracts/SimpleCollectible.sol\":561:856  function createCollectible(string memory _tokenURI)... */\n    tag_48:\n        /* \"contracts/SimpleCollectible.sol\":647:654  uint256 */\n      0x00\n        /* \"contracts/SimpleCollectible.sol\":670:689  uint256 _newTokenId */\n      dup1\n        /* \"contracts/SimpleCollectible.sol\":692:705  _tokenCounter */\n      sload(0x06)\n        /* \"contracts/SimpleCollectible.sol\":670:705  uint256 _newTokenId = _tokenCounter */\n      swap1\n      pop\n        /* \"contracts/SimpleCollectible.sol\":715:749  _safeMint(msg.sender, _newTokenId) */\n      tag_127\n        /* \"contracts/SimpleCollectible.sol\":725:735  msg.sender */\n      caller\n        /* \"contracts/SimpleCollectible.sol\":737:748  _newTokenId */\n      dup3\n        /* \"contracts/SimpleCollectible.sol\":715:724  _safeMint */\n      tag_128\n        /* \"contracts/SimpleCollectible.sol\":715:749  _safeMint(msg.sender, _newTokenId) */\n      jump\t// in\n    tag_127:\n        /* \"contracts/SimpleCollectible.sol\":759:795  _setTokenURI(_newTokenId, _tokenURI) */\n      tag_129\n        /* \"contracts/SimpleCollectible.sol\":772:783  _newTokenId */\n      dup2\n        /* \"contracts/SimpleCollectible.sol\":785:794  _tokenURI */\n      dup5\n        /* \"contracts/SimpleCollectible.sol\":759:771  _setTokenURI */\n      tag_130\n        /* \"contracts/SimpleCollectible.sol\":759:795  _setTokenURI(_newTokenId, _tokenURI) */\n      jump\t// in\n    tag_129:\n        /* \"contracts/SimpleCollectible.sol\":807:820  _tokenCounter */\n      0x06\n      0x00\n        /* \"contracts/SimpleCollectible.sol\":805:820  ++_tokenCounter */\n      dup2\n      sload\n      tag_131\n      swap1\n      tag_132\n      jump\t// in\n    tag_131:\n      swap2\n      swap1\n      pop\n      dup2\n      swap1\n      sstore\n      pop\n        /* \"contracts/SimpleCollectible.sol\":838:849  _newTokenId */\n      dup1\n        /* \"contracts/SimpleCollectible.sol\":831:849  return _newTokenId */\n      swap2\n      pop\n      pop\n        /* \"contracts/SimpleCollectible.sol\":561:856  function createCollectible(string memory _tokenURI)... */\n      swap2\n      swap1\n      pop\n      jump\t// out\n        /* \"contracts/SimpleCollectible.sol\":862:1038  function getTokenURI(uint256 _tokenId)... */\n    tag_53:\n        /* \"contracts/SimpleCollectible.sol\":948:961  string memory */\n      0x60\n        /* \"contracts/SimpleCollectible.sol\":977:994  _exists(_tokenId) */\n      tag_134\n        /* \"contracts/SimpleCollectible.sol\":985:993  _tokenId */\n      dup3\n        /* \"contracts/SimpleCollectible.sol\":977:984  _exists */\n      tag_135\n        /* \"contracts/SimpleCollectible.sol\":977:994  _exists(_tokenId) */\n      jump\t// in\n    tag_134:\n      pop\n        /* \"contracts/SimpleCollectible.sol\":1011:1021  _tokenURIs */\n      0x07\n        /* \"contracts/SimpleCollectible.sol\":1011:1031  _tokenURIs[_tokenId] */\n      0x00\n        /* \"contracts/SimpleCollectible.sol\":1022:1030  _tokenId */\n      dup4\n        /* \"contracts/SimpleCollectible.sol\":1011:1031  _tokenURIs[_tokenId] */\n      dup2\n      mstore\n      0x20\n      add\n      swap1\n      dup2\n      mstore\n      0x20\n      add\n      0x00\n      keccak256\n        /* \"contracts/SimpleCollectible.sol\":1004:1031  return _tokenURIs[_tokenId] */\n      dup1\n      sload\n      tag_136\n      swap1\n      tag_94\n      jump\t// in\n    tag_136:\n      dup1\n      0x1f\n      add\n      0x20\n      dup1\n      swap2\n      div\n      mul\n      0x20\n      add\n      mload(0x40)\n      swap1\n      dup2\n      add\n      0x40\n      mstore\n      dup1\n      swap3\n      swap2\n      swap1\n      dup2\n      dup2\n      mstore\n      0x20\n      add\n      dup3\n      dup1\n      sload\n      tag_137\n      swap1\n      tag_94\n      jump\t// in\n    tag_137:\n      dup1\n      iszero\n      tag_138\n      jumpi\n      dup1\n      0x1f\n      lt\n      tag_139\n      jumpi\n      0x0100\n      dup1\n      dup4\n      sload\n      div\n      mul\n      dup4\n      mstore\n      swap2\n      0x20\n      add\n      swap2\n      jump(tag_138)\n    tag_139:\n      dup3\n      add\n      swap2\n      swap1\n      0x00\n      mstore\n      keccak256(0x00, 0x20)\n      swap1\n    tag_140:\n      dup2\n      sload\n      dup2\n      mstore\n      swap1\n      0x01\n      add\n      swap1\n      0x20\n      add\n      dup1\n      dup4\n      gt\n      tag_140\n      jumpi\n      dup3\n      swap1\n      sub\n      0x1f\n      and\n      dup3\n      add\n      swap2\n    tag_138:\n      pop\n      pop\n      pop\n      pop\n      pop\n      swap1\n      pop\n        /* \"contracts/SimpleCollectible.sol\":862:1038  function getTokenURI(uint256 _tokenId)... */\n      swap2\n      swap1\n      pop\n      jump\t// out\n        /* \"node_modules/@openzeppelin/contracts/token/ERC721/ERC721.sol\":5005:5184  function safeTransferFrom(... */\n    tag_57:\n        /* \"node_modules/@openzeppelin/contracts/token/ERC721/ERC721.sol\":5138:5177  safeTransferFrom(from, to, tokenId, \"\") */\n      tag_142\n        /* \"node_modules/@openzeppelin/contracts/token/ERC721/ERC721.sol\":5155:5159  from */\n      dup4\n        /* \"node_modules/@openzeppelin/contracts/token/ERC721/ERC721.sol\":5161:5163  to */\n      dup4\n        /* \"node_modules/@openzeppelin/contracts/token/ERC721/ERC721.sol\":5165:5172  tokenId */\n      dup4\n        /* \"node_modules/@openzeppelin/contracts/token/ERC721/ERC721.sol\":5138:5177  safeTransferFrom(from, to, tokenId, \"\") */\n      mload(0x40)\n      dup1\n      0x20\n      add\n      0x40\n      mstore\n      dup1\n      0x00\n      dup2\n      mstore\n      pop\n        /* \"node_modules/@openzeppelin/contracts/token/ERC721/ERC721.sol\":5138:5154  safeTransferFrom */\n      tag_77\n        /* \"node_modules/@openzeppelin/contracts/token/ERC721/ERC721.sol\":5138:5177  safeTransferFrom(from, to, tokenId, \"\") */\n      jump\t// in\n    tag_142:\n        /* \"node_modules/@openzeppelin/contracts/token/ERC721/ERC721.sol\":5005:5184  function safeTransferFrom(... */\n      pop\n      pop\n      pop\n      jump\t// out\n        /* \"node_modules/@openzeppelin/contracts/token/ERC721/ERC721.sol\":2190:2408  function ownerOf(uint256 tokenId) public view virtual override returns (address) {... */\n    tag_60:\n        /* \"node_modules/@openzeppelin/contracts/token/ERC721/ERC721.sol\":2262:2269  address */\n      0x00\n        /* \"node_modules/@openzeppelin/contracts/token/ERC721/ERC721.sol\":2281:2294  address owner */\n      dup1\n        /* \"node_modules/@openzeppelin/contracts/token/ERC721/ERC721.sol\":2297:2304  _owners */\n      0x02\n        /* \"node_modules/@openzeppelin/contracts/token/ERC721/ERC721.sol\":2297:2313  _owners[tokenId] */\n      0x00\n        /* \"node_modules/@openzeppelin/contracts/token/ERC721/ERC721.sol\":2305:2312  tokenId */\n      dup5\n        /* \"node_modules/@openzeppelin/contracts/token/ERC721/ERC721.sol\":2297:2313  _owners[tokenId] */\n      dup2\n      mstore\n      0x20\n      add\n      swap1\n      dup2\n      mstore\n      0x20\n      add\n      0x00\n      keccak256\n      0x00\n      swap1\n      sload\n      swap1\n      0x0100\n      exp\n      swap1\n      div\n      0xffffffffffffffffffffffffffffffffffffffff\n      and\n        /* \"node_modules/@openzeppelin/contracts/token/ERC721/ERC721.sol\":2281:2313  address owner = _owners[tokenId] */\n      swap1\n      pop\n        /* \"node_modules/@openzeppelin/contracts/token/ERC721/ERC721.sol\":2348:2349  0 */\n      0x00\n        /* \"node_modules/@openzeppelin/contracts/token/ERC721/ERC721.sol\":2331:2350  owner != address(0) */\n      0xffffffffffffffffffffffffffffffffffffffff\n      and\n        /* \"node_modules/@openzeppelin/contracts/token/ERC721/ERC721.sol\":2331:2336  owner */\n      dup2\n        /* \"node_modules/@openzeppelin/contracts/token/ERC721/ERC721.sol\":2331:2350  owner != address(0) */\n      0xffffffffffffffffffffffffffffffffffffffff\n      and\n      eq\n      iszero\n        /* \"node_modules/@openzeppelin/contracts/token/ERC721/ERC721.sol\":2323:2379  require(owner != address(0), \"ERC721: invalid token ID\") */\n      tag_144\n      jumpi\n      mload(0x40)\n      0x08c379a000000000000000000000000000000000000000000000000000000000\n      dup2\n      mstore\n      0x04\n      add\n      tag_145\n      swap1\n      tag_146\n      jump\t// in\n    tag_145:\n      mload(0x40)\n      dup1\n      swap2\n      sub\n      swap1\n      revert\n    tag_144:\n        /* \"node_modules/@openzeppelin/contracts/token/ERC721/ERC721.sol\":2396:2401  owner */\n      dup1\n        /* \"node_modules/@openzeppelin/contracts/token/ERC721/ERC721.sol\":2389:2401  return owner */\n      swap2\n      pop\n      pop\n        /* \"node_modules/@openzeppelin/contracts/token/ERC721/ERC721.sol\":2190:2408  function ownerOf(uint256 tokenId) public view virtual override returns (address) {... */\n      swap2\n      swap1\n      pop\n      jump\t// out\n        /* \"node_modules/@openzeppelin/contracts/token/ERC721/ERC721.sol\":1929:2133  function balanceOf(address owner) public view virtual override returns (uint256) {... */\n    tag_65:\n        /* \"node_modules/@openzeppelin/contracts/token/ERC721/ERC721.sol\":2001:2008  uint256 */\n      0x00\n        /* \"node_modules/@openzeppelin/contracts/token/ERC721/ERC721.sol\":2045:2046  0 */\n      dup1\n        /* \"node_modules/@openzeppelin/contracts/token/ERC721/ERC721.sol\":2028:2047  owner != address(0) */\n      0xffffffffffffffffffffffffffffffffffffffff\n      and\n        /* \"node_modules/@openzeppelin/contracts/token/ERC721/ERC721.sol\":2028:2033  owner */\n      dup3\n        /* \"node_modules/@openzeppelin/contracts/token/ERC721/ERC721.sol\":2028:2047  owner != address(0) */\n      0xffffffffffffffffffffffffffffffffffffffff\n      and\n      eq\n      iszero\n        /* \"node_modules/@openzeppelin/contracts/token/ERC721/ERC721.sol\":2020:2093  require(owner != address(0), \"ERC721: address zero is not a valid owner\") */\n      tag_148\n      jumpi\n      mload(0x40)\n      0x08c379a000000000000000000000000000000000000000000000000000000000\n      dup2\n      mstore\n      0x04\n      add\n      tag_149\n      swap1\n      tag_150\n      jump\t// in\n    tag_149:\n      mload(0x40)\n      dup1\n      swap2\n      sub\n      swap1\n      revert\n    tag_148:\n        /* \"node_modules/@openzeppelin/contracts/token/ERC721/ERC721.sol\":2110:2119  _balances */\n      0x03\n        /* \"node_modules/@openzeppelin/contracts/token/ERC721/ERC721.sol\":2110:2126  _balances[owner] */\n      0x00\n        /* \"node_modules/@openzeppelin/contracts/token/ERC721/ERC721.sol\":2120:2125  owner */\n      dup4\n        /* \"node_modules/@openzeppelin/contracts/token/ERC721/ERC721.sol\":2110:2126  _balances[owner] */\n      0xffffffffffffffffffffffffffffffffffffffff\n      and\n      0xffffffffffffffffffffffffffffffffffffffff\n      and\n      dup2\n      mstore\n      0x20\n      add\n      swap1\n      dup2\n      mstore\n      0x20\n      add\n      0x00\n      keccak256\n      sload\n        /* \"node_modules/@openzeppelin/contracts/token/ERC721/ERC721.sol\":2103:2126  return _balances[owner] */\n      swap1\n      pop\n        /* \"node_modules/@openzeppelin/contracts/token/ERC721/ERC721.sol\":1929:2133  function balanceOf(address owner) public view virtual override returns (uint256) {... */\n      swap2\n      swap1\n      pop\n      jump\t// out\n        /* \"node_modules/@openzeppelin/contracts/token/ERC721/ERC721.sol\":2632:2734  function symbol() public view virtual override returns (string memory) {... */\n    tag_68:\n        /* \"node_modules/@openzeppelin/contracts/token/ERC721/ERC721.sol\":2688:2701  string memory */\n      0x60\n        /* \"node_modules/@openzeppelin/contracts/token/ERC721/ERC721.sol\":2720:2727  _symbol */\n      0x01\n        /* \"node_modules/@openzeppelin/contracts/token/ERC721/ERC721.sol\":2713:2727  return _symbol */\n      dup1\n      sload\n      tag_152\n      swap1\n      tag_94\n      jump\t// in\n    tag_152:\n      dup1\n      0x1f\n      add\n      0x20\n      dup1\n      swap2\n      div\n      mul\n      0x20\n      add\n      mload(0x40)\n      swap1\n      dup2\n      add\n      0x40\n      mstore\n      dup1\n      swap3\n      swap2\n      swap1\n      dup2\n      dup2\n      mstore\n      0x20\n      add\n      dup3\n      dup1\n      sload\n      tag_153\n      swap1\n      tag_94\n      jump\t// in\n    tag_153:\n      dup1\n      iszero\n      tag_154\n      jumpi\n      dup1\n      0x1f\n      lt\n      tag_155\n      jumpi\n      0x0100\n      dup1\n      dup4\n      sload\n      div\n      mul\n      dup4\n      mstore\n      swap2\n      0x20\n      add\n      swap2\n      jump(tag_154)\n    tag_155:\n      dup3\n      add\n      swap2\n      swap1\n      0x00\n      mstore\n      keccak256(0x00, 0x20)\n      swap1\n    tag_156:\n      dup2\n      sload\n      dup2\n      mstore\n      swap1\n      0x01\n      add\n      swap1\n      0x20\n      add\n      dup1\n      dup4\n      gt\n      tag_156\n      jumpi\n      dup3\n      swap1\n      sub\n      0x1f\n      and\n      dup3\n      add\n      swap2\n    tag_154:\n      pop\n      pop\n      pop\n      pop\n      pop\n      swap1\n      pop\n        /* \"node_modules/@openzeppelin/contracts/token/ERC721/ERC721.sol\":2632:2734  function symbol() public view virtual override returns (string memory) {... */\n      swap1\n      jump\t// out\n        /* \"node_modules/@openzeppelin/contracts/token/ERC721/ERC721.sol\":4169:4322  function setApprovalForAll(address operator, bool approved) public virtual override {... */\n    tag_73:\n        /* \"node_modules/@openzeppelin/contracts/token/ERC721/ERC721.sol\":4263:4315  _setApprovalForAll(_msgSender(), operator, approved) */\n      tag_158\n        /* \"node_modules/@openzeppelin/contracts/token/ERC721/ERC721.sol\":4282:4294  _msgSender() */\n      tag_159\n        /* \"node_modules/@openzeppelin/contracts/token/ERC721/ERC721.sol\":4282:4292  _msgSender */\n      tag_108\n        /* \"node_modules/@openzeppelin/contracts/token/ERC721/ERC721.sol\":4282:4294  _msgSender() */\n      jump\t// in\n    tag_159:\n        /* \"node_modules/@openzeppelin/contracts/token/ERC721/ERC721.sol\":4296:4304  operator */\n      dup4\n        /* \"node_modules/@openzeppelin/contracts/token/ERC721/ERC721.sol\":4306:4314  approved */\n      dup4\n        /* \"node_modules/@openzeppelin/contracts/token/ERC721/ERC721.sol\":4263:4281  _setApprovalForAll */\n      tag_160\n        /* \"node_modules/@openzeppelin/contracts/token/ERC721/ERC721.sol\":4263:4315  _setApprovalForAll(_msgSender(), operator, approved) */\n      jump\t// in\n    tag_158:\n        /* \"node_modules/@openzeppelin/contracts/token/ERC721/ERC721.sol\":4169:4322  function setApprovalForAll(address operator, bool approved) public virtual override {... */\n      pop\n      pop\n      jump\t// out\n        /* \"node_modules/@openzeppelin/contracts/token/ERC721/ERC721.sol\":5250:5565  function safeTransferFrom(... */\n    tag_77:\n        /* \"node_modules/@openzeppelin/contracts/token/ERC721/ERC721.sol\":5418:5459  _isApprovedOrOwner(_msgSender(), tokenId) */\n      tag_162\n        /* \"node_modules/@openzeppelin/contracts/token/ERC721/ERC721.sol\":5437:5449  _msgSender() */\n      tag_163\n        /* \"node_modules/@openzeppelin/contracts/token/ERC721/ERC721.sol\":5437:5447  _msgSender */\n      tag_108\n        /* \"node_modules/@openzeppelin/contracts/token/ERC721/ERC721.sol\":5437:5449  _msgSender() */\n      jump\t// in\n    tag_163:\n        /* \"node_modules/@openzeppelin/contracts/token/ERC721/ERC721.sol\":5451:5458  tokenId */\n      dup4\n        /* \"node_modules/@openzeppelin/contracts/token/ERC721/ERC721.sol\":5418:5436  _isApprovedOrOwner */\n      tag_120\n        /* \"node_modules/@openzeppelin/contracts/token/ERC721/ERC721.sol\":5418:5459  _isApprovedOrOwner(_msgSender(), tokenId) */\n      jump\t// in\n    tag_162:\n        /* \"node_modules/@openzeppelin/contracts/token/ERC721/ERC721.sol\":5410:5510  require(_isApprovedOrOwner(_msgSender(), tokenId), \"ERC721: caller is not token owner nor approved\") */\n      tag_164\n      jumpi\n      mload(0x40)\n      0x08c379a000000000000000000000000000000000000000000000000000000000\n      dup2\n      mstore\n      0x04\n      add\n      tag_165\n      swap1\n      tag_123\n      jump\t// in\n    tag_165:\n      mload(0x40)\n      dup1\n      swap2\n      sub\n      swap1\n      revert\n    tag_164:\n        /* \"node_modules/@openzeppelin/contracts/token/ERC721/ERC721.sol\":5520:5558  _safeTransfer(from, to, tokenId, data) */\n      tag_166\n        /* \"node_modules/@openzeppelin/contracts/token/ERC721/ERC721.sol\":5534:5538  from */\n      dup5\n        /* \"node_modules/@openzeppelin/contracts/token/ERC721/ERC721.sol\":5540:5542  to */\n      dup5\n        /* \"node_modules/@openzeppelin/contracts/token/ERC721/ERC721.sol\":5544:5551  tokenId */\n      dup5\n        /* \"node_modules/@openzeppelin/contracts/token/ERC721/ERC721.sol\":5553:5557  data */\n      dup5\n        /* \"node_modules/@openzeppelin/contracts/token/ERC721/ERC721.sol\":5520:5533  _safeTransfer */\n      tag_167\n        /* \"node_modules/@openzeppelin/contracts/token/ERC721/ERC721.sol\":5520:5558  _safeTransfer(from, to, tokenId, data) */\n      jump\t// in\n    tag_166:\n        /* \"node_modules/@openzeppelin/contracts/token/ERC721/ERC721.sol\":5250:5565  function safeTransferFrom(... */\n      pop\n      pop\n      pop\n      pop\n      jump\t// out\n        /* \"node_modules/@openzeppelin/contracts/token/ERC721/ERC721.sol\":2800:3076  function tokenURI(uint256 tokenId) public view virtual override returns (string memory) {... */\n    tag_80:\n        /* \"node_modules/@openzeppelin/contracts/token/ERC721/ERC721.sol\":2873:2886  string memory */\n      0x60\n        /* \"node_modules/@openzeppelin/contracts/token/ERC721/ERC721.sol\":2898:2921  _requireMinted(tokenId) */\n      tag_169\n        /* \"node_modules/@openzeppelin/contracts/token/ERC721/ERC721.sol\":2913:2920  tokenId */\n      dup3\n        /* \"node_modules/@openzeppelin/contracts/token/ERC721/ERC721.sol\":2898:2912  _requireMinted */\n      tag_101\n        /* \"node_modules/@openzeppelin/contracts/token/ERC721/ERC721.sol\":2898:2921  _requireMinted(tokenId) */\n      jump\t// in\n    tag_169:\n        /* \"node_modules/@openzeppelin/contracts/token/ERC721/ERC721.sol\":2932:2953  string memory baseURI */\n      0x00\n        /* \"node_modules/@openzeppelin/contracts/token/ERC721/ERC721.sol\":2956:2966  _baseURI() */\n      tag_170\n        /* \"node_modules/@openzeppelin/contracts/token/ERC721/ERC721.sol\":2956:2964  _baseURI */\n      tag_171\n        /* \"node_modules/@openzeppelin/contracts/token/ERC721/ERC721.sol\":2956:2966  _baseURI() */\n      jump\t// in\n    tag_170:\n        /* \"node_modules/@openzeppelin/contracts/token/ERC721/ERC721.sol\":2932:2966  string memory baseURI = _baseURI() */\n      swap1\n      pop\n        /* \"node_modules/@openzeppelin/contracts/token/ERC721/ERC721.sol\":3007:3008  0 */\n      0x00\n        /* \"node_modules/@openzeppelin/contracts/token/ERC721/ERC721.sol\":2989:2996  baseURI */\n      dup2\n        /* \"node_modules/@openzeppelin/contracts/token/ERC721/ERC721.sol\":2983:3004  bytes(baseURI).length */\n      mload\n        /* \"node_modules/@openzeppelin/contracts/token/ERC721/ERC721.sol\":2983:3008  bytes(baseURI).length > 0 */\n      gt\n        /* \"node_modules/@openzeppelin/contracts/token/ERC721/ERC721.sol\":2983:3069  bytes(baseURI).length > 0 ? string(abi.encodePacked(baseURI, tokenId.toString())) : \"\" */\n      tag_172\n      jumpi\n      mload(0x40)\n      dup1\n      0x20\n      add\n      0x40\n      mstore\n      dup1\n      0x00\n      dup2\n      mstore\n      pop\n      jump(tag_173)\n    tag_172:\n        /* \"node_modules/@openzeppelin/contracts/token/ERC721/ERC721.sol\":3035:3042  baseURI */\n      dup1\n        /* \"node_modules/@openzeppelin/contracts/token/ERC721/ERC721.sol\":3044:3062  tokenId.toString() */\n      tag_174\n        /* \"node_modules/@openzeppelin/contracts/token/ERC721/ERC721.sol\":3044:3051  tokenId */\n      dup5\n        /* \"node_modules/@openzeppelin/contracts/token/ERC721/ERC721.sol\":3044:3060  tokenId.toString */\n      tag_175\n        /* \"node_modules/@openzeppelin/contracts/token/ERC721/ERC721.sol\":3044:3062  tokenId.toString() */\n      jump\t// in\n    tag_174:\n        /* \"node_modules/@openzeppelin/contracts/token/ERC721/ERC721.sol\":3018:3063  abi.encodePacked(baseURI, tokenId.toString()) */\n      add(0x20, mload(0x40))\n      tag_176\n      swap3\n      swap2\n      swap1\n      tag_177\n      jump\t// in\n    tag_176:\n      mload(0x40)\n      0x20\n      dup2\n      dup4\n      sub\n      sub\n      dup2\n      mstore\n      swap1\n      0x40\n      mstore\n        /* \"node_modules/@openzeppelin/contracts/token/ERC721/ERC721.sol\":2983:3069  bytes(baseURI).length > 0 ? string(abi.encodePacked(baseURI, tokenId.toString())) : \"\" */\n    tag_173:\n        /* \"node_modules/@openzeppelin/contracts/token/ERC721/ERC721.sol\":2976:3069  return bytes(baseURI).length > 0 ? string(abi.encodePacked(baseURI, tokenId.toString())) : \"\" */\n      swap2\n      pop\n      pop\n        /* \"node_modules/@openzeppelin/contracts/token/ERC721/ERC721.sol\":2800:3076  function tokenURI(uint256 tokenId) public view virtual override returns (string memory) {... */\n      swap2\n      swap1\n      pop\n      jump\t// out\n        /* \"node_modules/@openzeppelin/contracts/token/ERC721/ERC721.sol\":4388:4550  function isApprovedForAll(address owner, address operator) public view virtual override returns (bool) {... */\n    tag_85:\n        /* \"node_modules/@openzeppelin/contracts/token/ERC721/ERC721.sol\":4485:4489  bool */\n      0x00\n        /* \"node_modules/@openzeppelin/contracts/token/ERC721/ERC721.sol\":4508:4526  _operatorApprovals */\n      0x05\n        /* \"node_modules/@openzeppelin/contracts/token/ERC721/ERC721.sol\":4508:4533  _operatorApprovals[owner] */\n      0x00\n        /* \"node_modules/@openzeppelin/contracts/token/ERC721/ERC721.sol\":4527:4532  owner */\n      dup5\n        /* \"node_modules/@openzeppelin/contracts/token/ERC721/ERC721.sol\":4508:4533  _operatorApprovals[owner] */\n      0xffffffffffffffffffffffffffffffffffffffff\n      and\n      0xffffffffffffffffffffffffffffffffffffffff\n      and\n      dup2\n      mstore\n      0x20\n      add\n      swap1\n      dup2\n      mstore\n      0x20\n      add\n      0x00\n      keccak256\n        /* \"node_modules/@openzeppelin/contracts/token/ERC721/ERC721.sol\":4508:4543  _operatorApprovals[owner][operator] */\n      0x00\n        /* \"node_modules/@openzeppelin/contracts/token/ERC721/ERC721.sol\":4534:4542  operator */\n      dup4\n        /* \"node_modules/@openzeppelin/contracts/token/ERC721/ERC721.sol\":4508:4543  _operatorApprovals[owner][operator] */\n      0xffffffffffffffffffffffffffffffffffffffff\n      and\n      0xffffffffffffffffffffffffffffffffffffffff\n      and\n      dup2\n      mstore\n      0x20\n      add\n      swap1\n      dup2\n      mstore\n      0x20\n      add\n      0x00\n      keccak256\n      0x00\n      swap1\n      sload\n      swap1\n      0x0100\n      exp\n      swap1\n      div\n      0xff\n      and\n        /* \"node_modules/@openzeppelin/contracts/token/ERC721/ERC721.sol\":4501:4543  return _operatorApprovals[owner][operator] */\n      swap1\n      pop\n        /* \"node_modules/@openzeppelin/contracts/token/ERC721/ERC721.sol\":4388:4550  function isApprovedForAll(address owner, address operator) public view virtual override returns (bool) {... */\n      swap3\n      swap2\n      pop\n      pop\n      jump\t// out\n        /* \"node_modules/@openzeppelin/contracts/utils/introspection/ERC165.sol\":829:984  function supportsInterface(bytes4 interfaceId) public view virtual override returns (bool) {... */\n    tag_91:\n        /* \"node_modules/@openzeppelin/contracts/utils/introspection/ERC165.sol\":914:918  bool */\n      0x00\n        /* \"node_modules/@openzeppelin/contracts/utils/introspection/ERC165.sol\":952:977  type(IERC165).interfaceId */\n      0x01ffc9a700000000000000000000000000000000000000000000000000000000\n        /* \"node_modules/@openzeppelin/contracts/utils/introspection/ERC165.sol\":937:977  interfaceId == type(IERC165).interfaceId */\n      not(0xffffffffffffffffffffffffffffffffffffffffffffffffffffffff)\n      and\n        /* \"node_modules/@openzeppelin/contracts/utils/introspection/ERC165.sol\":937:948  interfaceId */\n      dup3\n        /* \"node_modules/@openzeppelin/contracts/utils/introspection/ERC165.sol\":937:977  interfaceId == type(IERC165).interfaceId */\n      not(0xffffffffffffffffffffffffffffffffffffffffffffffffffffffff)\n      and\n      eq\n        /* \"node_modules/@openzeppelin/contracts/utils/introspection/ERC165.sol\":930:977  return interfaceId == type(IERC165).interfaceId */\n      swap1\n      pop\n        /* \"node_modules/@openzeppelin/contracts/utils/introspection/ERC165.sol\":829:984  function supportsInterface(bytes4 interfaceId) public view virtual override returns (bool) {... */\n      swap2\n      swap1\n      pop\n      jump\t// out\n        /* \"node_modules/@openzeppelin/contracts/token/ERC721/ERC721.sol\":11657:11790  function _requireMinted(uint256 tokenId) internal view virtual {... */\n    tag_101:\n        /* \"node_modules/@openzeppelin/contracts/token/ERC721/ERC721.sol\":11738:11754  _exists(tokenId) */\n      tag_181\n        /* \"node_modules/@openzeppelin/contracts/token/ERC721/ERC721.sol\":11746:11753  tokenId */\n      dup2\n        /* \"node_modules/@openzeppelin/contracts/token/ERC721/ERC721.sol\":11738:11745  _exists */\n      tag_135\n        /* \"node_modules/@openzeppelin/contracts/token/ERC721/ERC721.sol\":11738:11754  _exists(tokenId) */\n      jump\t// in\n    tag_181:\n        /* \"node_modules/@openzeppelin/contracts/token/ERC721/ERC721.sol\":11730:11783  require(_exists(tokenId), \"ERC721: invalid token ID\") */\n      tag_182\n      jumpi\n      mload(0x40)\n      0x08c379a000000000000000000000000000000000000000000000000000000000\n      dup2\n      mstore\n      0x04\n      add\n      tag_183\n      swap1\n      tag_146\n      jump\t// in\n    tag_183:\n      mload(0x40)\n      dup1\n      swap2\n      sub\n      swap1\n      revert\n    tag_182:\n        /* \"node_modules/@openzeppelin/contracts/token/ERC721/ERC721.sol\":11657:11790  function _requireMinted(uint256 tokenId) internal view virtual {... */\n      pop\n      jump\t// out\n        /* \"node_modules/@openzeppelin/contracts/utils/Context.sol\":640:736  function _msgSender() internal view virtual returns (address) {... */\n    tag_108:\n        /* \"node_modules/@openzeppelin/contracts/utils/Context.sol\":693:700  address */\n      0x00\n        /* \"node_modules/@openzeppelin/contracts/utils/Context.sol\":719:729  msg.sender */\n      caller\n        /* \"node_modules/@openzeppelin/contracts/utils/Context.sol\":712:729  return msg.sender */\n      swap1\n      pop\n        /* \"node_modules/@openzeppelin/contracts/utils/Context.sol\":640:736  function _msgSender() internal view virtual returns (address) {... */\n      swap1\n      jump\t// out\n        /* \"node_modules/@openzeppelin/contracts/token/ERC721/ERC721.sol\":10959:11130  function _approve(address to, uint256 tokenId) internal virtual {... */\n    tag_116:\n        /* \"node_modules/@openzeppelin/contracts/token/ERC721/ERC721.sol\":11060:11062  to */\n      dup2\n        /* \"node_modules/@openzeppelin/contracts/token/ERC721/ERC721.sol\":11033:11048  _tokenApprovals */\n      0x04\n        /* \"node_modules/@openzeppelin/contracts/token/ERC721/ERC721.sol\":11033:11057  _tokenApprovals[tokenId] */\n      0x00\n        /* \"node_modules/@openzeppelin/contracts/token/ERC721/ERC721.sol\":11049:11056  tokenId */\n      dup4\n        /* \"node_modules/@openzeppelin/contracts/token/ERC721/ERC721.sol\":11033:11057  _tokenApprovals[tokenId] */\n      dup2\n      mstore\n      0x20\n      add\n      swap1\n      dup2\n      mstore\n      0x20\n      add\n      0x00\n      keccak256\n      0x00\n        /* \"node_modules/@openzeppelin/contracts/token/ERC721/ERC721.sol\":11033:11062  _tokenApprovals[tokenId] = to */\n      0x0100\n      exp\n      dup2\n      sload\n      dup2\n      0xffffffffffffffffffffffffffffffffffffffff\n      mul\n      not\n      and\n      swap1\n      dup4\n      0xffffffffffffffffffffffffffffffffffffffff\n      and\n      mul\n      or\n      swap1\n      sstore\n      pop\n        /* \"node_modules/@openzeppelin/contracts/token/ERC721/ERC721.sol\":11115:11122  tokenId */\n      dup1\n        /* \"node_modules/@openzeppelin/contracts/token/ERC721/ERC721.sol\":11111:11113  to */\n      dup3\n        /* \"node_modules/@openzeppelin/contracts/token/ERC721/ERC721.sol\":11077:11123  Approval(ERC721.ownerOf(tokenId), to, tokenId) */\n      0xffffffffffffffffffffffffffffffffffffffff\n      and\n        /* \"node_modules/@openzeppelin/contracts/token/ERC721/ERC721.sol\":11086:11109  ERC721.ownerOf(tokenId) */\n      tag_186\n        /* \"node_modules/@openzeppelin/contracts/token/ERC721/ERC721.sol\":11101:11108  tokenId */\n      dup4\n        /* \"node_modules/@openzeppelin/contracts/token/ERC721/ERC721.sol\":11086:11100  ERC721.ownerOf */\n      tag_60\n        /* \"node_modules/@openzeppelin/contracts/token/ERC721/ERC721.sol\":11086:11109  ERC721.ownerOf(tokenId) */\n      jump\t// in\n    tag_186:\n        /* \"node_modules/@openzeppelin/contracts/token/ERC721/ERC721.sol\":11077:11123  Approval(ERC721.ownerOf(tokenId), to, tokenId) */\n      0xffffffffffffffffffffffffffffffffffffffff\n      and\n      0x8c5be1e5ebec7d5bd14f71427d1e84f3dd0314c0f7b2291e5b200ac8c7c3b925\n      mload(0x40)\n      mload(0x40)\n      dup1\n      swap2\n      sub\n      swap1\n      log4\n        /* \"node_modules/@openzeppelin/contracts/token/ERC721/ERC721.sol\":10959:11130  function _approve(address to, uint256 tokenId) internal virtual {... */\n      pop\n      pop\n      jump\t// out\n        /* \"node_modules/@openzeppelin/contracts/token/ERC721/ERC721.sol\":7317:7578  function _isApprovedOrOwner(address spender, uint256 tokenId) internal view virtual returns (bool) {... */\n    tag_120:\n        /* \"node_modules/@openzeppelin/contracts/token/ERC721/ERC721.sol\":7410:7414  bool */\n      0x00\n        /* \"node_modules/@openzeppelin/contracts/token/ERC721/ERC721.sol\":7426:7439  address owner */\n      dup1\n        /* \"node_modules/@openzeppelin/contracts/token/ERC721/ERC721.sol\":7442:7465  ERC721.ownerOf(tokenId) */\n      tag_188\n        /* \"node_modules/@openzeppelin/contracts/token/ERC721/ERC721.sol\":7457:7464  tokenId */\n      dup4\n        /* \"node_modules/@openzeppelin/contracts/token/ERC721/ERC721.sol\":7442:7456  ERC721.ownerOf */\n      tag_60\n        /* \"node_modules/@openzeppelin/contracts/token/ERC721/ERC721.sol\":7442:7465  ERC721.ownerOf(tokenId) */\n      jump\t// in\n    tag_188:\n        /* \"node_modules/@openzeppelin/contracts/token/ERC721/ERC721.sol\":7426:7465  address owner = ERC721.ownerOf(tokenId) */\n      swap1\n      pop\n        /* \"node_modules/@openzeppelin/contracts/token/ERC721/ERC721.sol\":7494:7499  owner */\n      dup1\n        /* \"node_modules/@openzeppelin/contracts/token/ERC721/ERC721.sol\":7483:7499  spender == owner */\n      0xffffffffffffffffffffffffffffffffffffffff\n      and\n        /* \"node_modules/@openzeppelin/contracts/token/ERC721/ERC721.sol\":7483:7490  spender */\n      dup5\n        /* \"node_modules/@openzeppelin/contracts/token/ERC721/ERC721.sol\":7483:7499  spender == owner */\n      0xffffffffffffffffffffffffffffffffffffffff\n      and\n      eq\n        /* \"node_modules/@openzeppelin/contracts/token/ERC721/ERC721.sol\":7483:7535  spender == owner || isApprovedForAll(owner, spender) */\n      dup1\n      tag_189\n      jumpi\n      pop\n        /* \"node_modules/@openzeppelin/contracts/token/ERC721/ERC721.sol\":7503:7535  isApprovedForAll(owner, spender) */\n      tag_190\n        /* \"node_modules/@openzeppelin/contracts/token/ERC721/ERC721.sol\":7520:7525  owner */\n      dup2\n        /* \"node_modules/@openzeppelin/contracts/token/ERC721/ERC721.sol\":7527:7534  spender */\n      dup6\n        /* \"node_modules/@openzeppelin/contracts/token/ERC721/ERC721.sol\":7503:7519  isApprovedForAll */\n      tag_85\n        /* \"node_modules/@openzeppelin/contracts/token/ERC721/ERC721.sol\":7503:7535  isApprovedForAll(owner, spender) */\n      jump\t// in\n    tag_190:\n        /* \"node_modules/@openzeppelin/contracts/token/ERC721/ERC721.sol\":7483:7535  spender == owner || isApprovedForAll(owner, spender) */\n    tag_189:\n        /* \"node_modules/@openzeppelin/contracts/token/ERC721/ERC721.sol\":7483:7570  spender == owner || isApprovedForAll(owner, spender) || getApproved(tokenId) == spender */\n      dup1\n      tag_191\n      jumpi\n      pop\n        /* \"node_modules/@openzeppelin/contracts/token/ERC721/ERC721.sol\":7563:7570  spender */\n      dup4\n        /* \"node_modules/@openzeppelin/contracts/token/ERC721/ERC721.sol\":7539:7570  getApproved(tokenId) == spender */\n      0xffffffffffffffffffffffffffffffffffffffff\n      and\n        /* \"node_modules/@openzeppelin/contracts/token/ERC721/ERC721.sol\":7539:7559  getApproved(tokenId) */\n      tag_192\n        /* \"node_modules/@openzeppelin/contracts/token/ERC721/ERC721.sol\":7551:7558  tokenId */\n      dup5\n        /* \"node_modules/@openzeppelin/contracts/token/ERC721/ERC721.sol\":7539:7550  getApproved */\n      tag_34\n        /* \"node_modules/@openzeppelin/contracts/token/ERC721/ERC721.sol\":7539:7559  getApproved(tokenId) */\n      jump\t// in\n    tag_192:\n        /* \"node_modules/@openzeppelin/contracts/token/ERC721/ERC721.sol\":7539:7570  getApproved(tokenId) == spender */\n      0xffffffffffffffffffffffffffffffffffffffff\n      and\n      eq\n        /* \"node_modules/@openzeppelin/contracts/token/ERC721/ERC721.sol\":7483:7570  spender == owner || isApprovedForAll(owner, spender) || getApproved(tokenId) == spender */\n    tag_191:\n        /* \"node_modules/@openzeppelin/contracts/token/ERC721/ERC721.sol\":7475:7571  return (spender == owner || isApprovedForAll(owner, spender) || getApproved(tokenId) == spender) */\n      swap2\n      pop\n      pop\n        /* \"node_modules/@openzeppelin/contracts/token/ERC721/ERC721.sol\":7317:7578  function _isApprovedOrOwner(address spender, uint256 tokenId) internal view virtual returns (bool) {... */\n      swap3\n      swap2\n      pop\n      pop\n      jump\t// out\n        /* \"node_modules/@openzeppelin/contracts/token/ERC721/ERC721.sol\":10242:10847  function _transfer(... */\n    tag_125:\n        /* \"node_modules/@openzeppelin/contracts/token/ERC721/ERC721.sol\":10396:10400  from */\n      dup3\n        /* \"node_modules/@openzeppelin/contracts/token/ERC721/ERC721.sol\":10369:10400  ERC721.ownerOf(tokenId) == from */\n      0xffffffffffffffffffffffffffffffffffffffff\n      and\n        /* \"node_modules/@openzeppelin/contracts/token/ERC721/ERC721.sol\":10369:10392  ERC721.ownerOf(tokenId) */\n      tag_194\n        /* \"node_modules/@openzeppelin/contracts/token/ERC721/ERC721.sol\":10384:10391  tokenId */\n      dup3\n        /* \"node_modules/@openzeppelin/contracts/token/ERC721/ERC721.sol\":10369:10383  ERC721.ownerOf */\n      tag_60\n        /* \"node_modules/@openzeppelin/contracts/token/ERC721/ERC721.sol\":10369:10392  ERC721.ownerOf(tokenId) */\n      jump\t// in\n    tag_194:\n        /* \"node_modules/@openzeppelin/contracts/token/ERC721/ERC721.sol\":10369:10400  ERC721.ownerOf(tokenId) == from */\n      0xffffffffffffffffffffffffffffffffffffffff\n      and\n      eq\n        /* \"node_modules/@openzeppelin/contracts/token/ERC721/ERC721.sol\":10361:10442  require(ERC721.ownerOf(tokenId) == from, \"ERC721: transfer from incorrect owner\") */\n      tag_195\n      jumpi\n      mload(0x40)\n      0x08c379a000000000000000000000000000000000000000000000000000000000\n      dup2\n      mstore\n      0x04\n      add\n      tag_196\n      swap1\n      tag_197\n      jump\t// in\n    tag_196:\n      mload(0x40)\n      dup1\n      swap2\n      sub\n      swap1\n      revert\n    tag_195:\n        /* \"node_modules/@openzeppelin/contracts/token/ERC721/ERC721.sol\":10474:10475  0 */\n      0x00\n        /* \"node_modules/@openzeppelin/contracts/token/ERC721/ERC721.sol\":10460:10476  to != address(0) */\n      0xffffffffffffffffffffffffffffffffffffffff\n      and\n        /* \"node_modules/@openzeppelin/contracts/token/ERC721/ERC721.sol\":10460:10462  to */\n      dup3\n        /* \"node_modules/@openzeppelin/contracts/token/ERC721/ERC721.sol\":10460:10476  to != address(0) */\n      0xffffffffffffffffffffffffffffffffffffffff\n      and\n      eq\n      iszero\n        /* \"node_modules/@openzeppelin/contracts/token/ERC721/ERC721.sol\":10452:10517  require(to != address(0), \"ERC721: transfer to the zero address\") */\n      tag_198\n      jumpi\n      mload(0x40)\n      0x08c379a000000000000000000000000000000000000000000000000000000000\n      dup2\n      mstore\n      0x04\n      add\n      tag_199\n      swap1\n      tag_200\n      jump\t// in\n    tag_199:\n      mload(0x40)\n      dup1\n      swap2\n      sub\n      swap1\n      revert\n    tag_198:\n        /* \"node_modules/@openzeppelin/contracts/token/ERC721/ERC721.sol\":10528:10567  _beforeTokenTransfer(from, to, tokenId) */\n      tag_201\n        /* \"node_modules/@openzeppelin/contracts/token/ERC721/ERC721.sol\":10549:10553  from */\n      dup4\n        /* \"node_modules/@openzeppelin/contracts/token/ERC721/ERC721.sol\":10555:10557  to */\n      dup4\n        /* \"node_modules/@openzeppelin/contracts/token/ERC721/ERC721.sol\":10559:10566  tokenId */\n      dup4\n        /* \"node_modules/@openzeppelin/contracts/token/ERC721/ERC721.sol\":10528:10548  _beforeTokenTransfer */\n      tag_202\n        /* \"node_modules/@openzeppelin/contracts/token/ERC721/ERC721.sol\":10528:10567  _beforeTokenTransfer(from, to, tokenId) */\n      jump\t// in\n    tag_201:\n        /* \"node_modules/@openzeppelin/contracts/token/ERC721/ERC721.sol\":10629:10658  _approve(address(0), tokenId) */\n      tag_203\n        /* \"node_modules/@openzeppelin/contracts/token/ERC721/ERC721.sol\":10646:10647  0 */\n      0x00\n        /* \"node_modules/@openzeppelin/contracts/token/ERC721/ERC721.sol\":10650:10657  tokenId */\n      dup3\n        /* \"node_modules/@openzeppelin/contracts/token/ERC721/ERC721.sol\":10629:10637  _approve */\n      tag_116\n        /* \"node_modules/@openzeppelin/contracts/token/ERC721/ERC721.sol\":10629:10658  _approve(address(0), tokenId) */\n      jump\t// in\n    tag_203:\n        /* \"node_modules/@openzeppelin/contracts/token/ERC721/ERC721.sol\":10688:10689  1 */\n      0x01\n        /* \"node_modules/@openzeppelin/contracts/token/ERC721/ERC721.sol\":10669:10678  _balances */\n      0x03\n        /* \"node_modules/@openzeppelin/contracts/token/ERC721/ERC721.sol\":10669:10684  _balances[from] */\n      0x00\n        /* \"node_modules/@openzeppelin/contracts/token/ERC721/ERC721.sol\":10679:10683  from */\n      dup6\n        /* \"node_modules/@openzeppelin/contracts/token/ERC721/ERC721.sol\":10669:10684  _balances[from] */\n      0xffffffffffffffffffffffffffffffffffffffff\n      and\n      0xffffffffffffffffffffffffffffffffffffffff\n      and\n      dup2\n      mstore\n      0x20\n      add\n      swap1\n      dup2\n      mstore\n      0x20\n      add\n      0x00\n      keccak256\n      0x00\n        /* \"node_modules/@openzeppelin/contracts/token/ERC721/ERC721.sol\":10669:10689  _balances[from] -= 1 */\n      dup3\n      dup3\n      sload\n      tag_204\n      swap2\n      swap1\n      tag_205\n      jump\t// in\n    tag_204:\n      swap3\n      pop\n      pop\n      dup2\n      swap1\n      sstore\n      pop\n        /* \"node_modules/@openzeppelin/contracts/token/ERC721/ERC721.sol\":10716:10717  1 */\n      0x01\n        /* \"node_modules/@openzeppelin/contracts/token/ERC721/ERC721.sol\":10699:10708  _balances */\n      0x03\n        /* \"node_modules/@openzeppelin/contracts/token/ERC721/ERC721.sol\":10699:10712  _balances[to] */\n      0x00\n        /* \"node_modules/@openzeppelin/contracts/token/ERC721/ERC721.sol\":10709:10711  to */\n      dup5\n        /* \"node_modules/@openzeppelin/contracts/token/ERC721/ERC721.sol\":10699:10712  _balances[to] */\n      0xffffffffffffffffffffffffffffffffffffffff\n      and\n      0xffffffffffffffffffffffffffffffffffffffff\n      and\n      dup2\n      mstore\n      0x20\n      add\n      swap1\n      dup2\n      mstore\n      0x20\n      add\n      0x00\n      keccak256\n      0x00\n        /* \"node_modules/@openzeppelin/contracts/token/ERC721/ERC721.sol\":10699:10717  _balances[to] += 1 */\n      dup3\n      dup3\n      sload\n      tag_206\n      swap2\n      swap1\n      tag_207\n      jump\t// in\n    tag_206:\n      swap3\n      pop\n      pop\n      dup2\n      swap1\n      sstore\n      pop\n        /* \"node_modules/@openzeppelin/contracts/token/ERC721/ERC721.sol\":10746:10748  to */\n      dup2\n        /* \"node_modules/@openzeppelin/contracts/token/ERC721/ERC721.sol\":10727:10734  _owners */\n      0x02\n        /* \"node_modules/@openzeppelin/contracts/token/ERC721/ERC721.sol\":10727:10743  _owners[tokenId] */\n      0x00\n        /* \"node_modules/@openzeppelin/contracts/token/ERC721/ERC721.sol\":10735:10742  tokenId */\n      dup4\n        /* \"node_modules/@openzeppelin/contracts/token/ERC721/ERC721.sol\":10727:10743  _owners[tokenId] */\n      dup2\n      mstore\n      0x20\n      add\n      swap1\n      dup2\n      mstore\n      0x20\n      add\n      0x00\n      keccak256\n      0x00\n        /* \"node_modules/@openzeppelin/contracts/token/ERC721/ERC721.sol\":10727:10748  _owners[tokenId] = to */\n      0x0100\n      exp\n      dup2\n      sload\n      dup2\n      0xffffffffffffffffffffffffffffffffffffffff\n      mul\n      not\n      and\n      swap1\n      dup4\n      0xffffffffffffffffffffffffffffffffffffffff\n      and\n      mul\n      or\n      swap1\n      sstore\n      pop\n        /* \"node_modules/@openzeppelin/contracts/token/ERC721/ERC721.sol\":10783:10790  tokenId */\n      dup1\n        /* \"node_modules/@openzeppelin/contracts/token/ERC721/ERC721.sol\":10779:10781  to */\n      dup3\n        /* \"node_modules/@openzeppelin/contracts/token/ERC721/ERC721.sol\":10764:10791  Transfer(from, to, tokenId) */\n      0xffffffffffffffffffffffffffffffffffffffff\n      and\n        /* \"node_modules/@openzeppelin/contracts/token/ERC721/ERC721.sol\":10773:10777  from */\n      dup5\n        /* \"node_modules/@openzeppelin/contracts/token/ERC721/ERC721.sol\":10764:10791  Transfer(from, to, tokenId) */\n      0xffffffffffffffffffffffffffffffffffffffff\n      and\n      0xddf252ad1be2c89b69c2b068fc378daa952ba7f163c4a11628f55a4df523b3ef\n      mload(0x40)\n      mload(0x40)\n      dup1\n      swap2\n      sub\n      swap1\n      log4\n        /* \"node_modules/@openzeppelin/contracts/token/ERC721/ERC721.sol\":10802:10840  _afterTokenTransfer(from, to, tokenId) */\n      tag_208\n        /* \"node_modules/@openzeppelin/contracts/token/ERC721/ERC721.sol\":10822:10826  from */\n      dup4\n        /* \"node_modules/@openzeppelin/contracts/token/ERC721/ERC721.sol\":10828:10830  to */\n      dup4\n        /* \"node_modules/@openzeppelin/contracts/token/ERC721/ERC721.sol\":10832:10839  tokenId */\n      dup4\n        /* \"node_modules/@openzeppelin/contracts/token/ERC721/ERC721.sol\":10802:10821  _afterTokenTransfer */\n      tag_209\n        /* \"node_modules/@openzeppelin/contracts/token/ERC721/ERC721.sol\":10802:10840  _afterTokenTransfer(from, to, tokenId) */\n      jump\t// in\n    tag_208:\n        /* \"node_modules/@openzeppelin/contracts/token/ERC721/ERC721.sol\":10242:10847  function _transfer(... */\n      pop\n      pop\n      pop\n      jump\t// out\n        /* \"node_modules/@openzeppelin/contracts/token/ERC721/ERC721.sol\":7908:8016  function _safeMint(address to, uint256 tokenId) internal virtual {... */\n    tag_128:\n        /* \"node_modules/@openzeppelin/contracts/token/ERC721/ERC721.sol\":7983:8009  _safeMint(to, tokenId, \"\") */\n      tag_211\n        /* \"node_modules/@openzeppelin/contracts/token/ERC721/ERC721.sol\":7993:7995  to */\n      dup3\n        /* \"node_modules/@openzeppelin/contracts/token/ERC721/ERC721.sol\":7997:8004  tokenId */\n      dup3\n        /* \"node_modules/@openzeppelin/contracts/token/ERC721/ERC721.sol\":7983:8009  _safeMint(to, tokenId, \"\") */\n      mload(0x40)\n      dup1\n      0x20\n      add\n      0x40\n      mstore\n      dup1\n      0x00\n      dup2\n      mstore\n      pop\n        /* \"node_modules/@openzeppelin/contracts/token/ERC721/ERC721.sol\":7983:7992  _safeMint */\n      tag_212\n        /* \"node_modules/@openzeppelin/contracts/token/ERC721/ERC721.sol\":7983:8009  _safeMint(to, tokenId, \"\") */\n      jump\t// in\n    tag_211:\n        /* \"node_modules/@openzeppelin/contracts/token/ERC721/ERC721.sol\":7908:8016  function _safeMint(address to, uint256 tokenId) internal virtual {... */\n      pop\n      pop\n      jump\t// out\n        /* \"contracts/SimpleCollectible.sol\":340:555  function _setTokenURI(uint256 _tokenId, string memory _tokenURI) private {... */\n    tag_130:\n        /* \"contracts/SimpleCollectible.sol\":423:440  _exists(_tokenId) */\n      tag_214\n        /* \"contracts/SimpleCollectible.sol\":431:439  _tokenId */\n      dup3\n        /* \"contracts/SimpleCollectible.sol\":423:430  _exists */\n      tag_135\n        /* \"contracts/SimpleCollectible.sol\":423:440  _exists(_tokenId) */\n      jump\t// in\n    tag_214:\n      pop\n        /* \"contracts/SimpleCollectible.sol\":484:485  0 */\n      0x00\n        /* \"contracts/SimpleCollectible.sol\":464:473  _tokenURI */\n      dup2\n        /* \"contracts/SimpleCollectible.sol\":458:481  bytes(_tokenURI).length */\n      mload\n        /* \"contracts/SimpleCollectible.sol\":458:485  bytes(_tokenURI).length > 0 */\n      gt\n        /* \"contracts/SimpleCollectible.sol\":450:505  require(bytes(_tokenURI).length > 0, \"empty token URI\") */\n      tag_215\n      jumpi\n      mload(0x40)\n      0x08c379a000000000000000000000000000000000000000000000000000000000\n      dup2\n      mstore\n      0x04\n      add\n      tag_216\n      swap1\n      tag_217\n      jump\t// in\n    tag_216:\n      mload(0x40)\n      dup1\n      swap2\n      sub\n      swap1\n      revert\n    tag_215:\n        /* \"contracts/SimpleCollectible.sol\":539:548  _tokenURI */\n      dup1\n        /* \"contracts/SimpleCollectible.sol\":516:526  _tokenURIs */\n      0x07\n        /* \"contracts/SimpleCollectible.sol\":516:536  _tokenURIs[_tokenId] */\n      0x00\n        /* \"contracts/SimpleCollectible.sol\":527:535  _tokenId */\n      dup5\n        /* \"contracts/SimpleCollectible.sol\":516:536  _tokenURIs[_tokenId] */\n      dup2\n      mstore\n      0x20\n      add\n      swap1\n      dup2\n      mstore\n      0x20\n      add\n      0x00\n      keccak256\n        /* \"contracts/SimpleCollectible.sol\":516:548  _tokenURIs[_tokenId] = _tokenURI */\n      swap1\n      dup1\n      mload\n      swap1\n      0x20\n      add\n      swap1\n      tag_218\n      swap3\n      swap2\n      swap1\n      tag_219\n      jump\t// in\n    tag_218:\n      pop\n        /* \"contracts/SimpleCollectible.sol\":340:555  function _setTokenURI(uint256 _tokenId, string memory _tokenURI) private {... */\n      pop\n      pop\n      jump\t// out\n        /* \"node_modules/@openzeppelin/contracts/token/ERC721/ERC721.sol\":7034:7159  function _exists(uint256 tokenId) internal view virtual returns (bool) {... */\n    tag_135:\n        /* \"node_modules/@openzeppelin/contracts/token/ERC721/ERC721.sol\":7099:7103  bool */\n      0x00\n        /* \"node_modules/@openzeppelin/contracts/token/ERC721/ERC721.sol\":7150:7151  0 */\n      dup1\n        /* \"node_modules/@openzeppelin/contracts/token/ERC721/ERC721.sol\":7122:7152  _owners[tokenId] != address(0) */\n      0xffffffffffffffffffffffffffffffffffffffff\n      and\n        /* \"node_modules/@openzeppelin/contracts/token/ERC721/ERC721.sol\":7122:7129  _owners */\n      0x02\n        /* \"node_modules/@openzeppelin/contracts/token/ERC721/ERC721.sol\":7122:7138  _owners[tokenId] */\n      0x00\n        /* \"node_modules/@openzeppelin/contracts/token/ERC721/ERC721.sol\":7130:7137  tokenId */\n      dup5\n        /* \"node_modules/@openzeppelin/contracts/token/ERC721/ERC721.sol\":7122:7138  _owners[tokenId] */\n      dup2\n      mstore\n      0x20\n      add\n      swap1\n      dup2\n      mstore\n      0x20\n      add\n      0x00\n      keccak256\n      0x00\n      swap1\n      sload\n      swap1\n      0x0100\n      exp\n      swap1\n      div\n      0xffffffffffffffffffffffffffffffffffffffff\n      and\n        /* \"node_modules/@openzeppelin/contracts/token/ERC721/ERC721.sol\":7122:7152  _owners[tokenId] != address(0) */\n      0xffffffffffffffffffffffffffffffffffffffff\n      and\n      eq\n      iszero\n        /* \"node_modules/@openzeppelin/contracts/token/ERC721/ERC721.sol\":7115:7152  return _owners[tokenId] != address(0) */\n      swap1\n      pop\n        /* \"node_modules/@openzeppelin/contracts/token/ERC721/ERC721.sol\":7034:7159  function _exists(uint256 tokenId) internal view virtual returns (bool) {... */\n      swap2\n      swap1\n      pop\n      jump\t// out\n        /* \"node_modules/@openzeppelin/contracts/token/ERC721/ERC721.sol\":11266:11573  function _setApprovalForAll(... */\n    tag_160:\n        /* \"node_modules/@openzeppelin/contracts/token/ERC721/ERC721.sol\":11416:11424  operator */\n      dup2\n        /* \"node_modules/@openzeppelin/contracts/token/ERC721/ERC721.sol\":11407:11424  owner != operator */\n      0xffffffffffffffffffffffffffffffffffffffff\n      and\n        /* \"node_modules/@openzeppelin/contracts/token/ERC721/ERC721.sol\":11407:11412  owner */\n      dup4\n        /* \"node_modules/@openzeppelin/contracts/token/ERC721/ERC721.sol\":11407:11424  owner != operator */\n      0xffffffffffffffffffffffffffffffffffffffff\n      and\n      eq\n      iszero\n        /* \"node_modules/@openzeppelin/contracts/token/ERC721/ERC721.sol\":11399:11454  require(owner != operator, \"ERC721: approve to caller\") */\n      tag_222\n      jumpi\n      mload(0x40)\n      0x08c379a000000000000000000000000000000000000000000000000000000000\n      dup2\n      mstore\n      0x04\n      add\n      tag_223\n      swap1\n      tag_224\n      jump\t// in\n    tag_223:\n      mload(0x40)\n      dup1\n      swap2\n      sub\n      swap1\n      revert\n    tag_222:\n        /* \"node_modules/@openzeppelin/contracts/token/ERC721/ERC721.sol\":11502:11510  approved */\n      dup1\n        /* \"node_modules/@openzeppelin/contracts/token/ERC721/ERC721.sol\":11464:11482  _operatorApprovals */\n      0x05\n        /* \"node_modules/@openzeppelin/contracts/token/ERC721/ERC721.sol\":11464:11489  _operatorApprovals[owner] */\n      0x00\n        /* \"node_modules/@openzeppelin/contracts/token/ERC721/ERC721.sol\":11483:11488  owner */\n      dup6\n        /* \"node_modules/@openzeppelin/contracts/token/ERC721/ERC721.sol\":11464:11489  _operatorApprovals[owner] */\n      0xffffffffffffffffffffffffffffffffffffffff\n      and\n      0xffffffffffffffffffffffffffffffffffffffff\n      and\n      dup2\n      mstore\n      0x20\n      add\n      swap1\n      dup2\n      mstore\n      0x20\n      add\n      0x00\n      keccak256\n        /* \"node_modules/@openzeppelin/contracts/token/ERC721/ERC721.sol\":11464:11499  _operatorApprovals[owner][operator] */\n      0x00\n        /* \"node_modules/@openzeppelin/contracts/token/ERC721/ERC721.sol\":11490:11498  operator */\n      dup5\n        /* \"node_modules/@openzeppelin/contracts/token/ERC721/ERC721.sol\":11464:11499  _operatorApprovals[owner][operator] */\n      0xffffffffffffffffffffffffffffffffffffffff\n      and\n      0xffffffffffffffffffffffffffffffffffffffff\n      and\n      dup2\n      mstore\n      0x20\n      add\n      swap1\n      dup2\n      mstore\n      0x20\n      add\n      0x00\n      keccak256\n      0x00\n        /* \"node_modules/@openzeppelin/contracts/token/ERC721/ERC721.sol\":11464:11510  _operatorApprovals[owner][operator] = approved */\n      0x0100\n      exp\n      dup2\n      sload\n      dup2\n      0xff\n      mul\n      not\n      and\n      swap1\n      dup4\n      iszero\n      iszero\n      mul\n      or\n      swap1\n      sstore\n      pop\n        /* \"node_modules/@openzeppelin/contracts/token/ERC721/ERC721.sol\":11547:11555  operator */\n      dup2\n        /* \"node_modules/@openzeppelin/contracts/token/ERC721/ERC721.sol\":11525:11566  ApprovalForAll(owner, operator, approved) */\n      0xffffffffffffffffffffffffffffffffffffffff\n      and\n        /* \"node_modules/@openzeppelin/contracts/token/ERC721/ERC721.sol\":11540:11545  owner */\n      dup4\n        /* \"node_modules/@openzeppelin/contracts/token/ERC721/ERC721.sol\":11525:11566  ApprovalForAll(owner, operator, approved) */\n      0xffffffffffffffffffffffffffffffffffffffff\n      and\n      0x17307eab39ab6107e8899845ad3d59bd9653f200f220920489ca2b5937696c31\n        /* \"node_modules/@openzeppelin/contracts/token/ERC721/ERC721.sol\":11557:11565  approved */\n      dup4\n        /* \"node_modules/@openzeppelin/contracts/token/ERC721/ERC721.sol\":11525:11566  ApprovalForAll(owner, operator, approved) */\n      mload(0x40)\n      tag_225\n      swap2\n      swap1\n      tag_26\n      jump\t// in\n    tag_225:\n      mload(0x40)\n      dup1\n      swap2\n      sub\n      swap1\n      log3\n        /* \"node_modules/@openzeppelin/contracts/token/ERC721/ERC721.sol\":11266:11573  function _setApprovalForAll(... */\n      pop\n      pop\n      pop\n      jump\t// out\n        /* \"node_modules/@openzeppelin/contracts/token/ERC721/ERC721.sol\":6426:6731  function _safeTransfer(... */\n    tag_167:\n        /* \"node_modules/@openzeppelin/contracts/token/ERC721/ERC721.sol\":6576:6604  _transfer(from, to, tokenId) */\n      tag_227\n        /* \"node_modules/@openzeppelin/contracts/token/ERC721/ERC721.sol\":6586:6590  from */\n      dup5\n        /* \"node_modules/@openzeppelin/contracts/token/ERC721/ERC721.sol\":6592:6594  to */\n      dup5\n        /* \"node_modules/@openzeppelin/contracts/token/ERC721/ERC721.sol\":6596:6603  tokenId */\n      dup5\n        /* \"node_modules/@openzeppelin/contracts/token/ERC721/ERC721.sol\":6576:6585  _transfer */\n      tag_125\n        /* \"node_modules/@openzeppelin/contracts/token/ERC721/ERC721.sol\":6576:6604  _transfer(from, to, tokenId) */\n      jump\t// in\n    tag_227:\n        /* \"node_modules/@openzeppelin/contracts/token/ERC721/ERC721.sol\":6622:6669  _checkOnERC721Received(from, to, tokenId, data) */\n      tag_228\n        /* \"node_modules/@openzeppelin/contracts/token/ERC721/ERC721.sol\":6645:6649  from */\n      dup5\n        /* \"node_modules/@openzeppelin/contracts/token/ERC721/ERC721.sol\":6651:6653  to */\n      dup5\n        /* \"node_modules/@openzeppelin/contracts/token/ERC721/ERC721.sol\":6655:6662  tokenId */\n      dup5\n        /* \"node_modules/@openzeppelin/contracts/token/ERC721/ERC721.sol\":6664:6668  data */\n      dup5\n        /* \"node_modules/@openzeppelin/contracts/token/ERC721/ERC721.sol\":6622:6644  _checkOnERC721Received */\n      tag_229\n        /* \"node_modules/@openzeppelin/contracts/token/ERC721/ERC721.sol\":6622:6669  _checkOnERC721Received(from, to, tokenId, data) */\n      jump\t// in\n    tag_228:\n        /* \"node_modules/@openzeppelin/contracts/token/ERC721/ERC721.sol\":6614:6724  require(_checkOnERC721Received(from, to, tokenId, data), \"ERC721: transfer to non ERC721Receiver implementer\") */\n      tag_230\n      jumpi\n      mload(0x40)\n      0x08c379a000000000000000000000000000000000000000000000000000000000\n      dup2\n      mstore\n      0x04\n      add\n      tag_231\n      swap1\n      tag_232\n      jump\t// in\n    tag_231:\n      mload(0x40)\n      dup1\n      swap2\n      sub\n      swap1\n      revert\n    tag_230:\n        /* \"node_modules/@openzeppelin/contracts/token/ERC721/ERC721.sol\":6426:6731  function _safeTransfer(... */\n      pop\n      pop\n      pop\n      pop\n      jump\t// out\n        /* \"node_modules/@openzeppelin/contracts/token/ERC721/ERC721.sol\":3318:3410  function _baseURI() internal view virtual returns (string memory) {... */\n    tag_171:\n        /* \"node_modules/@openzeppelin/contracts/token/ERC721/ERC721.sol\":3369:3382  string memory */\n      0x60\n        /* \"node_modules/@openzeppelin/contracts/token/ERC721/ERC721.sol\":3394:3403  return \"\" */\n      mload(0x40)\n      dup1\n      0x20\n      add\n      0x40\n      mstore\n      dup1\n      0x00\n      dup2\n      mstore\n      pop\n      swap1\n      pop\n        /* \"node_modules/@openzeppelin/contracts/token/ERC721/ERC721.sol\":3318:3410  function _baseURI() internal view virtual returns (string memory) {... */\n      swap1\n      jump\t// out\n        /* \"node_modules/@openzeppelin/contracts/utils/Strings.sol\":392:1095  function toString(uint256 value) internal pure returns (string memory) {... */\n    tag_175:\n        /* \"node_modules/@openzeppelin/contracts/utils/Strings.sol\":448:461  string memory */\n      0x60\n        /* \"node_modules/@openzeppelin/contracts/utils/Strings.sol\":674:675  0 */\n      0x00\n        /* \"node_modules/@openzeppelin/contracts/utils/Strings.sol\":665:670  value */\n      dup3\n        /* \"node_modules/@openzeppelin/contracts/utils/Strings.sol\":665:675  value == 0 */\n      eq\n        /* \"node_modules/@openzeppelin/contracts/utils/Strings.sol\":661:712  if (value == 0) {... */\n      iszero\n      tag_235\n      jumpi\n        /* \"node_modules/@openzeppelin/contracts/utils/Strings.sol\":691:701  return \"0\" */\n      mload(0x40)\n      dup1\n      0x40\n      add\n      0x40\n      mstore\n      dup1\n      0x01\n      dup2\n      mstore\n      0x20\n      add\n      0x3000000000000000000000000000000000000000000000000000000000000000\n      dup2\n      mstore\n      pop\n      swap1\n      pop\n      jump(tag_234)\n        /* \"node_modules/@openzeppelin/contracts/utils/Strings.sol\":661:712  if (value == 0) {... */\n    tag_235:\n        /* \"node_modules/@openzeppelin/contracts/utils/Strings.sol\":721:733  uint256 temp */\n      0x00\n        /* \"node_modules/@openzeppelin/contracts/utils/Strings.sol\":736:741  value */\n      dup3\n        /* \"node_modules/@openzeppelin/contracts/utils/Strings.sol\":721:741  uint256 temp = value */\n      swap1\n      pop\n        /* \"node_modules/@openzeppelin/contracts/utils/Strings.sol\":751:765  uint256 digits */\n      0x00\n        /* \"node_modules/@openzeppelin/contracts/utils/Strings.sol\":775:850  while (temp != 0) {... */\n    tag_236:\n        /* \"node_modules/@openzeppelin/contracts/utils/Strings.sol\":790:791  0 */\n      0x00\n        /* \"node_modules/@openzeppelin/contracts/utils/Strings.sol\":782:786  temp */\n      dup3\n        /* \"node_modules/@openzeppelin/contracts/utils/Strings.sol\":782:791  temp != 0 */\n      eq\n        /* \"node_modules/@openzeppelin/contracts/utils/Strings.sol\":775:850  while (temp != 0) {... */\n      tag_237\n      jumpi\n        /* \"node_modules/@openzeppelin/contracts/utils/Strings.sol\":807:815  digits++ */\n      dup1\n      dup1\n      tag_238\n      swap1\n      tag_132\n      jump\t// in\n    tag_238:\n      swap2\n      pop\n      pop\n        /* \"node_modules/@openzeppelin/contracts/utils/Strings.sol\":837:839  10 */\n      0x0a\n        /* \"node_modules/@openzeppelin/contracts/utils/Strings.sol\":829:839  temp /= 10 */\n      dup3\n      tag_239\n      swap2\n      swap1\n      tag_240\n      jump\t// in\n    tag_239:\n      swap2\n      pop\n        /* \"node_modules/@openzeppelin/contracts/utils/Strings.sol\":775:850  while (temp != 0) {... */\n      jump(tag_236)\n    tag_237:\n        /* \"node_modules/@openzeppelin/contracts/utils/Strings.sol\":859:878  bytes memory buffer */\n      0x00\n        /* \"node_modules/@openzeppelin/contracts/utils/Strings.sol\":891:897  digits */\n      dup2\n        /* \"node_modules/@openzeppelin/contracts/utils/Strings.sol\":881:898  new bytes(digits) */\n      0xffffffffffffffff\n      dup2\n      gt\n      iszero\n      tag_241\n      jumpi\n      tag_242\n      tag_243\n      jump\t// in\n    tag_242:\n    tag_241:\n      mload(0x40)\n      swap1\n      dup1\n      dup3\n      mstore\n      dup1\n      0x1f\n      add\n      not(0x1f)\n      and\n      0x20\n      add\n      dup3\n      add\n      0x40\n      mstore\n      dup1\n      iszero\n      tag_244\n      jumpi\n      dup2\n      0x20\n      add\n      0x01\n      dup3\n      mul\n      dup1\n      calldatasize\n      dup4\n      calldatacopy\n      dup1\n      dup3\n      add\n      swap2\n      pop\n      pop\n      swap1\n      pop\n    tag_244:\n      pop\n        /* \"node_modules/@openzeppelin/contracts/utils/Strings.sol\":859:898  bytes memory buffer = new bytes(digits) */\n      swap1\n      pop\n        /* \"node_modules/@openzeppelin/contracts/utils/Strings.sol\":908:1058  while (value != 0) {... */\n    tag_245:\n        /* \"node_modules/@openzeppelin/contracts/utils/Strings.sol\":924:925  0 */\n      0x00\n        /* \"node_modules/@openzeppelin/contracts/utils/Strings.sol\":915:920  value */\n      dup6\n        /* \"node_modules/@openzeppelin/contracts/utils/Strings.sol\":915:925  value != 0 */\n      eq\n        /* \"node_modules/@openzeppelin/contracts/utils/Strings.sol\":908:1058  while (value != 0) {... */\n      tag_246\n      jumpi\n        /* \"node_modules/@openzeppelin/contracts/utils/Strings.sol\":951:952  1 */\n      0x01\n        /* \"node_modules/@openzeppelin/contracts/utils/Strings.sol\":941:952  digits -= 1 */\n      dup3\n      tag_247\n      swap2\n      swap1\n      tag_205\n      jump\t// in\n    tag_247:\n      swap2\n      pop\n        /* \"node_modules/@openzeppelin/contracts/utils/Strings.sol\":1017:1019  10 */\n      0x0a\n        /* \"node_modules/@openzeppelin/contracts/utils/Strings.sol\":1009:1014  value */\n      dup6\n        /* \"node_modules/@openzeppelin/contracts/utils/Strings.sol\":1009:1019  value % 10 */\n      tag_248\n      swap2\n      swap1\n      tag_249\n      jump\t// in\n    tag_248:\n        /* \"node_modules/@openzeppelin/contracts/utils/Strings.sol\":996:998  48 */\n      0x30\n        /* \"node_modules/@openzeppelin/contracts/utils/Strings.sol\":996:1020  48 + uint256(value % 10) */\n      tag_250\n      swap2\n      swap1\n      tag_207\n      jump\t// in\n    tag_250:\n        /* \"node_modules/@openzeppelin/contracts/utils/Strings.sol\":983:1022  bytes1(uint8(48 + uint256(value % 10))) */\n      0xf8\n      shl\n        /* \"node_modules/@openzeppelin/contracts/utils/Strings.sol\":966:972  buffer */\n      dup2\n        /* \"node_modules/@openzeppelin/contracts/utils/Strings.sol\":973:979  digits */\n      dup4\n        /* \"node_modules/@openzeppelin/contracts/utils/Strings.sol\":966:980  buffer[digits] */\n      dup2\n      mload\n      dup2\n      lt\n      tag_251\n      jumpi\n      tag_252\n      tag_253\n      jump\t// in\n    tag_252:\n    tag_251:\n      0x20\n      add\n      add\n        /* \"node_modules/@openzeppelin/contracts/utils/Strings.sol\":966:1022  buffer[digits] = bytes1(uint8(48 + uint256(value % 10))) */\n      swap1\n      not(0xffffffffffffffffffffffffffffffffffffffffffffffffffffffffffffff)\n      and\n      swap1\n      dup2\n      0x00\n      byte\n      swap1\n      mstore8\n      pop\n        /* \"node_modules/@openzeppelin/contracts/utils/Strings.sol\":1045:1047  10 */\n      0x0a\n        /* \"node_modules/@openzeppelin/contracts/utils/Strings.sol\":1036:1047  value /= 10 */\n      dup6\n      tag_254\n      swap2\n      swap1\n      tag_240\n      jump\t// in\n    tag_254:\n      swap5\n      pop\n        /* \"node_modules/@openzeppelin/contracts/utils/Strings.sol\":908:1058  while (value != 0) {... */\n      jump(tag_245)\n    tag_246:\n        /* \"node_modules/@openzeppelin/contracts/utils/Strings.sol\":1081:1087  buffer */\n      dup1\n        /* \"node_modules/@openzeppelin/contracts/utils/Strings.sol\":1067:1088  return string(buffer) */\n      swap4\n      pop\n      pop\n      pop\n      pop\n        /* \"node_modules/@openzeppelin/contracts/utils/Strings.sol\":392:1095  function toString(uint256 value) internal pure returns (string memory) {... */\n    tag_234:\n      swap2\n      swap1\n      pop\n      jump\t// out\n        /* \"node_modules/@openzeppelin/contracts/token/ERC721/ERC721.sol\":13729:13851  function _beforeTokenTransfer(... */\n    tag_202:\n      pop\n      pop\n      pop\n      jump\t// out\n        /* \"node_modules/@openzeppelin/contracts/token/ERC721/ERC721.sol\":14223:14344  function _afterTokenTransfer(... */\n    tag_209:\n      pop\n      pop\n      pop\n      jump\t// out\n        /* \"node_modules/@openzeppelin/contracts/token/ERC721/ERC721.sol\":8237:8546  function _safeMint(... */\n    tag_212:\n        /* \"node_modules/@openzeppelin/contracts/token/ERC721/ERC721.sol\":8361:8379  _mint(to, tokenId) */\n      tag_258\n        /* \"node_modules/@openzeppelin/contracts/token/ERC721/ERC721.sol\":8367:8369  to */\n      dup4\n        /* \"node_modules/@openzeppelin/contracts/token/ERC721/ERC721.sol\":8371:8378  tokenId */\n      dup4\n        /* \"node_modules/@openzeppelin/contracts/token/ERC721/ERC721.sol\":8361:8366  _mint */\n      tag_259\n        /* \"node_modules/@openzeppelin/contracts/token/ERC721/ERC721.sol\":8361:8379  _mint(to, tokenId) */\n      jump\t// in\n    tag_258:\n        /* \"node_modules/@openzeppelin/contracts/token/ERC721/ERC721.sol\":8410:8463  _checkOnERC721Received(address(0), to, tokenId, data) */\n      tag_260\n        /* \"node_modules/@openzeppelin/contracts/token/ERC721/ERC721.sol\":8441:8442  0 */\n      0x00\n        /* \"node_modules/@openzeppelin/contracts/token/ERC721/ERC721.sol\":8445:8447  to */\n      dup5\n        /* \"node_modules/@openzeppelin/contracts/token/ERC721/ERC721.sol\":8449:8456  tokenId */\n      dup5\n        /* \"node_modules/@openzeppelin/contracts/token/ERC721/ERC721.sol\":8458:8462  data */\n      dup5\n        /* \"node_modules/@openzeppelin/contracts/token/ERC721/ERC721.sol\":8410:8432  _checkOnERC721Received */\n      tag_229\n        /* \"node_modules/@openzeppelin/contracts/token/ERC721/ERC721.sol\":8410:8463  _checkOnERC721Received(address(0), to, tokenId, data) */\n      jump\t// in\n    tag_260:\n        /* \"node_modules/@openzeppelin/contracts/token/ERC721/ERC721.sol\":8389:8539  require(... */\n      tag_261\n      jumpi\n      mload(0x40)\n      0x08c379a000000000000000000000000000000000000000000000000000000000\n      dup2\n      mstore\n      0x04\n      add\n      tag_262\n      swap1\n      tag_232\n      jump\t// in\n    tag_262:\n      mload(0x40)\n      dup1\n      swap2\n      sub\n      swap1\n      revert\n    tag_261:\n        /* \"node_modules/@openzeppelin/contracts/token/ERC721/ERC721.sol\":8237:8546  function _safeMint(... */\n      pop\n      pop\n      pop\n      jump\t// out\n        /* \"node_modules/@openzeppelin/contracts/token/ERC721/ERC721.sol\":12342:13173  function _checkOnERC721Received(... */\n    tag_229:\n        /* \"node_modules/@openzeppelin/contracts/token/ERC721/ERC721.sol\":12491:12495  bool */\n      0x00\n        /* \"node_modules/@openzeppelin/contracts/token/ERC721/ERC721.sol\":12511:12526  to.isContract() */\n      tag_264\n        /* \"node_modules/@openzeppelin/contracts/token/ERC721/ERC721.sol\":12511:12513  to */\n      dup5\n        /* \"node_modules/@openzeppelin/contracts/token/ERC721/ERC721.sol\":12511:12524  to.isContract */\n      0xffffffffffffffffffffffffffffffffffffffff\n      and\n      tag_265\n        /* \"node_modules/@openzeppelin/contracts/token/ERC721/ERC721.sol\":12511:12526  to.isContract() */\n      jump\t// in\n    tag_264:\n        /* \"node_modules/@openzeppelin/contracts/token/ERC721/ERC721.sol\":12507:13167  if (to.isContract()) {... */\n      iszero\n      tag_266\n      jumpi\n        /* \"node_modules/@openzeppelin/contracts/token/ERC721/ERC721.sol\":12562:12564  to */\n      dup4\n        /* \"node_modules/@openzeppelin/contracts/token/ERC721/ERC721.sol\":12546:12582  IERC721Receiver(to).onERC721Received */\n      0xffffffffffffffffffffffffffffffffffffffff\n      and\n      0x150b7a02\n        /* \"node_modules/@openzeppelin/contracts/token/ERC721/ERC721.sol\":12583:12595  _msgSender() */\n      tag_267\n        /* \"node_modules/@openzeppelin/contracts/token/ERC721/ERC721.sol\":12583:12593  _msgSender */\n      tag_108\n        /* \"node_modules/@openzeppelin/contracts/token/ERC721/ERC721.sol\":12583:12595  _msgSender() */\n      jump\t// in\n    tag_267:\n        /* \"node_modules/@openzeppelin/contracts/token/ERC721/ERC721.sol\":12597:12601  from */\n      dup8\n        /* \"node_modules/@openzeppelin/contracts/token/ERC721/ERC721.sol\":12603:12610  tokenId */\n      dup7\n        /* \"node_modules/@openzeppelin/contracts/token/ERC721/ERC721.sol\":12612:12616  data */\n      dup7\n        /* \"node_modules/@openzeppelin/contracts/token/ERC721/ERC721.sol\":12546:12617  IERC721Receiver(to).onERC721Received(_msgSender(), from, tokenId, data) */\n      mload(0x40)\n      dup6\n      0xffffffff\n      and\n      0xe0\n      shl\n      dup2\n      mstore\n      0x04\n      add\n      tag_268\n      swap5\n      swap4\n      swap3\n      swap2\n      swap1\n      tag_269\n      jump\t// in\n    tag_268:\n      0x20\n      mload(0x40)\n      dup1\n      dup4\n      sub\n      dup2\n      0x00\n      dup8\n      dup1\n      extcodesize\n      iszero\n      dup1\n      iszero\n      tag_270\n      jumpi\n      0x00\n      dup1\n      revert\n    tag_270:\n      pop\n      gas\n      call\n      swap3\n      pop\n      pop\n      pop\n      dup1\n      iszero\n      tag_271\n      jumpi\n      pop\n      mload(0x40)\n      returndatasize\n      not(0x1f)\n      0x1f\n      dup3\n      add\n      and\n      dup3\n      add\n      dup1\n      0x40\n      mstore\n      pop\n      dup2\n      add\n      swap1\n      tag_272\n      swap2\n      swap1\n      tag_273\n      jump\t// in\n    tag_272:\n      0x01\n    tag_271:\n        /* \"node_modules/@openzeppelin/contracts/token/ERC721/ERC721.sol\":12542:13115  try IERC721Receiver(to).onERC721Received(_msgSender(), from, tokenId, data) returns (bytes4 retval) {... */\n      tag_274\n      jumpi\n      returndatasize\n      dup1\n      0x00\n      dup2\n      eq\n      tag_279\n      jumpi\n      mload(0x40)\n      swap2\n      pop\n      and(add(returndatasize, 0x3f), not(0x1f))\n      dup3\n      add\n      0x40\n      mstore\n      returndatasize\n      dup3\n      mstore\n      returndatasize\n      0x00\n      0x20\n      dup5\n      add\n      returndatacopy\n      jump(tag_278)\n    tag_279:\n      0x60\n      swap2\n      pop\n    tag_278:\n      pop\n        /* \"node_modules/@openzeppelin/contracts/token/ERC721/ERC721.sol\":12801:12802  0 */\n      0x00\n        /* \"node_modules/@openzeppelin/contracts/token/ERC721/ERC721.sol\":12784:12790  reason */\n      dup2\n        /* \"node_modules/@openzeppelin/contracts/token/ERC721/ERC721.sol\":12784:12797  reason.length */\n      mload\n        /* \"node_modules/@openzeppelin/contracts/token/ERC721/ERC721.sol\":12784:12802  reason.length == 0 */\n      eq\n        /* \"node_modules/@openzeppelin/contracts/token/ERC721/ERC721.sol\":12780:13101  if (reason.length == 0) {... */\n      iszero\n      tag_280\n      jumpi\n        /* \"node_modules/@openzeppelin/contracts/token/ERC721/ERC721.sol\":12826:12886  revert(\"ERC721: transfer to non ERC721Receiver implementer\") */\n      mload(0x40)\n      0x08c379a000000000000000000000000000000000000000000000000000000000\n      dup2\n      mstore\n      0x04\n      add\n      tag_281\n      swap1\n      tag_232\n      jump\t// in\n    tag_281:\n      mload(0x40)\n      dup1\n      swap2\n      sub\n      swap1\n      revert\n        /* \"node_modules/@openzeppelin/contracts/token/ERC721/ERC721.sol\":12780:13101  if (reason.length == 0) {... */\n    tag_280:\n        /* \"node_modules/@openzeppelin/contracts/token/ERC721/ERC721.sol\":13053:13059  reason */\n      dup1\n        /* \"node_modules/@openzeppelin/contracts/token/ERC721/ERC721.sol\":13047:13060  mload(reason) */\n      mload\n        /* \"node_modules/@openzeppelin/contracts/token/ERC721/ERC721.sol\":13038:13044  reason */\n      dup2\n        /* \"node_modules/@openzeppelin/contracts/token/ERC721/ERC721.sol\":13034:13036  32 */\n      0x20\n        /* \"node_modules/@openzeppelin/contracts/token/ERC721/ERC721.sol\":13030:13045  add(32, reason) */\n      add\n        /* \"node_modules/@openzeppelin/contracts/token/ERC721/ERC721.sol\":13023:13061  revert(add(32, reason), mload(reason)) */\n      revert\n        /* \"node_modules/@openzeppelin/contracts/token/ERC721/ERC721.sol\":12542:13115  try IERC721Receiver(to).onERC721Received(_msgSender(), from, tokenId, data) returns (bytes4 retval) {... */\n    tag_274:\n        /* \"node_modules/@openzeppelin/contracts/token/ERC721/ERC721.sol\":12677:12718  IERC721Receiver.onERC721Received.selector */\n      shl(0xe0, 0x150b7a02)\n        /* \"node_modules/@openzeppelin/contracts/token/ERC721/ERC721.sol\":12667:12718  retval == IERC721Receiver.onERC721Received.selector */\n      not(0xffffffffffffffffffffffffffffffffffffffffffffffffffffffff)\n      and\n        /* \"node_modules/@openzeppelin/contracts/token/ERC721/ERC721.sol\":12667:12673  retval */\n      dup2\n        /* \"node_modules/@openzeppelin/contracts/token/ERC721/ERC721.sol\":12667:12718  retval == IERC721Receiver.onERC721Received.selector */\n      not(0xffffffffffffffffffffffffffffffffffffffffffffffffffffffff)\n      and\n      eq\n        /* \"node_modules/@openzeppelin/contracts/token/ERC721/ERC721.sol\":12660:12718  return retval == IERC721Receiver.onERC721Received.selector */\n      swap2\n      pop\n      pop\n      jump(tag_263)\n        /* \"node_modules/@openzeppelin/contracts/token/ERC721/ERC721.sol\":12507:13167  if (to.isContract()) {... */\n    tag_266:\n        /* \"node_modules/@openzeppelin/contracts/token/ERC721/ERC721.sol\":13152:13156  true */\n      0x01\n        /* \"node_modules/@openzeppelin/contracts/token/ERC721/ERC721.sol\":13145:13156  return true */\n      swap1\n      pop\n        /* \"node_modules/@openzeppelin/contracts/token/ERC721/ERC721.sol\":12342:13173  function _checkOnERC721Received(... */\n    tag_263:\n      swap5\n      swap4\n      pop\n      pop\n      pop\n      pop\n      jump\t// out\n        /* \"node_modules/@openzeppelin/contracts/token/ERC721/ERC721.sol\":8868:9295  function _mint(address to, uint256 tokenId) internal virtual {... */\n    tag_259:\n        /* \"node_modules/@openzeppelin/contracts/token/ERC721/ERC721.sol\":8961:8962  0 */\n      0x00\n        /* \"node_modules/@openzeppelin/contracts/token/ERC721/ERC721.sol\":8947:8963  to != address(0) */\n      0xffffffffffffffffffffffffffffffffffffffff\n      and\n        /* \"node_modules/@openzeppelin/contracts/token/ERC721/ERC721.sol\":8947:8949  to */\n      dup3\n        /* \"node_modules/@openzeppelin/contracts/token/ERC721/ERC721.sol\":8947:8963  to != address(0) */\n      0xffffffffffffffffffffffffffffffffffffffff\n      and\n      eq\n      iszero\n        /* \"node_modules/@openzeppelin/contracts/token/ERC721/ERC721.sol\":8939:9000  require(to != address(0), \"ERC721: mint to the zero address\") */\n      tag_286\n      jumpi\n      mload(0x40)\n      0x08c379a000000000000000000000000000000000000000000000000000000000\n      dup2\n      mstore\n      0x04\n      add\n      tag_287\n      swap1\n      tag_288\n      jump\t// in\n    tag_287:\n      mload(0x40)\n      dup1\n      swap2\n      sub\n      swap1\n      revert\n    tag_286:\n        /* \"node_modules/@openzeppelin/contracts/token/ERC721/ERC721.sol\":9019:9035  _exists(tokenId) */\n      tag_289\n        /* \"node_modules/@openzeppelin/contracts/token/ERC721/ERC721.sol\":9027:9034  tokenId */\n      dup2\n        /* \"node_modules/@openzeppelin/contracts/token/ERC721/ERC721.sol\":9019:9026  _exists */\n      tag_135\n        /* \"node_modules/@openzeppelin/contracts/token/ERC721/ERC721.sol\":9019:9035  _exists(tokenId) */\n      jump\t// in\n    tag_289:\n        /* \"node_modules/@openzeppelin/contracts/token/ERC721/ERC721.sol\":9018:9035  !_exists(tokenId) */\n      iszero\n        /* \"node_modules/@openzeppelin/contracts/token/ERC721/ERC721.sol\":9010:9068  require(!_exists(tokenId), \"ERC721: token already minted\") */\n      tag_290\n      jumpi\n      mload(0x40)\n      0x08c379a000000000000000000000000000000000000000000000000000000000\n      dup2\n      mstore\n      0x04\n      add\n      tag_291\n      swap1\n      tag_292\n      jump\t// in\n    tag_291:\n      mload(0x40)\n      dup1\n      swap2\n      sub\n      swap1\n      revert\n    tag_290:\n        /* \"node_modules/@openzeppelin/contracts/token/ERC721/ERC721.sol\":9079:9124  _beforeTokenTransfer(address(0), to, tokenId) */\n      tag_293\n        /* \"node_modules/@openzeppelin/contracts/token/ERC721/ERC721.sol\":9108:9109  0 */\n      0x00\n        /* \"node_modules/@openzeppelin/contracts/token/ERC721/ERC721.sol\":9112:9114  to */\n      dup4\n        /* \"node_modules/@openzeppelin/contracts/token/ERC721/ERC721.sol\":9116:9123  tokenId */\n      dup4\n        /* \"node_modules/@openzeppelin/contracts/token/ERC721/ERC721.sol\":9079:9099  _beforeTokenTransfer */\n      tag_202\n        /* \"node_modules/@openzeppelin/contracts/token/ERC721/ERC721.sol\":9079:9124  _beforeTokenTransfer(address(0), to, tokenId) */\n      jump\t// in\n    tag_293:\n        /* \"node_modules/@openzeppelin/contracts/token/ERC721/ERC721.sol\":9152:9153  1 */\n      0x01\n        /* \"node_modules/@openzeppelin/contracts/token/ERC721/ERC721.sol\":9135:9144  _balances */\n      0x03\n        /* \"node_modules/@openzeppelin/contracts/token/ERC721/ERC721.sol\":9135:9148  _balances[to] */\n      0x00\n        /* \"node_modules/@openzeppelin/contracts/token/ERC721/ERC721.sol\":9145:9147  to */\n      dup5\n        /* \"node_modules/@openzeppelin/contracts/token/ERC721/ERC721.sol\":9135:9148  _balances[to] */\n      0xffffffffffffffffffffffffffffffffffffffff\n      and\n      0xffffffffffffffffffffffffffffffffffffffff\n      and\n      dup2\n      mstore\n      0x20\n      add\n      swap1\n      dup2\n      mstore\n      0x20\n      add\n      0x00\n      keccak256\n      0x00\n        /* \"node_modules/@openzeppelin/contracts/token/ERC721/ERC721.sol\":9135:9153  _balances[to] += 1 */\n      dup3\n      dup3\n      sload\n      tag_294\n      swap2\n      swap1\n      tag_207\n      jump\t// in\n    tag_294:\n      swap3\n      pop\n      pop\n      dup2\n      swap1\n      sstore\n      pop\n        /* \"node_modules/@openzeppelin/contracts/token/ERC721/ERC721.sol\":9182:9184  to */\n      dup2\n        /* \"node_modules/@openzeppelin/contracts/token/ERC721/ERC721.sol\":9163:9170  _owners */\n      0x02\n        /* \"node_modules/@openzeppelin/contracts/token/ERC721/ERC721.sol\":9163:9179  _owners[tokenId] */\n      0x00\n        /* \"node_modules/@openzeppelin/contracts/token/ERC721/ERC721.sol\":9171:9178  tokenId */\n      dup4\n        /* \"node_modules/@openzeppelin/contracts/token/ERC721/ERC721.sol\":9163:9179  _owners[tokenId] */\n      dup2\n      mstore\n      0x20\n      add\n      swap1\n      dup2\n      mstore\n      0x20\n      add\n      0x00\n      keccak256\n      0x00\n        /* \"node_modules/@openzeppelin/contracts/token/ERC721/ERC721.sol\":9163:9184  _owners[tokenId] = to */\n      0x0100\n      exp\n      dup2\n      sload\n      dup2\n      0xffffffffffffffffffffffffffffffffffffffff\n      mul\n      not\n      and\n      swap1\n      dup4\n      0xffffffffffffffffffffffffffffffffffffffff\n      and\n      mul\n      or\n      swap1\n      sstore\n      pop\n        /* \"node_modules/@openzeppelin/contracts/token/ERC721/ERC721.sol\":9225:9232  tokenId */\n      dup1\n        /* \"node_modules/@openzeppelin/contracts/token/ERC721/ERC721.sol\":9221:9223  to */\n      dup3\n        /* \"node_modules/@openzeppelin/contracts/token/ERC721/ERC721.sol\":9200:9233  Transfer(address(0), to, tokenId) */\n      0xffffffffffffffffffffffffffffffffffffffff\n      and\n        /* \"node_modules/@openzeppelin/contracts/token/ERC721/ERC721.sol\":9217:9218  0 */\n      0x00\n        /* \"node_modules/@openzeppelin/contracts/token/ERC721/ERC721.sol\":9200:9233  Transfer(address(0), to, tokenId) */\n      0xffffffffffffffffffffffffffffffffffffffff\n      and\n      0xddf252ad1be2c89b69c2b068fc378daa952ba7f163c4a11628f55a4df523b3ef\n      mload(0x40)\n      mload(0x40)\n      dup1\n      swap2\n      sub\n      swap1\n      log4\n        /* \"node_modules/@openzeppelin/contracts/token/ERC721/ERC721.sol\":9244:9288  _afterTokenTransfer(address(0), to, tokenId) */\n      tag_295\n        /* \"node_modules/@openzeppelin/contracts/token/ERC721/ERC721.sol\":9272:9273  0 */\n      0x00\n        /* \"node_modules/@openzeppelin/contracts/token/ERC721/ERC721.sol\":9276:9278  to */\n      dup4\n        /* \"node_modules/@openzeppelin/contracts/token/ERC721/ERC721.sol\":9280:9287  tokenId */\n      dup4\n        /* \"node_modules/@openzeppelin/contracts/token/ERC721/ERC721.sol\":9244:9263  _afterTokenTransfer */\n      tag_209\n        /* \"node_modules/@openzeppelin/contracts/token/ERC721/ERC721.sol\":9244:9288  _afterTokenTransfer(address(0), to, tokenId) */\n      jump\t// in\n    tag_295:\n        /* \"node_modules/@openzeppelin/contracts/token/ERC721/ERC721.sol\":8868:9295  function _mint(address to, uint256 tokenId) internal virtual {... */\n      pop\n      pop\n      jump\t// out\n        /* \"node_modules/@openzeppelin/contracts/utils/Address.sol\":1175:1495  function isContract(address account) internal view returns (bool) {... */\n    tag_265:\n        /* \"node_modules/@openzeppelin/contracts/utils/Address.sol\":1235:1239  bool */\n      0x00\n        /* \"node_modules/@openzeppelin/contracts/utils/Address.sol\":1487:1488  0 */\n      dup1\n        /* \"node_modules/@openzeppelin/contracts/utils/Address.sol\":1465:1472  account */\n      dup3\n        /* \"node_modules/@openzeppelin/contracts/utils/Address.sol\":1465:1484  account.code.length */\n      0xffffffffffffffffffffffffffffffffffffffff\n      and\n      extcodesize\n        /* \"node_modules/@openzeppelin/contracts/utils/Address.sol\":1465:1488  account.code.length > 0 */\n      gt\n        /* \"node_modules/@openzeppelin/contracts/utils/Address.sol\":1458:1488  return account.code.length > 0 */\n      swap1\n      pop\n        /* \"node_modules/@openzeppelin/contracts/utils/Address.sol\":1175:1495  function isContract(address account) internal view returns (bool) {... */\n      swap2\n      swap1\n      pop\n      jump\t// out\n    tag_219:\n      dup3\n      dup1\n      sload\n      tag_297\n      swap1\n      tag_94\n      jump\t// in\n    tag_297:\n      swap1\n      0x00\n      mstore\n      keccak256(0x00, 0x20)\n      swap1\n      0x1f\n      add\n      0x20\n      swap1\n      div\n      dup2\n      add\n      swap3\n      dup3\n      tag_299\n      jumpi\n      0x00\n      dup6\n      sstore\n      jump(tag_298)\n    tag_299:\n      dup3\n      0x1f\n      lt\n      tag_300\n      jumpi\n      dup1\n      mload\n      not(0xff)\n      and\n      dup4\n      dup1\n      add\n      or\n      dup6\n      sstore\n      jump(tag_298)\n    tag_300:\n      dup3\n      dup1\n      add\n      0x01\n      add\n      dup6\n      sstore\n      dup3\n      iszero\n      tag_298\n      jumpi\n      swap2\n      dup3\n      add\n    tag_301:\n      dup3\n      dup2\n      gt\n      iszero\n      tag_302\n      jumpi\n      dup3\n      mload\n      dup3\n      sstore\n      swap2\n      0x20\n      add\n      swap2\n      swap1\n      0x01\n      add\n      swap1\n      jump(tag_301)\n    tag_302:\n    tag_298:\n      pop\n      swap1\n      pop\n      tag_303\n      swap2\n      swap1\n      tag_304\n      jump\t// in\n    tag_303:\n      pop\n      swap1\n      jump\t// out\n    tag_304:\n    tag_305:\n      dup1\n      dup3\n      gt\n      iszero\n      tag_306\n      jumpi\n      0x00\n      dup2\n      0x00\n      swap1\n      sstore\n      pop\n      0x01\n      add\n      jump(tag_305)\n    tag_306:\n      pop\n      swap1\n      jump\t// out\n        /* \"#utility.yul\":7:417   */\n    tag_308:\n        /* \"#utility.yul\":84:89   */\n      0x00\n        /* \"#utility.yul\":109:174   */\n      tag_310\n        /* \"#utility.yul\":125:173   */\n      tag_311\n        /* \"#utility.yul\":166:172   */\n      dup5\n        /* \"#utility.yul\":125:173   */\n      tag_312\n      jump\t// in\n    tag_311:\n        /* \"#utility.yul\":109:174   */\n      tag_313\n      jump\t// in\n    tag_310:\n        /* \"#utility.yul\":100:174   */\n      swap1\n      pop\n        /* \"#utility.yul\":197:203   */\n      dup3\n        /* \"#utility.yul\":190:195   */\n      dup2\n        /* \"#utility.yul\":183:204   */\n      mstore\n        /* \"#utility.yul\":235:239   */\n      0x20\n        /* \"#utility.yul\":228:233   */\n      dup2\n        /* \"#utility.yul\":224:240   */\n      add\n        /* \"#utility.yul\":273:276   */\n      dup5\n        /* \"#utility.yul\":264:270   */\n      dup5\n        /* \"#utility.yul\":259:262   */\n      dup5\n        /* \"#utility.yul\":255:271   */\n      add\n        /* \"#utility.yul\":252:277   */\n      gt\n        /* \"#utility.yul\":249:251   */\n      iszero\n      tag_314\n      jumpi\n        /* \"#utility.yul\":280:359   */\n      tag_315\n      tag_316\n      jump\t// in\n    tag_315:\n        /* \"#utility.yul\":249:251   */\n    tag_314:\n        /* \"#utility.yul\":370:411   */\n      tag_317\n        /* \"#utility.yul\":404:410   */\n      dup5\n        /* \"#utility.yul\":399:402   */\n      dup3\n        /* \"#utility.yul\":394:397   */\n      dup6\n        /* \"#utility.yul\":370:411   */\n      tag_318\n      jump\t// in\n    tag_317:\n        /* \"#utility.yul\":90:417   */\n      pop\n      swap4\n      swap3\n      pop\n      pop\n      pop\n      jump\t// out\n        /* \"#utility.yul\":423:835   */\n    tag_319:\n        /* \"#utility.yul\":501:506   */\n      0x00\n        /* \"#utility.yul\":526:592   */\n      tag_321\n        /* \"#utility.yul\":542:591   */\n      tag_322\n        /* \"#utility.yul\":584:590   */\n      dup5\n        /* \"#utility.yul\":542:591   */\n      tag_323\n      jump\t// in\n    tag_322:\n        /* \"#utility.yul\":526:592   */\n      tag_313\n      jump\t// in\n    tag_321:\n        /* \"#utility.yul\":517:592   */\n      swap1\n      pop\n        /* \"#utility.yul\":615:621   */\n      dup3\n        /* \"#utility.yul\":608:613   */\n      dup2\n        /* \"#utility.yul\":601:622   */\n      mstore\n        /* \"#utility.yul\":653:657   */\n      0x20\n        /* \"#utility.yul\":646:651   */\n      dup2\n        /* \"#utility.yul\":642:658   */\n      add\n        /* \"#utility.yul\":691:694   */\n      dup5\n        /* \"#utility.yul\":682:688   */\n      dup5\n        /* \"#utility.yul\":677:680   */\n      dup5\n        /* \"#utility.yul\":673:689   */\n      add\n        /* \"#utility.yul\":670:695   */\n      gt\n        /* \"#utility.yul\":667:669   */\n      iszero\n      tag_324\n      jumpi\n        /* \"#utility.yul\":698:777   */\n      tag_325\n      tag_316\n      jump\t// in\n    tag_325:\n        /* \"#utility.yul\":667:669   */\n    tag_324:\n        /* \"#utility.yul\":788:829   */\n      tag_326\n        /* \"#utility.yul\":822:828   */\n      dup5\n        /* \"#utility.yul\":817:820   */\n      dup3\n        /* \"#utility.yul\":812:815   */\n      dup6\n        /* \"#utility.yul\":788:829   */\n      tag_318\n      jump\t// in\n    tag_326:\n        /* \"#utility.yul\":507:835   */\n      pop\n      swap4\n      swap3\n      pop\n      pop\n      pop\n      jump\t// out\n        /* \"#utility.yul\":841:980   */\n    tag_327:\n        /* \"#utility.yul\":887:892   */\n      0x00\n        /* \"#utility.yul\":925:931   */\n      dup2\n        /* \"#utility.yul\":912:932   */\n      calldataload\n        /* \"#utility.yul\":903:932   */\n      swap1\n      pop\n        /* \"#utility.yul\":941:974   */\n      tag_329\n        /* \"#utility.yul\":968:973   */\n      dup2\n        /* \"#utility.yul\":941:974   */\n      tag_330\n      jump\t// in\n    tag_329:\n        /* \"#utility.yul\":893:980   */\n      swap3\n      swap2\n      pop\n      pop\n      jump\t// out\n        /* \"#utility.yul\":986:1119   */\n    tag_331:\n        /* \"#utility.yul\":1029:1034   */\n      0x00\n        /* \"#utility.yul\":1067:1073   */\n      dup2\n        /* \"#utility.yul\":1054:1074   */\n      calldataload\n        /* \"#utility.yul\":1045:1074   */\n      swap1\n      pop\n        /* \"#utility.yul\":1083:1113   */\n      tag_333\n        /* \"#utility.yul\":1107:1112   */\n      dup2\n        /* \"#utility.yul\":1083:1113   */\n      tag_334\n      jump\t// in\n    tag_333:\n        /* \"#utility.yul\":1035:1119   */\n      swap3\n      swap2\n      pop\n      pop\n      jump\t// out\n        /* \"#utility.yul\":1125:1262   */\n    tag_335:\n        /* \"#utility.yul\":1170:1175   */\n      0x00\n        /* \"#utility.yul\":1208:1214   */\n      dup2\n        /* \"#utility.yul\":1195:1215   */\n      calldataload\n        /* \"#utility.yul\":1186:1215   */\n      swap1\n      pop\n        /* \"#utility.yul\":1224:1256   */\n      tag_337\n        /* \"#utility.yul\":1250:1255   */\n      dup2\n        /* \"#utility.yul\":1224:1256   */\n      tag_338\n      jump\t// in\n    tag_337:\n        /* \"#utility.yul\":1176:1262   */\n      swap3\n      swap2\n      pop\n      pop\n      jump\t// out\n        /* \"#utility.yul\":1268:1409   */\n    tag_339:\n        /* \"#utility.yul\":1324:1329   */\n      0x00\n        /* \"#utility.yul\":1355:1361   */\n      dup2\n        /* \"#utility.yul\":1349:1362   */\n      mload\n        /* \"#utility.yul\":1340:1362   */\n      swap1\n      pop\n        /* \"#utility.yul\":1371:1403   */\n      tag_341\n        /* \"#utility.yul\":1397:1402   */\n      dup2\n        /* \"#utility.yul\":1371:1403   */\n      tag_338\n      jump\t// in\n    tag_341:\n        /* \"#utility.yul\":1330:1409   */\n      swap3\n      swap2\n      pop\n      pop\n      jump\t// out\n        /* \"#utility.yul\":1428:1766   */\n    tag_342:\n        /* \"#utility.yul\":1483:1488   */\n      0x00\n        /* \"#utility.yul\":1532:1535   */\n      dup3\n        /* \"#utility.yul\":1525:1529   */\n      0x1f\n        /* \"#utility.yul\":1517:1523   */\n      dup4\n        /* \"#utility.yul\":1513:1530   */\n      add\n        /* \"#utility.yul\":1509:1536   */\n      slt\n        /* \"#utility.yul\":1499:1501   */\n      tag_344\n      jumpi\n        /* \"#utility.yul\":1540:1619   */\n      tag_345\n      tag_346\n      jump\t// in\n    tag_345:\n        /* \"#utility.yul\":1499:1501   */\n    tag_344:\n        /* \"#utility.yul\":1657:1663   */\n      dup2\n        /* \"#utility.yul\":1644:1664   */\n      calldataload\n        /* \"#utility.yul\":1682:1760   */\n      tag_347\n        /* \"#utility.yul\":1756:1759   */\n      dup5\n        /* \"#utility.yul\":1748:1754   */\n      dup3\n        /* \"#utility.yul\":1741:1745   */\n      0x20\n        /* \"#utility.yul\":1733:1739   */\n      dup7\n        /* \"#utility.yul\":1729:1746   */\n      add\n        /* \"#utility.yul\":1682:1760   */\n      tag_308\n      jump\t// in\n    tag_347:\n        /* \"#utility.yul\":1673:1760   */\n      swap2\n      pop\n        /* \"#utility.yul\":1489:1766   */\n      pop\n      swap3\n      swap2\n      pop\n      pop\n      jump\t// out\n        /* \"#utility.yul\":1786:2126   */\n    tag_348:\n        /* \"#utility.yul\":1842:1847   */\n      0x00\n        /* \"#utility.yul\":1891:1894   */\n      dup3\n        /* \"#utility.yul\":1884:1888   */\n      0x1f\n        /* \"#utility.yul\":1876:1882   */\n      dup4\n        /* \"#utility.yul\":1872:1889   */\n      add\n        /* \"#utility.yul\":1868:1895   */\n      slt\n        /* \"#utility.yul\":1858:1860   */\n      tag_350\n      jumpi\n        /* \"#utility.yul\":1899:1978   */\n      tag_351\n      tag_346\n      jump\t// in\n    tag_351:\n        /* \"#utility.yul\":1858:1860   */\n    tag_350:\n        /* \"#utility.yul\":2016:2022   */\n      dup2\n        /* \"#utility.yul\":2003:2023   */\n      calldataload\n        /* \"#utility.yul\":2041:2120   */\n      tag_352\n        /* \"#utility.yul\":2116:2119   */\n      dup5\n        /* \"#utility.yul\":2108:2114   */\n      dup3\n        /* \"#utility.yul\":2101:2105   */\n      0x20\n        /* \"#utility.yul\":2093:2099   */\n      dup7\n        /* \"#utility.yul\":2089:2106   */\n      add\n        /* \"#utility.yul\":2041:2120   */\n      tag_319\n      jump\t// in\n    tag_352:\n        /* \"#utility.yul\":2032:2120   */\n      swap2\n      pop\n        /* \"#utility.yul\":1848:2126   */\n      pop\n      swap3\n      swap2\n      pop\n      pop\n      jump\t// out\n        /* \"#utility.yul\":2132:2271   */\n    tag_353:\n        /* \"#utility.yul\":2178:2183   */\n      0x00\n        /* \"#utility.yul\":2216:2222   */\n      dup2\n        /* \"#utility.yul\":2203:2223   */\n      calldataload\n        /* \"#utility.yul\":2194:2223   */\n      swap1\n      pop\n        /* \"#utility.yul\":2232:2265   */\n      tag_355\n        /* \"#utility.yul\":2259:2264   */\n      dup2\n        /* \"#utility.yul\":2232:2265   */\n      tag_356\n      jump\t// in\n    tag_355:\n        /* \"#utility.yul\":2184:2271   */\n      swap3\n      swap2\n      pop\n      pop\n      jump\t// out\n        /* \"#utility.yul\":2277:2606   */\n    tag_64:\n        /* \"#utility.yul\":2336:2342   */\n      0x00\n        /* \"#utility.yul\":2385:2387   */\n      0x20\n        /* \"#utility.yul\":2373:2382   */\n      dup3\n        /* \"#utility.yul\":2364:2371   */\n      dup5\n        /* \"#utility.yul\":2360:2383   */\n      sub\n        /* \"#utility.yul\":2356:2388   */\n      slt\n        /* \"#utility.yul\":2353:2355   */\n      iszero\n      tag_358\n      jumpi\n        /* \"#utility.yul\":2391:2470   */\n      tag_359\n      tag_360\n      jump\t// in\n    tag_359:\n        /* \"#utility.yul\":2353:2355   */\n    tag_358:\n        /* \"#utility.yul\":2511:2512   */\n      0x00\n        /* \"#utility.yul\":2536:2589   */\n      tag_361\n        /* \"#utility.yul\":2581:2588   */\n      dup5\n        /* \"#utility.yul\":2572:2578   */\n      dup3\n        /* \"#utility.yul\":2561:2570   */\n      dup6\n        /* \"#utility.yul\":2557:2579   */\n      add\n        /* \"#utility.yul\":2536:2589   */\n      tag_327\n      jump\t// in\n    tag_361:\n        /* \"#utility.yul\":2526:2589   */\n      swap2\n      pop\n        /* \"#utility.yul\":2482:2599   */\n      pop\n        /* \"#utility.yul\":2343:2606   */\n      swap3\n      swap2\n      pop\n      pop\n      jump\t// out\n        /* \"#utility.yul\":2612:3086   */\n    tag_84:\n        /* \"#utility.yul\":2680:2686   */\n      0x00\n        /* \"#utility.yul\":2688:2694   */\n      dup1\n        /* \"#utility.yul\":2737:2739   */\n      0x40\n        /* \"#utility.yul\":2725:2734   */\n      dup4\n        /* \"#utility.yul\":2716:2723   */\n      dup6\n        /* \"#utility.yul\":2712:2735   */\n      sub\n        /* \"#utility.yul\":2708:2740   */\n      slt\n        /* \"#utility.yul\":2705:2707   */\n      iszero\n      tag_363\n      jumpi\n        /* \"#utility.yul\":2743:2822   */\n      tag_364\n      tag_360\n      jump\t// in\n    tag_364:\n        /* \"#utility.yul\":2705:2707   */\n    tag_363:\n        /* \"#utility.yul\":2863:2864   */\n      0x00\n        /* \"#utility.yul\":2888:2941   */\n      tag_365\n        /* \"#utility.yul\":2933:2940   */\n      dup6\n        /* \"#utility.yul\":2924:2930   */\n      dup3\n        /* \"#utility.yul\":2913:2922   */\n      dup7\n        /* \"#utility.yul\":2909:2931   */\n      add\n        /* \"#utility.yul\":2888:2941   */\n      tag_327\n      jump\t// in\n    tag_365:\n        /* \"#utility.yul\":2878:2941   */\n      swap3\n      pop\n        /* \"#utility.yul\":2834:2951   */\n      pop\n        /* \"#utility.yul\":2990:2992   */\n      0x20\n        /* \"#utility.yul\":3016:3069   */\n      tag_366\n        /* \"#utility.yul\":3061:3068   */\n      dup6\n        /* \"#utility.yul\":3052:3058   */\n      dup3\n        /* \"#utility.yul\":3041:3050   */\n      dup7\n        /* \"#utility.yul\":3037:3059   */\n      add\n        /* \"#utility.yul\":3016:3069   */\n      tag_327\n      jump\t// in\n    tag_366:\n        /* \"#utility.yul\":3006:3069   */\n      swap2\n      pop\n        /* \"#utility.yul\":2961:3079   */\n      pop\n        /* \"#utility.yul\":2695:3086   */\n      swap3\n      pop\n      swap3\n      swap1\n      pop\n      jump\t// out\n        /* \"#utility.yul\":3092:3711   */\n    tag_43:\n        /* \"#utility.yul\":3169:3175   */\n      0x00\n        /* \"#utility.yul\":3177:3183   */\n      dup1\n        /* \"#utility.yul\":3185:3191   */\n      0x00\n        /* \"#utility.yul\":3234:3236   */\n      0x60\n        /* \"#utility.yul\":3222:3231   */\n      dup5\n        /* \"#utility.yul\":3213:3220   */\n      dup7\n        /* \"#utility.yul\":3209:3232   */\n      sub\n        /* \"#utility.yul\":3205:3237   */\n      slt\n        /* \"#utility.yul\":3202:3204   */\n      iszero\n      tag_368\n      jumpi\n        /* \"#utility.yul\":3240:3319   */\n      tag_369\n      tag_360\n      jump\t// in\n    tag_369:\n        /* \"#utility.yul\":3202:3204   */\n    tag_368:\n        /* \"#utility.yul\":3360:3361   */\n      0x00\n        /* \"#utility.yul\":3385:3438   */\n      tag_370\n        /* \"#utility.yul\":3430:3437   */\n      dup7\n        /* \"#utility.yul\":3421:3427   */\n      dup3\n        /* \"#utility.yul\":3410:3419   */\n      dup8\n        /* \"#utility.yul\":3406:3428   */\n      add\n        /* \"#utility.yul\":3385:3438   */\n      tag_327\n      jump\t// in\n    tag_370:\n        /* \"#utility.yul\":3375:3438   */\n      swap4\n      pop\n        /* \"#utility.yul\":3331:3448   */\n      pop\n        /* \"#utility.yul\":3487:3489   */\n      0x20\n        /* \"#utility.yul\":3513:3566   */\n      tag_371\n        /* \"#utility.yul\":3558:3565   */\n      dup7\n        /* \"#utility.yul\":3549:3555   */\n      dup3\n        /* \"#utility.yul\":3538:3547   */\n      dup8\n        /* \"#utility.yul\":3534:3556   */\n      add\n        /* \"#utility.yul\":3513:3566   */\n      tag_327\n      jump\t// in\n    tag_371:\n        /* \"#utility.yul\":3503:3566   */\n      swap3\n      pop\n        /* \"#utility.yul\":3458:3576   */\n      pop\n        /* \"#utility.yul\":3615:3617   */\n      0x40\n        /* \"#utility.yul\":3641:3694   */\n      tag_372\n        /* \"#utility.yul\":3686:3693   */\n      dup7\n        /* \"#utility.yul\":3677:3683   */\n      dup3\n        /* \"#utility.yul\":3666:3675   */\n      dup8\n        /* \"#utility.yul\":3662:3684   */\n      add\n        /* \"#utility.yul\":3641:3694   */\n      tag_353\n      jump\t// in\n    tag_372:\n        /* \"#utility.yul\":3631:3694   */\n      swap2\n      pop\n        /* \"#utility.yul\":3586:3704   */\n      pop\n        /* \"#utility.yul\":3192:3711   */\n      swap3\n      pop\n      swap3\n      pop\n      swap3\n      jump\t// out\n        /* \"#utility.yul\":3717:4660   */\n    tag_76:\n        /* \"#utility.yul\":3812:3818   */\n      0x00\n        /* \"#utility.yul\":3820:3826   */\n      dup1\n        /* \"#utility.yul\":3828:3834   */\n      0x00\n        /* \"#utility.yul\":3836:3842   */\n      dup1\n        /* \"#utility.yul\":3885:3888   */\n      0x80\n        /* \"#utility.yul\":3873:3882   */\n      dup6\n        /* \"#utility.yul\":3864:3871   */\n      dup8\n        /* \"#utility.yul\":3860:3883   */\n      sub\n        /* \"#utility.yul\":3856:3889   */\n      slt\n        /* \"#utility.yul\":3853:3855   */\n      iszero\n      tag_374\n      jumpi\n        /* \"#utility.yul\":3892:3971   */\n      tag_375\n      tag_360\n      jump\t// in\n    tag_375:\n        /* \"#utility.yul\":3853:3855   */\n    tag_374:\n        /* \"#utility.yul\":4012:4013   */\n      0x00\n        /* \"#utility.yul\":4037:4090   */\n      tag_376\n        /* \"#utility.yul\":4082:4089   */\n      dup8\n        /* \"#utility.yul\":4073:4079   */\n      dup3\n        /* \"#utility.yul\":4062:4071   */\n      dup9\n        /* \"#utility.yul\":4058:4080   */\n      add\n        /* \"#utility.yul\":4037:4090   */\n      tag_327\n      jump\t// in\n    tag_376:\n        /* \"#utility.yul\":4027:4090   */\n      swap5\n      pop\n        /* \"#utility.yul\":3983:4100   */\n      pop\n        /* \"#utility.yul\":4139:4141   */\n      0x20\n        /* \"#utility.yul\":4165:4218   */\n      tag_377\n        /* \"#utility.yul\":4210:4217   */\n      dup8\n        /* \"#utility.yul\":4201:4207   */\n      dup3\n        /* \"#utility.yul\":4190:4199   */\n      dup9\n        /* \"#utility.yul\":4186:4208   */\n      add\n        /* \"#utility.yul\":4165:4218   */\n      tag_327\n      jump\t// in\n    tag_377:\n        /* \"#utility.yul\":4155:4218   */\n      swap4\n      pop\n        /* \"#utility.yul\":4110:4228   */\n      pop\n        /* \"#utility.yul\":4267:4269   */\n      0x40\n        /* \"#utility.yul\":4293:4346   */\n      tag_378\n        /* \"#utility.yul\":4338:4345   */\n      dup8\n        /* \"#utility.yul\":4329:4335   */\n      dup3\n        /* \"#utility.yul\":4318:4327   */\n      dup9\n        /* \"#utility.yul\":4314:4336   */\n      add\n        /* \"#utility.yul\":4293:4346   */\n      tag_353\n      jump\t// in\n    tag_378:\n        /* \"#utility.yul\":4283:4346   */\n      swap3\n      pop\n        /* \"#utility.yul\":4238:4356   */\n      pop\n        /* \"#utility.yul\":4423:4425   */\n      0x60\n        /* \"#utility.yul\":4412:4421   */\n      dup6\n        /* \"#utility.yul\":4408:4426   */\n      add\n        /* \"#utility.yul\":4395:4427   */\n      calldataload\n        /* \"#utility.yul\":4454:4472   */\n      0xffffffffffffffff\n        /* \"#utility.yul\":4446:4452   */\n      dup2\n        /* \"#utility.yul\":4443:4473   */\n      gt\n        /* \"#utility.yul\":4440:4442   */\n      iszero\n      tag_379\n      jumpi\n        /* \"#utility.yul\":4476:4555   */\n      tag_380\n      tag_381\n      jump\t// in\n    tag_380:\n        /* \"#utility.yul\":4440:4442   */\n    tag_379:\n        /* \"#utility.yul\":4581:4643   */\n      tag_382\n        /* \"#utility.yul\":4635:4642   */\n      dup8\n        /* \"#utility.yul\":4626:4632   */\n      dup3\n        /* \"#utility.yul\":4615:4624   */\n      dup9\n        /* \"#utility.yul\":4611:4633   */\n      add\n        /* \"#utility.yul\":4581:4643   */\n      tag_342\n      jump\t// in\n    tag_382:\n        /* \"#utility.yul\":4571:4643   */\n      swap2\n      pop\n        /* \"#utility.yul\":4366:4653   */\n      pop\n        /* \"#utility.yul\":3843:4660   */\n      swap3\n      swap6\n      swap2\n      swap5\n      pop\n      swap3\n      pop\n      jump\t// out\n        /* \"#utility.yul\":4666:5134   */\n    tag_72:\n        /* \"#utility.yul\":4731:4737   */\n      0x00\n        /* \"#utility.yul\":4739:4745   */\n      dup1\n        /* \"#utility.yul\":4788:4790   */\n      0x40\n        /* \"#utility.yul\":4776:4785   */\n      dup4\n        /* \"#utility.yul\":4767:4774   */\n      dup6\n        /* \"#utility.yul\":4763:4786   */\n      sub\n        /* \"#utility.yul\":4759:4791   */\n      slt\n        /* \"#utility.yul\":4756:4758   */\n      iszero\n      tag_384\n      jumpi\n        /* \"#utility.yul\":4794:4873   */\n      tag_385\n      tag_360\n      jump\t// in\n    tag_385:\n        /* \"#utility.yul\":4756:4758   */\n    tag_384:\n        /* \"#utility.yul\":4914:4915   */\n      0x00\n        /* \"#utility.yul\":4939:4992   */\n      tag_386\n        /* \"#utility.yul\":4984:4991   */\n      dup6\n        /* \"#utility.yul\":4975:4981   */\n      dup3\n        /* \"#utility.yul\":4964:4973   */\n      dup7\n        /* \"#utility.yul\":4960:4982   */\n      add\n        /* \"#utility.yul\":4939:4992   */\n      tag_327\n      jump\t// in\n    tag_386:\n        /* \"#utility.yul\":4929:4992   */\n      swap3\n      pop\n        /* \"#utility.yul\":4885:5002   */\n      pop\n        /* \"#utility.yul\":5041:5043   */\n      0x20\n        /* \"#utility.yul\":5067:5117   */\n      tag_387\n        /* \"#utility.yul\":5109:5116   */\n      dup6\n        /* \"#utility.yul\":5100:5106   */\n      dup3\n        /* \"#utility.yul\":5089:5098   */\n      dup7\n        /* \"#utility.yul\":5085:5107   */\n      add\n        /* \"#utility.yul\":5067:5117   */\n      tag_331\n      jump\t// in\n    tag_387:\n        /* \"#utility.yul\":5057:5117   */\n      swap2\n      pop\n        /* \"#utility.yul\":5012:5127   */\n      pop\n        /* \"#utility.yul\":4746:5134   */\n      swap3\n      pop\n      swap3\n      swap1\n      pop\n      jump\t// out\n        /* \"#utility.yul\":5140:5614   */\n    tag_39:\n        /* \"#utility.yul\":5208:5214   */\n      0x00\n        /* \"#utility.yul\":5216:5222   */\n      dup1\n        /* \"#utility.yul\":5265:5267   */\n      0x40\n        /* \"#utility.yul\":5253:5262   */\n      dup4\n        /* \"#utility.yul\":5244:5251   */\n      dup6\n        /* \"#utility.yul\":5240:5263   */\n      sub\n        /* \"#utility.yul\":5236:5268   */\n      slt\n        /* \"#utility.yul\":5233:5235   */\n      iszero\n      tag_389\n      jumpi\n        /* \"#utility.yul\":5271:5350   */\n      tag_390\n      tag_360\n      jump\t// in\n    tag_390:\n        /* \"#utility.yul\":5233:5235   */\n    tag_389:\n        /* \"#utility.yul\":5391:5392   */\n      0x00\n        /* \"#utility.yul\":5416:5469   */\n      tag_391\n        /* \"#utility.yul\":5461:5468   */\n      dup6\n        /* \"#utility.yul\":5452:5458   */\n      dup3\n        /* \"#utility.yul\":5441:5450   */\n      dup7\n        /* \"#utility.yul\":5437:5459   */\n      add\n        /* \"#utility.yul\":5416:5469   */\n      tag_327\n      jump\t// in\n    tag_391:\n        /* \"#utility.yul\":5406:5469   */\n      swap3\n      pop\n        /* \"#utility.yul\":5362:5479   */\n      pop\n        /* \"#utility.yul\":5518:5520   */\n      0x20\n        /* \"#utility.yul\":5544:5597   */\n      tag_392\n        /* \"#utility.yul\":5589:5596   */\n      dup6\n        /* \"#utility.yul\":5580:5586   */\n      dup3\n        /* \"#utility.yul\":5569:5578   */\n      dup7\n        /* \"#utility.yul\":5565:5587   */\n      add\n        /* \"#utility.yul\":5544:5597   */\n      tag_353\n      jump\t// in\n    tag_392:\n        /* \"#utility.yul\":5534:5597   */\n      swap2\n      pop\n        /* \"#utility.yul\":5489:5607   */\n      pop\n        /* \"#utility.yul\":5223:5614   */\n      swap3\n      pop\n      swap3\n      swap1\n      pop\n      jump\t// out\n        /* \"#utility.yul\":5620:5947   */\n    tag_23:\n        /* \"#utility.yul\":5678:5684   */\n      0x00\n        /* \"#utility.yul\":5727:5729   */\n      0x20\n        /* \"#utility.yul\":5715:5724   */\n      dup3\n        /* \"#utility.yul\":5706:5713   */\n      dup5\n        /* \"#utility.yul\":5702:5725   */\n      sub\n        /* \"#utility.yul\":5698:5730   */\n      slt\n        /* \"#utility.yul\":5695:5697   */\n      iszero\n      tag_394\n      jumpi\n        /* \"#utility.yul\":5733:5812   */\n      tag_395\n      tag_360\n      jump\t// in\n    tag_395:\n        /* \"#utility.yul\":5695:5697   */\n    tag_394:\n        /* \"#utility.yul\":5853:5854   */\n      0x00\n        /* \"#utility.yul\":5878:5930   */\n      tag_396\n        /* \"#utility.yul\":5922:5929   */\n      dup5\n        /* \"#utility.yul\":5913:5919   */\n      dup3\n        /* \"#utility.yul\":5902:5911   */\n      dup6\n        /* \"#utility.yul\":5898:5920   */\n      add\n        /* \"#utility.yul\":5878:5930   */\n      tag_335\n      jump\t// in\n    tag_396:\n        /* \"#utility.yul\":5868:5930   */\n      swap2\n      pop\n        /* \"#utility.yul\":5824:5940   */\n      pop\n        /* \"#utility.yul\":5685:5947   */\n      swap3\n      swap2\n      pop\n      pop\n      jump\t// out\n        /* \"#utility.yul\":5953:6302   */\n    tag_273:\n        /* \"#utility.yul\":6022:6028   */\n      0x00\n        /* \"#utility.yul\":6071:6073   */\n      0x20\n        /* \"#utility.yul\":6059:6068   */\n      dup3\n        /* \"#utility.yul\":6050:6057   */\n      dup5\n        /* \"#utility.yul\":6046:6069   */\n      sub\n        /* \"#utility.yul\":6042:6074   */\n      slt\n        /* \"#utility.yul\":6039:6041   */\n      iszero\n      tag_398\n      jumpi\n        /* \"#utility.yul\":6077:6156   */\n      tag_399\n      tag_360\n      jump\t// in\n    tag_399:\n        /* \"#utility.yul\":6039:6041   */\n    tag_398:\n        /* \"#utility.yul\":6197:6198   */\n      0x00\n        /* \"#utility.yul\":6222:6285   */\n      tag_400\n        /* \"#utility.yul\":6277:6284   */\n      dup5\n        /* \"#utility.yul\":6268:6274   */\n      dup3\n        /* \"#utility.yul\":6257:6266   */\n      dup6\n        /* \"#utility.yul\":6253:6275   */\n      add\n        /* \"#utility.yul\":6222:6285   */\n      tag_339\n      jump\t// in\n    tag_400:\n        /* \"#utility.yul\":6212:6285   */\n      swap2\n      pop\n        /* \"#utility.yul\":6168:6295   */\n      pop\n        /* \"#utility.yul\":6029:6302   */\n      swap3\n      swap2\n      pop\n      pop\n      jump\t// out\n        /* \"#utility.yul\":6308:6817   */\n    tag_47:\n        /* \"#utility.yul\":6377:6383   */\n      0x00\n        /* \"#utility.yul\":6426:6428   */\n      0x20\n        /* \"#utility.yul\":6414:6423   */\n      dup3\n        /* \"#utility.yul\":6405:6412   */\n      dup5\n        /* \"#utility.yul\":6401:6424   */\n      sub\n        /* \"#utility.yul\":6397:6429   */\n      slt\n        /* \"#utility.yul\":6394:6396   */\n      iszero\n      tag_402\n      jumpi\n        /* \"#utility.yul\":6432:6511   */\n      tag_403\n      tag_360\n      jump\t// in\n    tag_403:\n        /* \"#utility.yul\":6394:6396   */\n    tag_402:\n        /* \"#utility.yul\":6580:6581   */\n      0x00\n        /* \"#utility.yul\":6569:6578   */\n      dup3\n        /* \"#utility.yul\":6565:6582   */\n      add\n        /* \"#utility.yul\":6552:6583   */\n      calldataload\n        /* \"#utility.yul\":6610:6628   */\n      0xffffffffffffffff\n        /* \"#utility.yul\":6602:6608   */\n      dup2\n        /* \"#utility.yul\":6599:6629   */\n      gt\n        /* \"#utility.yul\":6596:6598   */\n      iszero\n      tag_404\n      jumpi\n        /* \"#utility.yul\":6632:6711   */\n      tag_405\n      tag_381\n      jump\t// in\n    tag_405:\n        /* \"#utility.yul\":6596:6598   */\n    tag_404:\n        /* \"#utility.yul\":6737:6800   */\n      tag_406\n        /* \"#utility.yul\":6792:6799   */\n      dup5\n        /* \"#utility.yul\":6783:6789   */\n      dup3\n        /* \"#utility.yul\":6772:6781   */\n      dup6\n        /* \"#utility.yul\":6768:6790   */\n      add\n        /* \"#utility.yul\":6737:6800   */\n      tag_348\n      jump\t// in\n    tag_406:\n        /* \"#utility.yul\":6727:6800   */\n      swap2\n      pop\n        /* \"#utility.yul\":6523:6810   */\n      pop\n        /* \"#utility.yul\":6384:6817   */\n      swap3\n      swap2\n      pop\n      pop\n      jump\t// out\n        /* \"#utility.yul\":6823:7152   */\n    tag_33:\n        /* \"#utility.yul\":6882:6888   */\n      0x00\n        /* \"#utility.yul\":6931:6933   */\n      0x20\n        /* \"#utility.yul\":6919:6928   */\n      dup3\n        /* \"#utility.yul\":6910:6917   */\n      dup5\n        /* \"#utility.yul\":6906:6929   */\n      sub\n        /* \"#utility.yul\":6902:6934   */\n      slt\n        /* \"#utility.yul\":6899:6901   */\n      iszero\n      tag_408\n      jumpi\n        /* \"#utility.yul\":6937:7016   */\n      tag_409\n      tag_360\n      jump\t// in\n    tag_409:\n        /* \"#utility.yul\":6899:6901   */\n    tag_408:\n        /* \"#utility.yul\":7057:7058   */\n      0x00\n        /* \"#utility.yul\":7082:7135   */\n      tag_410\n        /* \"#utility.yul\":7127:7134   */\n      dup5\n        /* \"#utility.yul\":7118:7124   */\n      dup3\n        /* \"#utility.yul\":7107:7116   */\n      dup6\n        /* \"#utility.yul\":7103:7125   */\n      add\n        /* \"#utility.yul\":7082:7135   */\n      tag_353\n      jump\t// in\n    tag_410:\n        /* \"#utility.yul\":7072:7135   */\n      swap2\n      pop\n        /* \"#utility.yul\":7028:7145   */\n      pop\n        /* \"#utility.yul\":6889:7152   */\n      swap3\n      swap2\n      pop\n      pop\n      jump\t// out\n        /* \"#utility.yul\":7158:7276   */\n    tag_411:\n        /* \"#utility.yul\":7245:7269   */\n      tag_413\n        /* \"#utility.yul\":7263:7268   */\n      dup2\n        /* \"#utility.yul\":7245:7269   */\n      tag_414\n      jump\t// in\n    tag_413:\n        /* \"#utility.yul\":7240:7243   */\n      dup3\n        /* \"#utility.yul\":7233:7270   */\n      mstore\n        /* \"#utility.yul\":7223:7276   */\n      pop\n      pop\n      jump\t// out\n        /* \"#utility.yul\":7282:7391   */\n    tag_415:\n        /* \"#utility.yul\":7363:7384   */\n      tag_417\n        /* \"#utility.yul\":7378:7383   */\n      dup2\n        /* \"#utility.yul\":7363:7384   */\n      tag_418\n      jump\t// in\n    tag_417:\n        /* \"#utility.yul\":7358:7361   */\n      dup3\n        /* \"#utility.yul\":7351:7385   */\n      mstore\n        /* \"#utility.yul\":7341:7391   */\n      pop\n      pop\n      jump\t// out\n        /* \"#utility.yul\":7397:7757   */\n    tag_419:\n        /* \"#utility.yul\":7483:7486   */\n      0x00\n        /* \"#utility.yul\":7511:7549   */\n      tag_421\n        /* \"#utility.yul\":7543:7548   */\n      dup3\n        /* \"#utility.yul\":7511:7549   */\n      tag_422\n      jump\t// in\n    tag_421:\n        /* \"#utility.yul\":7565:7635   */\n      tag_423\n        /* \"#utility.yul\":7628:7634   */\n      dup2\n        /* \"#utility.yul\":7623:7626   */\n      dup6\n        /* \"#utility.yul\":7565:7635   */\n      tag_424\n      jump\t// in\n    tag_423:\n        /* \"#utility.yul\":7558:7635   */\n      swap4\n      pop\n        /* \"#utility.yul\":7644:7696   */\n      tag_425\n        /* \"#utility.yul\":7689:7695   */\n      dup2\n        /* \"#utility.yul\":7684:7687   */\n      dup6\n        /* \"#utility.yul\":7677:7681   */\n      0x20\n        /* \"#utility.yul\":7670:7675   */\n      dup7\n        /* \"#utility.yul\":7666:7682   */\n      add\n        /* \"#utility.yul\":7644:7696   */\n      tag_426\n      jump\t// in\n    tag_425:\n        /* \"#utility.yul\":7721:7750   */\n      tag_427\n        /* \"#utility.yul\":7743:7749   */\n      dup2\n        /* \"#utility.yul\":7721:7750   */\n      tag_428\n      jump\t// in\n    tag_427:\n        /* \"#utility.yul\":7716:7719   */\n      dup5\n        /* \"#utility.yul\":7712:7751   */\n      add\n        /* \"#utility.yul\":7705:7751   */\n      swap2\n      pop\n        /* \"#utility.yul\":7487:7757   */\n      pop\n      swap3\n      swap2\n      pop\n      pop\n      jump\t// out\n        /* \"#utility.yul\":7763:8127   */\n    tag_429:\n        /* \"#utility.yul\":7851:7854   */\n      0x00\n        /* \"#utility.yul\":7879:7918   */\n      tag_431\n        /* \"#utility.yul\":7912:7917   */\n      dup3\n        /* \"#utility.yul\":7879:7918   */\n      tag_432\n      jump\t// in\n    tag_431:\n        /* \"#utility.yul\":7934:8005   */\n      tag_433\n        /* \"#utility.yul\":7998:8004   */\n      dup2\n        /* \"#utility.yul\":7993:7996   */\n      dup6\n        /* \"#utility.yul\":7934:8005   */\n      tag_434\n      jump\t// in\n    tag_433:\n        /* \"#utility.yul\":7927:8005   */\n      swap4\n      pop\n        /* \"#utility.yul\":8014:8066   */\n      tag_435\n        /* \"#utility.yul\":8059:8065   */\n      dup2\n        /* \"#utility.yul\":8054:8057   */\n      dup6\n        /* \"#utility.yul\":8047:8051   */\n      0x20\n        /* \"#utility.yul\":8040:8045   */\n      dup7\n        /* \"#utility.yul\":8036:8052   */\n      add\n        /* \"#utility.yul\":8014:8066   */\n      tag_426\n      jump\t// in\n    tag_435:\n        /* \"#utility.yul\":8091:8120   */\n      tag_436\n        /* \"#utility.yul\":8113:8119   */\n      dup2\n        /* \"#utility.yul\":8091:8120   */\n      tag_428\n      jump\t// in\n    tag_436:\n        /* \"#utility.yul\":8086:8089   */\n      dup5\n        /* \"#utility.yul\":8082:8121   */\n      add\n        /* \"#utility.yul\":8075:8121   */\n      swap2\n      pop\n        /* \"#utility.yul\":7855:8127   */\n      pop\n      swap3\n      swap2\n      pop\n      pop\n      jump\t// out\n        /* \"#utility.yul\":8133:8510   */\n    tag_437:\n        /* \"#utility.yul\":8239:8242   */\n      0x00\n        /* \"#utility.yul\":8267:8306   */\n      tag_439\n        /* \"#utility.yul\":8300:8305   */\n      dup3\n        /* \"#utility.yul\":8267:8306   */\n      tag_432\n      jump\t// in\n    tag_439:\n        /* \"#utility.yul\":8322:8411   */\n      tag_440\n        /* \"#utility.yul\":8404:8410   */\n      dup2\n        /* \"#utility.yul\":8399:8402   */\n      dup6\n        /* \"#utility.yul\":8322:8411   */\n      tag_441\n      jump\t// in\n    tag_440:\n        /* \"#utility.yul\":8315:8411   */\n      swap4\n      pop\n        /* \"#utility.yul\":8420:8472   */\n      tag_442\n        /* \"#utility.yul\":8465:8471   */\n      dup2\n        /* \"#utility.yul\":8460:8463   */\n      dup6\n        /* \"#utility.yul\":8453:8457   */\n      0x20\n        /* \"#utility.yul\":8446:8451   */\n      dup7\n        /* \"#utility.yul\":8442:8458   */\n      add\n        /* \"#utility.yul\":8420:8472   */\n      tag_426\n      jump\t// in\n    tag_442:\n        /* \"#utility.yul\":8497:8503   */\n      dup1\n        /* \"#utility.yul\":8492:8495   */\n      dup5\n        /* \"#utility.yul\":8488:8504   */\n      add\n        /* \"#utility.yul\":8481:8504   */\n      swap2\n      pop\n        /* \"#utility.yul\":8243:8510   */\n      pop\n      swap3\n      swap2\n      pop\n      pop\n      jump\t// out\n        /* \"#utility.yul\":8516:8882   */\n    tag_443:\n        /* \"#utility.yul\":8658:8661   */\n      0x00\n        /* \"#utility.yul\":8679:8746   */\n      tag_445\n        /* \"#utility.yul\":8743:8745   */\n      0x32\n        /* \"#utility.yul\":8738:8741   */\n      dup4\n        /* \"#utility.yul\":8679:8746   */\n      tag_434\n      jump\t// in\n    tag_445:\n        /* \"#utility.yul\":8672:8746   */\n      swap2\n      pop\n        /* \"#utility.yul\":8755:8848   */\n      tag_446\n        /* \"#utility.yul\":8844:8847   */\n      dup3\n        /* \"#utility.yul\":8755:8848   */\n      tag_447\n      jump\t// in\n    tag_446:\n        /* \"#utility.yul\":8873:8875   */\n      0x40\n        /* \"#utility.yul\":8868:8871   */\n      dup3\n        /* \"#utility.yul\":8864:8876   */\n      add\n        /* \"#utility.yul\":8857:8876   */\n      swap1\n      pop\n        /* \"#utility.yul\":8662:8882   */\n      swap2\n      swap1\n      pop\n      jump\t// out\n        /* \"#utility.yul\":8888:9254   */\n    tag_448:\n        /* \"#utility.yul\":9030:9033   */\n      0x00\n        /* \"#utility.yul\":9051:9118   */\n      tag_450\n        /* \"#utility.yul\":9115:9117   */\n      0x25\n        /* \"#utility.yul\":9110:9113   */\n      dup4\n        /* \"#utility.yul\":9051:9118   */\n      tag_434\n      jump\t// in\n    tag_450:\n        /* \"#utility.yul\":9044:9118   */\n      swap2\n      pop\n        /* \"#utility.yul\":9127:9220   */\n      tag_451\n        /* \"#utility.yul\":9216:9219   */\n      dup3\n        /* \"#utility.yul\":9127:9220   */\n      tag_452\n      jump\t// in\n    tag_451:\n        /* \"#utility.yul\":9245:9247   */\n      0x40\n        /* \"#utility.yul\":9240:9243   */\n      dup3\n        /* \"#utility.yul\":9236:9248   */\n      add\n        /* \"#utility.yul\":9229:9248   */\n      swap1\n      pop\n        /* \"#utility.yul\":9034:9254   */\n      swap2\n      swap1\n      pop\n      jump\t// out\n        /* \"#utility.yul\":9260:9626   */\n    tag_453:\n        /* \"#utility.yul\":9402:9405   */\n      0x00\n        /* \"#utility.yul\":9423:9490   */\n      tag_455\n        /* \"#utility.yul\":9487:9489   */\n      0x1c\n        /* \"#utility.yul\":9482:9485   */\n      dup4\n        /* \"#utility.yul\":9423:9490   */\n      tag_434\n      jump\t// in\n    tag_455:\n        /* \"#utility.yul\":9416:9490   */\n      swap2\n      pop\n        /* \"#utility.yul\":9499:9592   */\n      tag_456\n        /* \"#utility.yul\":9588:9591   */\n      dup3\n        /* \"#utility.yul\":9499:9592   */\n      tag_457\n      jump\t// in\n    tag_456:\n        /* \"#utility.yul\":9617:9619   */\n      0x20\n        /* \"#utility.yul\":9612:9615   */\n      dup3\n        /* \"#utility.yul\":9608:9620   */\n      add\n        /* \"#utility.yul\":9601:9620   */\n      swap1\n      pop\n        /* \"#utility.yul\":9406:9626   */\n      swap2\n      swap1\n      pop\n      jump\t// out\n        /* \"#utility.yul\":9632:9998   */\n    tag_458:\n        /* \"#utility.yul\":9774:9777   */\n      0x00\n        /* \"#utility.yul\":9795:9862   */\n      tag_460\n        /* \"#utility.yul\":9859:9861   */\n      0x24\n        /* \"#utility.yul\":9854:9857   */\n      dup4\n        /* \"#utility.yul\":9795:9862   */\n      tag_434\n      jump\t// in\n    tag_460:\n        /* \"#utility.yul\":9788:9862   */\n      swap2\n      pop\n        /* \"#utility.yul\":9871:9964   */\n      tag_461\n        /* \"#utility.yul\":9960:9963   */\n      dup3\n        /* \"#utility.yul\":9871:9964   */\n      tag_462\n      jump\t// in\n    tag_461:\n        /* \"#utility.yul\":9989:9991   */\n      0x40\n        /* \"#utility.yul\":9984:9987   */\n      dup3\n        /* \"#utility.yul\":9980:9992   */\n      add\n        /* \"#utility.yul\":9973:9992   */\n      swap1\n      pop\n        /* \"#utility.yul\":9778:9998   */\n      swap2\n      swap1\n      pop\n      jump\t// out\n        /* \"#utility.yul\":10004:10370   */\n    tag_463:\n        /* \"#utility.yul\":10146:10149   */\n      0x00\n        /* \"#utility.yul\":10167:10234   */\n      tag_465\n        /* \"#utility.yul\":10231:10233   */\n      0x19\n        /* \"#utility.yul\":10226:10229   */\n      dup4\n        /* \"#utility.yul\":10167:10234   */\n      tag_434\n      jump\t// in\n    tag_465:\n        /* \"#utility.yul\":10160:10234   */\n      swap2\n      pop\n        /* \"#utility.yul\":10243:10336   */\n      tag_466\n        /* \"#utility.yul\":10332:10335   */\n      dup3\n        /* \"#utility.yul\":10243:10336   */\n      tag_467\n      jump\t// in\n    tag_466:\n        /* \"#utility.yul\":10361:10363   */\n      0x20\n        /* \"#utility.yul\":10356:10359   */\n      dup3\n        /* \"#utility.yul\":10352:10364   */\n      add\n        /* \"#utility.yul\":10345:10364   */\n      swap1\n      pop\n        /* \"#utility.yul\":10150:10370   */\n      swap2\n      swap1\n      pop\n      jump\t// out\n        /* \"#utility.yul\":10376:10742   */\n    tag_468:\n        /* \"#utility.yul\":10518:10521   */\n      0x00\n        /* \"#utility.yul\":10539:10606   */\n      tag_470\n        /* \"#utility.yul\":10603:10605   */\n      0x0f\n        /* \"#utility.yul\":10598:10601   */\n      dup4\n        /* \"#utility.yul\":10539:10606   */\n      tag_434\n      jump\t// in\n    tag_470:\n        /* \"#utility.yul\":10532:10606   */\n      swap2\n      pop\n        /* \"#utility.yul\":10615:10708   */\n      tag_471\n        /* \"#utility.yul\":10704:10707   */\n      dup3\n        /* \"#utility.yul\":10615:10708   */\n      tag_472\n      jump\t// in\n    tag_471:\n        /* \"#utility.yul\":10733:10735   */\n      0x20\n        /* \"#utility.yul\":10728:10731   */\n      dup3\n        /* \"#utility.yul\":10724:10736   */\n      add\n        /* \"#utility.yul\":10717:10736   */\n      swap1\n      pop\n        /* \"#utility.yul\":10522:10742   */\n      swap2\n      swap1\n      pop\n      jump\t// out\n        /* \"#utility.yul\":10748:11114   */\n    tag_473:\n        /* \"#utility.yul\":10890:10893   */\n      0x00\n        /* \"#utility.yul\":10911:10978   */\n      tag_475\n        /* \"#utility.yul\":10975:10977   */\n      0x29\n        /* \"#utility.yul\":10970:10973   */\n      dup4\n        /* \"#utility.yul\":10911:10978   */\n      tag_434\n      jump\t// in\n    tag_475:\n        /* \"#utility.yul\":10904:10978   */\n      swap2\n      pop\n        /* \"#utility.yul\":10987:11080   */\n      tag_476\n        /* \"#utility.yul\":11076:11079   */\n      dup3\n        /* \"#utility.yul\":10987:11080   */\n      tag_477\n      jump\t// in\n    tag_476:\n        /* \"#utility.yul\":11105:11107   */\n      0x40\n        /* \"#utility.yul\":11100:11103   */\n      dup3\n        /* \"#utility.yul\":11096:11108   */\n      add\n        /* \"#utility.yul\":11089:11108   */\n      swap1\n      pop\n        /* \"#utility.yul\":10894:11114   */\n      swap2\n      swap1\n      pop\n      jump\t// out\n        /* \"#utility.yul\":11120:11486   */\n    tag_478:\n        /* \"#utility.yul\":11262:11265   */\n      0x00\n        /* \"#utility.yul\":11283:11350   */\n      tag_480\n        /* \"#utility.yul\":11347:11349   */\n      0x3e\n        /* \"#utility.yul\":11342:11345   */\n      dup4\n        /* \"#utility.yul\":11283:11350   */\n      tag_434\n      jump\t// in\n    tag_480:\n        /* \"#utility.yul\":11276:11350   */\n      swap2\n      pop\n        /* \"#utility.yul\":11359:11452   */\n      tag_481\n        /* \"#utility.yul\":11448:11451   */\n      dup3\n        /* \"#utility.yul\":11359:11452   */\n      tag_482\n      jump\t// in\n    tag_481:\n        /* \"#utility.yul\":11477:11479   */\n      0x40\n        /* \"#utility.yul\":11472:11475   */\n      dup3\n        /* \"#utility.yul\":11468:11480   */\n      add\n        /* \"#utility.yul\":11461:11480   */\n      swap1\n      pop\n        /* \"#utility.yul\":11266:11486   */\n      swap2\n      swap1\n      pop\n      jump\t// out\n        /* \"#utility.yul\":11492:11858   */\n    tag_483:\n        /* \"#utility.yul\":11634:11637   */\n      0x00\n        /* \"#utility.yul\":11655:11722   */\n      tag_485\n        /* \"#utility.yul\":11719:11721   */\n      0x20\n        /* \"#utility.yul\":11714:11717   */\n      dup4\n        /* \"#utility.yul\":11655:11722   */\n      tag_434\n      jump\t// in\n    tag_485:\n        /* \"#utility.yul\":11648:11722   */\n      swap2\n      pop\n        /* \"#utility.yul\":11731:11824   */\n      tag_486\n        /* \"#utility.yul\":11820:11823   */\n      dup3\n        /* \"#utility.yul\":11731:11824   */\n      tag_487\n      jump\t// in\n    tag_486:\n        /* \"#utility.yul\":11849:11851   */\n      0x20\n        /* \"#utility.yul\":11844:11847   */\n      dup3\n        /* \"#utility.yul\":11840:11852   */\n      add\n        /* \"#utility.yul\":11833:11852   */\n      swap1\n      pop\n        /* \"#utility.yul\":11638:11858   */\n      swap2\n      swap1\n      pop\n      jump\t// out\n        /* \"#utility.yul\":11864:12230   */\n    tag_488:\n        /* \"#utility.yul\":12006:12009   */\n      0x00\n        /* \"#utility.yul\":12027:12094   */\n      tag_490\n        /* \"#utility.yul\":12091:12093   */\n      0x18\n        /* \"#utility.yul\":12086:12089   */\n      dup4\n        /* \"#utility.yul\":12027:12094   */\n      tag_434\n      jump\t// in\n    tag_490:\n        /* \"#utility.yul\":12020:12094   */\n      swap2\n      pop\n        /* \"#utility.yul\":12103:12196   */\n      tag_491\n        /* \"#utility.yul\":12192:12195   */\n      dup3\n        /* \"#utility.yul\":12103:12196   */\n      tag_492\n      jump\t// in\n    tag_491:\n        /* \"#utility.yul\":12221:12223   */\n      0x20\n        /* \"#utility.yul\":12216:12219   */\n      dup3\n        /* \"#utility.yul\":12212:12224   */\n      add\n        /* \"#utility.yul\":12205:12224   */\n      swap1\n      pop\n        /* \"#utility.yul\":12010:12230   */\n      swap2\n      swap1\n      pop\n      jump\t// out\n        /* \"#utility.yul\":12236:12602   */\n    tag_493:\n        /* \"#utility.yul\":12378:12381   */\n      0x00\n        /* \"#utility.yul\":12399:12466   */\n      tag_495\n        /* \"#utility.yul\":12463:12465   */\n      0x21\n        /* \"#utility.yul\":12458:12461   */\n      dup4\n        /* \"#utility.yul\":12399:12466   */\n      tag_434\n      jump\t// in\n    tag_495:\n        /* \"#utility.yul\":12392:12466   */\n      swap2\n      pop\n        /* \"#utility.yul\":12475:12568   */\n      tag_496\n        /* \"#utility.yul\":12564:12567   */\n      dup3\n        /* \"#utility.yul\":12475:12568   */\n      tag_497\n      jump\t// in\n    tag_496:\n        /* \"#utility.yul\":12593:12595   */\n      0x40\n        /* \"#utility.yul\":12588:12591   */\n      dup3\n        /* \"#utility.yul\":12584:12596   */\n      add\n        /* \"#utility.yul\":12577:12596   */\n      swap1\n      pop\n        /* \"#utility.yul\":12382:12602   */\n      swap2\n      swap1\n      pop\n      jump\t// out\n        /* \"#utility.yul\":12608:12974   */\n    tag_498:\n        /* \"#utility.yul\":12750:12753   */\n      0x00\n        /* \"#utility.yul\":12771:12838   */\n      tag_500\n        /* \"#utility.yul\":12835:12837   */\n      0x2e\n        /* \"#utility.yul\":12830:12833   */\n      dup4\n        /* \"#utility.yul\":12771:12838   */\n      tag_434\n      jump\t// in\n    tag_500:\n        /* \"#utility.yul\":12764:12838   */\n      swap2\n      pop\n        /* \"#utility.yul\":12847:12940   */\n      tag_501\n        /* \"#utility.yul\":12936:12939   */\n      dup3\n        /* \"#utility.yul\":12847:12940   */\n      tag_502\n      jump\t// in\n    tag_501:\n        /* \"#utility.yul\":12965:12967   */\n      0x40\n        /* \"#utility.yul\":12960:12963   */\n      dup3\n        /* \"#utility.yul\":12956:12968   */\n      add\n        /* \"#utility.yul\":12949:12968   */\n      swap1\n      pop\n        /* \"#utility.yul\":12754:12974   */\n      swap2\n      swap1\n      pop\n      jump\t// out\n        /* \"#utility.yul\":12980:13098   */\n    tag_503:\n        /* \"#utility.yul\":13067:13091   */\n      tag_505\n        /* \"#utility.yul\":13085:13090   */\n      dup2\n        /* \"#utility.yul\":13067:13091   */\n      tag_506\n      jump\t// in\n    tag_505:\n        /* \"#utility.yul\":13062:13065   */\n      dup3\n        /* \"#utility.yul\":13055:13092   */\n      mstore\n        /* \"#utility.yul\":13045:13098   */\n      pop\n      pop\n      jump\t// out\n        /* \"#utility.yul\":13104:13539   */\n    tag_177:\n        /* \"#utility.yul\":13284:13287   */\n      0x00\n        /* \"#utility.yul\":13306:13401   */\n      tag_508\n        /* \"#utility.yul\":13397:13400   */\n      dup3\n        /* \"#utility.yul\":13388:13394   */\n      dup6\n        /* \"#utility.yul\":13306:13401   */\n      tag_437\n      jump\t// in\n    tag_508:\n        /* \"#utility.yul\":13299:13401   */\n      swap2\n      pop\n        /* \"#utility.yul\":13418:13513   */\n      tag_509\n        /* \"#utility.yul\":13509:13512   */\n      dup3\n        /* \"#utility.yul\":13500:13506   */\n      dup5\n        /* \"#utility.yul\":13418:13513   */\n      tag_437\n      jump\t// in\n    tag_509:\n        /* \"#utility.yul\":13411:13513   */\n      swap2\n      pop\n        /* \"#utility.yul\":13530:13533   */\n      dup2\n        /* \"#utility.yul\":13523:13533   */\n      swap1\n      pop\n        /* \"#utility.yul\":13288:13539   */\n      swap4\n      swap3\n      pop\n      pop\n      pop\n      jump\t// out\n        /* \"#utility.yul\":13545:13767   */\n    tag_36:\n        /* \"#utility.yul\":13638:13642   */\n      0x00\n        /* \"#utility.yul\":13676:13678   */\n      0x20\n        /* \"#utility.yul\":13665:13674   */\n      dup3\n        /* \"#utility.yul\":13661:13679   */\n      add\n        /* \"#utility.yul\":13653:13679   */\n      swap1\n      pop\n        /* \"#utility.yul\":13689:13760   */\n      tag_511\n        /* \"#utility.yul\":13757:13758   */\n      0x00\n        /* \"#utility.yul\":13746:13755   */\n      dup4\n        /* \"#utility.yul\":13742:13759   */\n      add\n        /* \"#utility.yul\":13733:13739   */\n      dup5\n        /* \"#utility.yul\":13689:13760   */\n      tag_411\n      jump\t// in\n    tag_511:\n        /* \"#utility.yul\":13643:13767   */\n      swap3\n      swap2\n      pop\n      pop\n      jump\t// out\n        /* \"#utility.yul\":13773:14413   */\n    tag_269:\n        /* \"#utility.yul\":13968:13972   */\n      0x00\n        /* \"#utility.yul\":14006:14009   */\n      0x80\n        /* \"#utility.yul\":13995:14004   */\n      dup3\n        /* \"#utility.yul\":13991:14010   */\n      add\n        /* \"#utility.yul\":13983:14010   */\n      swap1\n      pop\n        /* \"#utility.yul\":14020:14091   */\n      tag_513\n        /* \"#utility.yul\":14088:14089   */\n      0x00\n        /* \"#utility.yul\":14077:14086   */\n      dup4\n        /* \"#utility.yul\":14073:14090   */\n      add\n        /* \"#utility.yul\":14064:14070   */\n      dup8\n        /* \"#utility.yul\":14020:14091   */\n      tag_411\n      jump\t// in\n    tag_513:\n        /* \"#utility.yul\":14101:14173   */\n      tag_514\n        /* \"#utility.yul\":14169:14171   */\n      0x20\n        /* \"#utility.yul\":14158:14167   */\n      dup4\n        /* \"#utility.yul\":14154:14172   */\n      add\n        /* \"#utility.yul\":14145:14151   */\n      dup7\n        /* \"#utility.yul\":14101:14173   */\n      tag_411\n      jump\t// in\n    tag_514:\n        /* \"#utility.yul\":14183:14255   */\n      tag_515\n        /* \"#utility.yul\":14251:14253   */\n      0x40\n        /* \"#utility.yul\":14240:14249   */\n      dup4\n        /* \"#utility.yul\":14236:14254   */\n      add\n        /* \"#utility.yul\":14227:14233   */\n      dup6\n        /* \"#utility.yul\":14183:14255   */\n      tag_503\n      jump\t// in\n    tag_515:\n        /* \"#utility.yul\":14302:14311   */\n      dup2\n        /* \"#utility.yul\":14296:14300   */\n      dup2\n        /* \"#utility.yul\":14292:14312   */\n      sub\n        /* \"#utility.yul\":14287:14289   */\n      0x60\n        /* \"#utility.yul\":14276:14285   */\n      dup4\n        /* \"#utility.yul\":14272:14290   */\n      add\n        /* \"#utility.yul\":14265:14313   */\n      mstore\n        /* \"#utility.yul\":14330:14406   */\n      tag_516\n        /* \"#utility.yul\":14401:14405   */\n      dup2\n        /* \"#utility.yul\":14392:14398   */\n      dup5\n        /* \"#utility.yul\":14330:14406   */\n      tag_419\n      jump\t// in\n    tag_516:\n        /* \"#utility.yul\":14322:14406   */\n      swap1\n      pop\n        /* \"#utility.yul\":13973:14413   */\n      swap6\n      swap5\n      pop\n      pop\n      pop\n      pop\n      pop\n      jump\t// out\n        /* \"#utility.yul\":14419:14629   */\n    tag_26:\n        /* \"#utility.yul\":14506:14510   */\n      0x00\n        /* \"#utility.yul\":14544:14546   */\n      0x20\n        /* \"#utility.yul\":14533:14542   */\n      dup3\n        /* \"#utility.yul\":14529:14547   */\n      add\n        /* \"#utility.yul\":14521:14547   */\n      swap1\n      pop\n        /* \"#utility.yul\":14557:14622   */\n      tag_518\n        /* \"#utility.yul\":14619:14620   */\n      0x00\n        /* \"#utility.yul\":14608:14617   */\n      dup4\n        /* \"#utility.yul\":14604:14621   */\n      add\n        /* \"#utility.yul\":14595:14601   */\n      dup5\n        /* \"#utility.yul\":14557:14622   */\n      tag_415\n      jump\t// in\n    tag_518:\n        /* \"#utility.yul\":14511:14629   */\n      swap3\n      swap2\n      pop\n      pop\n      jump\t// out\n        /* \"#utility.yul\":14635:14948   */\n    tag_30:\n        /* \"#utility.yul\":14748:14752   */\n      0x00\n        /* \"#utility.yul\":14786:14788   */\n      0x20\n        /* \"#utility.yul\":14775:14784   */\n      dup3\n        /* \"#utility.yul\":14771:14789   */\n      add\n        /* \"#utility.yul\":14763:14789   */\n      swap1\n      pop\n        /* \"#utility.yul\":14835:14844   */\n      dup2\n        /* \"#utility.yul\":14829:14833   */\n      dup2\n        /* \"#utility.yul\":14825:14845   */\n      sub\n        /* \"#utility.yul\":14821:14822   */\n      0x00\n        /* \"#utility.yul\":14810:14819   */\n      dup4\n        /* \"#utility.yul\":14806:14823   */\n      add\n        /* \"#utility.yul\":14799:14846   */\n      mstore\n        /* \"#utility.yul\":14863:14941   */\n      tag_520\n        /* \"#utility.yul\":14936:14940   */\n      dup2\n        /* \"#utility.yul\":14927:14933   */\n      dup5\n        /* \"#utility.yul\":14863:14941   */\n      tag_429\n      jump\t// in\n    tag_520:\n        /* \"#utility.yul\":14855:14941   */\n      swap1\n      pop\n        /* \"#utility.yul\":14753:14948   */\n      swap3\n      swap2\n      pop\n      pop\n      jump\t// out\n        /* \"#utility.yul\":14954:15373   */\n    tag_232:\n        /* \"#utility.yul\":15120:15124   */\n      0x00\n        /* \"#utility.yul\":15158:15160   */\n      0x20\n        /* \"#utility.yul\":15147:15156   */\n      dup3\n        /* \"#utility.yul\":15143:15161   */\n      add\n        /* \"#utility.yul\":15135:15161   */\n      swap1\n      pop\n        /* \"#utility.yul\":15207:15216   */\n      dup2\n        /* \"#utility.yul\":15201:15205   */\n      dup2\n        /* \"#utility.yul\":15197:15217   */\n      sub\n        /* \"#utility.yul\":15193:15194   */\n      0x00\n        /* \"#utility.yul\":15182:15191   */\n      dup4\n        /* \"#utility.yul\":15178:15195   */\n      add\n        /* \"#utility.yul\":15171:15218   */\n      mstore\n        /* \"#utility.yul\":15235:15366   */\n      tag_522\n        /* \"#utility.yul\":15361:15365   */\n      dup2\n        /* \"#utility.yul\":15235:15366   */\n      tag_443\n      jump\t// in\n    tag_522:\n        /* \"#utility.yul\":15227:15366   */\n      swap1\n      pop\n        /* \"#utility.yul\":15125:15373   */\n      swap2\n      swap1\n      pop\n      jump\t// out\n        /* \"#utility.yul\":15379:15798   */\n    tag_197:\n        /* \"#utility.yul\":15545:15549   */\n      0x00\n        /* \"#utility.yul\":15583:15585   */\n      0x20\n        /* \"#utility.yul\":15572:15581   */\n      dup3\n        /* \"#utility.yul\":15568:15586   */\n      add\n        /* \"#utility.yul\":15560:15586   */\n      swap1\n      pop\n        /* \"#utility.yul\":15632:15641   */\n      dup2\n        /* \"#utility.yul\":15626:15630   */\n      dup2\n        /* \"#utility.yul\":15622:15642   */\n      sub\n        /* \"#utility.yul\":15618:15619   */\n      0x00\n        /* \"#utility.yul\":15607:15616   */\n      dup4\n        /* \"#utility.yul\":15603:15620   */\n      add\n        /* \"#utility.yul\":15596:15643   */\n      mstore\n        /* \"#utility.yul\":15660:15791   */\n      tag_524\n        /* \"#utility.yul\":15786:15790   */\n      dup2\n        /* \"#utility.yul\":15660:15791   */\n      tag_448\n      jump\t// in\n    tag_524:\n        /* \"#utility.yul\":15652:15791   */\n      swap1\n      pop\n        /* \"#utility.yul\":15550:15798   */\n      swap2\n      swap1\n      pop\n      jump\t// out\n        /* \"#utility.yul\":15804:16223   */\n    tag_292:\n        /* \"#utility.yul\":15970:15974   */\n      0x00\n        /* \"#utility.yul\":16008:16010   */\n      0x20\n        /* \"#utility.yul\":15997:16006   */\n      dup3\n        /* \"#utility.yul\":15993:16011   */\n      add\n        /* \"#utility.yul\":15985:16011   */\n      swap1\n      pop\n        /* \"#utility.yul\":16057:16066   */\n      dup2\n        /* \"#utility.yul\":16051:16055   */\n      dup2\n        /* \"#utility.yul\":16047:16067   */\n      sub\n        /* \"#utility.yul\":16043:16044   */\n      0x00\n        /* \"#utility.yul\":16032:16041   */\n      dup4\n        /* \"#utility.yul\":16028:16045   */\n      add\n        /* \"#utility.yul\":16021:16068   */\n      mstore\n        /* \"#utility.yul\":16085:16216   */\n      tag_526\n        /* \"#utility.yul\":16211:16215   */\n      dup2\n        /* \"#utility.yul\":16085:16216   */\n      tag_453\n      jump\t// in\n    tag_526:\n        /* \"#utility.yul\":16077:16216   */\n      swap1\n      pop\n        /* \"#utility.yul\":15975:16223   */\n      swap2\n      swap1\n      pop\n      jump\t// out\n        /* \"#utility.yul\":16229:16648   */\n    tag_200:\n        /* \"#utility.yul\":16395:16399   */\n      0x00\n        /* \"#utility.yul\":16433:16435   */\n      0x20\n        /* \"#utility.yul\":16422:16431   */\n      dup3\n        /* \"#utility.yul\":16418:16436   */\n      add\n        /* \"#utility.yul\":16410:16436   */\n      swap1\n      pop\n        /* \"#utility.yul\":16482:16491   */\n      dup2\n        /* \"#utility.yul\":16476:16480   */\n      dup2\n        /* \"#utility.yul\":16472:16492   */\n      sub\n        /* \"#utility.yul\":16468:16469   */\n      0x00\n        /* \"#utility.yul\":16457:16466   */\n      dup4\n        /* \"#utility.yul\":16453:16470   */\n      add\n        /* \"#utility.yul\":16446:16493   */\n      mstore\n        /* \"#utility.yul\":16510:16641   */\n      tag_528\n        /* \"#utility.yul\":16636:16640   */\n      dup2\n        /* \"#utility.yul\":16510:16641   */\n      tag_458\n      jump\t// in\n    tag_528:\n        /* \"#utility.yul\":16502:16641   */\n      swap1\n      pop\n        /* \"#utility.yul\":16400:16648   */\n      swap2\n      swap1\n      pop\n      jump\t// out\n        /* \"#utility.yul\":16654:17073   */\n    tag_224:\n        /* \"#utility.yul\":16820:16824   */\n      0x00\n        /* \"#utility.yul\":16858:16860   */\n      0x20\n        /* \"#utility.yul\":16847:16856   */\n      dup3\n        /* \"#utility.yul\":16843:16861   */\n      add\n        /* \"#utility.yul\":16835:16861   */\n      swap1\n      pop\n        /* \"#utility.yul\":16907:16916   */\n      dup2\n        /* \"#utility.yul\":16901:16905   */\n      dup2\n        /* \"#utility.yul\":16897:16917   */\n      sub\n        /* \"#utility.yul\":16893:16894   */\n      0x00\n        /* \"#utility.yul\":16882:16891   */\n      dup4\n        /* \"#utility.yul\":16878:16895   */\n      add\n        /* \"#utility.yul\":16871:16918   */\n      mstore\n        /* \"#utility.yul\":16935:17066   */\n      tag_530\n        /* \"#utility.yul\":17061:17065   */\n      dup2\n        /* \"#utility.yul\":16935:17066   */\n      tag_463\n      jump\t// in\n    tag_530:\n        /* \"#utility.yul\":16927:17066   */\n      swap1\n      pop\n        /* \"#utility.yul\":16825:17073   */\n      swap2\n      swap1\n      pop\n      jump\t// out\n        /* \"#utility.yul\":17079:17498   */\n    tag_217:\n        /* \"#utility.yul\":17245:17249   */\n      0x00\n        /* \"#utility.yul\":17283:17285   */\n      0x20\n        /* \"#utility.yul\":17272:17281   */\n      dup3\n        /* \"#utility.yul\":17268:17286   */\n      add\n        /* \"#utility.yul\":17260:17286   */\n      swap1\n      pop\n        /* \"#utility.yul\":17332:17341   */\n      dup2\n        /* \"#utility.yul\":17326:17330   */\n      dup2\n        /* \"#utility.yul\":17322:17342   */\n      sub\n        /* \"#utility.yul\":17318:17319   */\n      0x00\n        /* \"#utility.yul\":17307:17316   */\n      dup4\n        /* \"#utility.yul\":17303:17320   */\n      add\n        /* \"#utility.yul\":17296:17343   */\n      mstore\n        /* \"#utility.yul\":17360:17491   */\n      tag_532\n        /* \"#utility.yul\":17486:17490   */\n      dup2\n        /* \"#utility.yul\":17360:17491   */\n      tag_468\n      jump\t// in\n    tag_532:\n        /* \"#utility.yul\":17352:17491   */\n      swap1\n      pop\n        /* \"#utility.yul\":17250:17498   */\n      swap2\n      swap1\n      pop\n      jump\t// out\n        /* \"#utility.yul\":17504:17923   */\n    tag_150:\n        /* \"#utility.yul\":17670:17674   */\n      0x00\n        /* \"#utility.yul\":17708:17710   */\n      0x20\n        /* \"#utility.yul\":17697:17706   */\n      dup3\n        /* \"#utility.yul\":17693:17711   */\n      add\n        /* \"#utility.yul\":17685:17711   */\n      swap1\n      pop\n        /* \"#utility.yul\":17757:17766   */\n      dup2\n        /* \"#utility.yul\":17751:17755   */\n      dup2\n        /* \"#utility.yul\":17747:17767   */\n      sub\n        /* \"#utility.yul\":17743:17744   */\n      0x00\n        /* \"#utility.yul\":17732:17741   */\n      dup4\n        /* \"#utility.yul\":17728:17745   */\n      add\n        /* \"#utility.yul\":17721:17768   */\n      mstore\n        /* \"#utility.yul\":17785:17916   */\n      tag_534\n        /* \"#utility.yul\":17911:17915   */\n      dup2\n        /* \"#utility.yul\":17785:17916   */\n      tag_473\n      jump\t// in\n    tag_534:\n        /* \"#utility.yul\":17777:17916   */\n      swap1\n      pop\n        /* \"#utility.yul\":17675:17923   */\n      swap2\n      swap1\n      pop\n      jump\t// out\n        /* \"#utility.yul\":17929:18348   */\n    tag_114:\n        /* \"#utility.yul\":18095:18099   */\n      0x00\n        /* \"#utility.yul\":18133:18135   */\n      0x20\n        /* \"#utility.yul\":18122:18131   */\n      dup3\n        /* \"#utility.yul\":18118:18136   */\n      add\n        /* \"#utility.yul\":18110:18136   */\n      swap1\n      pop\n        /* \"#utility.yul\":18182:18191   */\n      dup2\n        /* \"#utility.yul\":18176:18180   */\n      dup2\n        /* \"#utility.yul\":18172:18192   */\n      sub\n        /* \"#utility.yul\":18168:18169   */\n      0x00\n        /* \"#utility.yul\":18157:18166   */\n      dup4\n        /* \"#utility.yul\":18153:18170   */\n      add\n        /* \"#utility.yul\":18146:18193   */\n      mstore\n        /* \"#utility.yul\":18210:18341   */\n      tag_536\n        /* \"#utility.yul\":18336:18340   */\n      dup2\n        /* \"#utility.yul\":18210:18341   */\n      tag_478\n      jump\t// in\n    tag_536:\n        /* \"#utility.yul\":18202:18341   */\n      swap1\n      pop\n        /* \"#utility.yul\":18100:18348   */\n      swap2\n      swap1\n      pop\n      jump\t// out\n        /* \"#utility.yul\":18354:18773   */\n    tag_288:\n        /* \"#utility.yul\":18520:18524   */\n      0x00\n        /* \"#utility.yul\":18558:18560   */\n      0x20\n        /* \"#utility.yul\":18547:18556   */\n      dup3\n        /* \"#utility.yul\":18543:18561   */\n      add\n        /* \"#utility.yul\":18535:18561   */\n      swap1\n      pop\n        /* \"#utility.yul\":18607:18616   */\n      dup2\n        /* \"#utility.yul\":18601:18605   */\n      dup2\n        /* \"#utility.yul\":18597:18617   */\n      sub\n        /* \"#utility.yul\":18593:18594   */\n      0x00\n        /* \"#utility.yul\":18582:18591   */\n      dup4\n        /* \"#utility.yul\":18578:18595   */\n      add\n        /* \"#utility.yul\":18571:18618   */\n      mstore\n        /* \"#utility.yul\":18635:18766   */\n      tag_538\n        /* \"#utility.yul\":18761:18765   */\n      dup2\n        /* \"#utility.yul\":18635:18766   */\n      tag_483\n      jump\t// in\n    tag_538:\n        /* \"#utility.yul\":18627:18766   */\n      swap1\n      pop\n        /* \"#utility.yul\":18525:18773   */\n      swap2\n      swap1\n      pop\n      jump\t// out\n        /* \"#utility.yul\":18779:19198   */\n    tag_146:\n        /* \"#utility.yul\":18945:18949   */\n      0x00\n        /* \"#utility.yul\":18983:18985   */\n      0x20\n        /* \"#utility.yul\":18972:18981   */\n      dup3\n        /* \"#utility.yul\":18968:18986   */\n      add\n        /* \"#utility.yul\":18960:18986   */\n      swap1\n      pop\n        /* \"#utility.yul\":19032:19041   */\n      dup2\n        /* \"#utility.yul\":19026:19030   */\n      dup2\n        /* \"#utility.yul\":19022:19042   */\n      sub\n        /* \"#utility.yul\":19018:19019   */\n      0x00\n        /* \"#utility.yul\":19007:19016   */\n      dup4\n        /* \"#utility.yul\":19003:19020   */\n      add\n        /* \"#utility.yul\":18996:19043   */\n      mstore\n        /* \"#utility.yul\":19060:19191   */\n      tag_540\n        /* \"#utility.yul\":19186:19190   */\n      dup2\n        /* \"#utility.yul\":19060:19191   */\n      tag_488\n      jump\t// in\n    tag_540:\n        /* \"#utility.yul\":19052:19191   */\n      swap1\n      pop\n        /* \"#utility.yul\":18950:19198   */\n      swap2\n      swap1\n      pop\n      jump\t// out\n        /* \"#utility.yul\":19204:19623   */\n    tag_106:\n        /* \"#utility.yul\":19370:19374   */\n      0x00\n        /* \"#utility.yul\":19408:19410   */\n      0x20\n        /* \"#utility.yul\":19397:19406   */\n      dup3\n        /* \"#utility.yul\":19393:19411   */\n      add\n        /* \"#utility.yul\":19385:19411   */\n      swap1\n      pop\n        /* \"#utility.yul\":19457:19466   */\n      dup2\n        /* \"#utility.yul\":19451:19455   */\n      dup2\n        /* \"#utility.yul\":19447:19467   */\n      sub\n        /* \"#utility.yul\":19443:19444   */\n      0x00\n        /* \"#utility.yul\":19432:19441   */\n      dup4\n        /* \"#utility.yul\":19428:19445   */\n      add\n        /* \"#utility.yul\":19421:19468   */\n      mstore\n        /* \"#utility.yul\":19485:19616   */\n      tag_542\n        /* \"#utility.yul\":19611:19615   */\n      dup2\n        /* \"#utility.yul\":19485:19616   */\n      tag_493\n      jump\t// in\n    tag_542:\n        /* \"#utility.yul\":19477:19616   */\n      swap1\n      pop\n        /* \"#utility.yul\":19375:19623   */\n      swap2\n      swap1\n      pop\n      jump\t// out\n        /* \"#utility.yul\":19629:20048   */\n    tag_123:\n        /* \"#utility.yul\":19795:19799   */\n      0x00\n        /* \"#utility.yul\":19833:19835   */\n      0x20\n        /* \"#utility.yul\":19822:19831   */\n      dup3\n        /* \"#utility.yul\":19818:19836   */\n      add\n        /* \"#utility.yul\":19810:19836   */\n      swap1\n      pop\n        /* \"#utility.yul\":19882:19891   */\n      dup2\n        /* \"#utility.yul\":19876:19880   */\n      dup2\n        /* \"#utility.yul\":19872:19892   */\n      sub\n        /* \"#utility.yul\":19868:19869   */\n      0x00\n        /* \"#utility.yul\":19857:19866   */\n      dup4\n        /* \"#utility.yul\":19853:19870   */\n      add\n        /* \"#utility.yul\":19846:19893   */\n      mstore\n        /* \"#utility.yul\":19910:20041   */\n      tag_544\n        /* \"#utility.yul\":20036:20040   */\n      dup2\n        /* \"#utility.yul\":19910:20041   */\n      tag_498\n      jump\t// in\n    tag_544:\n        /* \"#utility.yul\":19902:20041   */\n      swap1\n      pop\n        /* \"#utility.yul\":19800:20048   */\n      swap2\n      swap1\n      pop\n      jump\t// out\n        /* \"#utility.yul\":20054:20276   */\n    tag_50:\n        /* \"#utility.yul\":20147:20151   */\n      0x00\n        /* \"#utility.yul\":20185:20187   */\n      0x20\n        /* \"#utility.yul\":20174:20183   */\n      dup3\n        /* \"#utility.yul\":20170:20188   */\n      add\n        /* \"#utility.yul\":20162:20188   */\n      swap1\n      pop\n        /* \"#utility.yul\":20198:20269   */\n      tag_546\n        /* \"#utility.yul\":20266:20267   */\n      0x00\n        /* \"#utility.yul\":20255:20264   */\n      dup4\n        /* \"#utility.yul\":20251:20268   */\n      add\n        /* \"#utility.yul\":20242:20248   */\n      dup5\n        /* \"#utility.yul\":20198:20269   */\n      tag_503\n      jump\t// in\n    tag_546:\n        /* \"#utility.yul\":20152:20276   */\n      swap3\n      swap2\n      pop\n      pop\n      jump\t// out\n        /* \"#utility.yul\":20282:20411   */\n    tag_313:\n        /* \"#utility.yul\":20316:20322   */\n      0x00\n        /* \"#utility.yul\":20343:20363   */\n      tag_548\n      tag_549\n      jump\t// in\n    tag_548:\n        /* \"#utility.yul\":20333:20363   */\n      swap1\n      pop\n        /* \"#utility.yul\":20372:20405   */\n      tag_550\n        /* \"#utility.yul\":20400:20404   */\n      dup3\n        /* \"#utility.yul\":20392:20398   */\n      dup3\n        /* \"#utility.yul\":20372:20405   */\n      tag_551\n      jump\t// in\n    tag_550:\n        /* \"#utility.yul\":20323:20411   */\n      swap2\n      swap1\n      pop\n      jump\t// out\n        /* \"#utility.yul\":20417:20492   */\n    tag_549:\n        /* \"#utility.yul\":20450:20456   */\n      0x00\n        /* \"#utility.yul\":20483:20485   */\n      0x40\n        /* \"#utility.yul\":20477:20486   */\n      mload\n        /* \"#utility.yul\":20467:20486   */\n      swap1\n      pop\n        /* \"#utility.yul\":20457:20492   */\n      swap1\n      jump\t// out\n        /* \"#utility.yul\":20498:20805   */\n    tag_312:\n        /* \"#utility.yul\":20559:20563   */\n      0x00\n        /* \"#utility.yul\":20649:20667   */\n      0xffffffffffffffff\n        /* \"#utility.yul\":20641:20647   */\n      dup3\n        /* \"#utility.yul\":20638:20668   */\n      gt\n        /* \"#utility.yul\":20635:20637   */\n      iszero\n      tag_554\n      jumpi\n        /* \"#utility.yul\":20671:20689   */\n      tag_555\n      tag_243\n      jump\t// in\n    tag_555:\n        /* \"#utility.yul\":20635:20637   */\n    tag_554:\n        /* \"#utility.yul\":20709:20738   */\n      tag_556\n        /* \"#utility.yul\":20731:20737   */\n      dup3\n        /* \"#utility.yul\":20709:20738   */\n      tag_428\n      jump\t// in\n    tag_556:\n        /* \"#utility.yul\":20701:20738   */\n      swap1\n      pop\n        /* \"#utility.yul\":20793:20797   */\n      0x20\n        /* \"#utility.yul\":20787:20791   */\n      dup2\n        /* \"#utility.yul\":20783:20798   */\n      add\n        /* \"#utility.yul\":20775:20798   */\n      swap1\n      pop\n        /* \"#utility.yul\":20564:20805   */\n      swap2\n      swap1\n      pop\n      jump\t// out\n        /* \"#utility.yul\":20811:21119   */\n    tag_323:\n        /* \"#utility.yul\":20873:20877   */\n      0x00\n        /* \"#utility.yul\":20963:20981   */\n      0xffffffffffffffff\n        /* \"#utility.yul\":20955:20961   */\n      dup3\n        /* \"#utility.yul\":20952:20982   */\n      gt\n        /* \"#utility.yul\":20949:20951   */\n      iszero\n      tag_558\n      jumpi\n        /* \"#utility.yul\":20985:21003   */\n      tag_559\n      tag_243\n      jump\t// in\n    tag_559:\n        /* \"#utility.yul\":20949:20951   */\n    tag_558:\n        /* \"#utility.yul\":21023:21052   */\n      tag_560\n        /* \"#utility.yul\":21045:21051   */\n      dup3\n        /* \"#utility.yul\":21023:21052   */\n      tag_428\n      jump\t// in\n    tag_560:\n        /* \"#utility.yul\":21015:21052   */\n      swap1\n      pop\n        /* \"#utility.yul\":21107:21111   */\n      0x20\n        /* \"#utility.yul\":21101:21105   */\n      dup2\n        /* \"#utility.yul\":21097:21112   */\n      add\n        /* \"#utility.yul\":21089:21112   */\n      swap1\n      pop\n        /* \"#utility.yul\":20878:21119   */\n      swap2\n      swap1\n      pop\n      jump\t// out\n        /* \"#utility.yul\":21125:21223   */\n    tag_422:\n        /* \"#utility.yul\":21176:21182   */\n      0x00\n        /* \"#utility.yul\":21210:21215   */\n      dup2\n        /* \"#utility.yul\":21204:21216   */\n      mload\n        /* \"#utility.yul\":21194:21216   */\n      swap1\n      pop\n        /* \"#utility.yul\":21183:21223   */\n      swap2\n      swap1\n      pop\n      jump\t// out\n        /* \"#utility.yul\":21229:21328   */\n    tag_432:\n        /* \"#utility.yul\":21281:21287   */\n      0x00\n        /* \"#utility.yul\":21315:21320   */\n      dup2\n        /* \"#utility.yul\":21309:21321   */\n      mload\n        /* \"#utility.yul\":21299:21321   */\n      swap1\n      pop\n        /* \"#utility.yul\":21288:21328   */\n      swap2\n      swap1\n      pop\n      jump\t// out\n        /* \"#utility.yul\":21334:21502   */\n    tag_424:\n        /* \"#utility.yul\":21417:21428   */\n      0x00\n        /* \"#utility.yul\":21451:21457   */\n      dup3\n        /* \"#utility.yul\":21446:21449   */\n      dup3\n        /* \"#utility.yul\":21439:21458   */\n      mstore\n        /* \"#utility.yul\":21491:21495   */\n      0x20\n        /* \"#utility.yul\":21486:21489   */\n      dup3\n        /* \"#utility.yul\":21482:21496   */\n      add\n        /* \"#utility.yul\":21467:21496   */\n      swap1\n      pop\n        /* \"#utility.yul\":21429:21502   */\n      swap3\n      swap2\n      pop\n      pop\n      jump\t// out\n        /* \"#utility.yul\":21508:21677   */\n    tag_434:\n        /* \"#utility.yul\":21592:21603   */\n      0x00\n        /* \"#utility.yul\":21626:21632   */\n      dup3\n        /* \"#utility.yul\":21621:21624   */\n      dup3\n        /* \"#utility.yul\":21614:21633   */\n      mstore\n        /* \"#utility.yul\":21666:21670   */\n      0x20\n        /* \"#utility.yul\":21661:21664   */\n      dup3\n        /* \"#utility.yul\":21657:21671   */\n      add\n        /* \"#utility.yul\":21642:21671   */\n      swap1\n      pop\n        /* \"#utility.yul\":21604:21677   */\n      swap3\n      swap2\n      pop\n      pop\n      jump\t// out\n        /* \"#utility.yul\":21683:21831   */\n    tag_441:\n        /* \"#utility.yul\":21785:21796   */\n      0x00\n        /* \"#utility.yul\":21822:21825   */\n      dup2\n        /* \"#utility.yul\":21807:21825   */\n      swap1\n      pop\n        /* \"#utility.yul\":21797:21831   */\n      swap3\n      swap2\n      pop\n      pop\n      jump\t// out\n        /* \"#utility.yul\":21837:22142   */\n    tag_207:\n        /* \"#utility.yul\":21877:21880   */\n      0x00\n        /* \"#utility.yul\":21896:21916   */\n      tag_567\n        /* \"#utility.yul\":21914:21915   */\n      dup3\n        /* \"#utility.yul\":21896:21916   */\n      tag_506\n      jump\t// in\n    tag_567:\n        /* \"#utility.yul\":21891:21916   */\n      swap2\n      pop\n        /* \"#utility.yul\":21930:21950   */\n      tag_568\n        /* \"#utility.yul\":21948:21949   */\n      dup4\n        /* \"#utility.yul\":21930:21950   */\n      tag_506\n      jump\t// in\n    tag_568:\n        /* \"#utility.yul\":21925:21950   */\n      swap3\n      pop\n        /* \"#utility.yul\":22084:22085   */\n      dup3\n        /* \"#utility.yul\":22016:22082   */\n      0xffffffffffffffffffffffffffffffffffffffffffffffffffffffffffffffff\n        /* \"#utility.yul\":22012:22086   */\n      sub\n        /* \"#utility.yul\":22009:22010   */\n      dup3\n        /* \"#utility.yul\":22006:22087   */\n      gt\n        /* \"#utility.yul\":22003:22005   */\n      iszero\n      tag_569\n      jumpi\n        /* \"#utility.yul\":22090:22108   */\n      tag_570\n      tag_571\n      jump\t// in\n    tag_570:\n        /* \"#utility.yul\":22003:22005   */\n    tag_569:\n        /* \"#utility.yul\":22134:22135   */\n      dup3\n        /* \"#utility.yul\":22131:22132   */\n      dup3\n        /* \"#utility.yul\":22127:22136   */\n      add\n        /* \"#utility.yul\":22120:22136   */\n      swap1\n      pop\n        /* \"#utility.yul\":21881:22142   */\n      swap3\n      swap2\n      pop\n      pop\n      jump\t// out\n        /* \"#utility.yul\":22148:22333   */\n    tag_240:\n        /* \"#utility.yul\":22188:22189   */\n      0x00\n        /* \"#utility.yul\":22205:22225   */\n      tag_573\n        /* \"#utility.yul\":22223:22224   */\n      dup3\n        /* \"#utility.yul\":22205:22225   */\n      tag_506\n      jump\t// in\n    tag_573:\n        /* \"#utility.yul\":22200:22225   */\n      swap2\n      pop\n        /* \"#utility.yul\":22239:22259   */\n      tag_574\n        /* \"#utility.yul\":22257:22258   */\n      dup4\n        /* \"#utility.yul\":22239:22259   */\n      tag_506\n      jump\t// in\n    tag_574:\n        /* \"#utility.yul\":22234:22259   */\n      swap3\n      pop\n        /* \"#utility.yul\":22278:22279   */\n      dup3\n        /* \"#utility.yul\":22268:22270   */\n      tag_575\n      jumpi\n        /* \"#utility.yul\":22283:22301   */\n      tag_576\n      tag_577\n      jump\t// in\n    tag_576:\n        /* \"#utility.yul\":22268:22270   */\n    tag_575:\n        /* \"#utility.yul\":22325:22326   */\n      dup3\n        /* \"#utility.yul\":22322:22323   */\n      dup3\n        /* \"#utility.yul\":22318:22327   */\n      div\n        /* \"#utility.yul\":22313:22327   */\n      swap1\n      pop\n        /* \"#utility.yul\":22190:22333   */\n      swap3\n      swap2\n      pop\n      pop\n      jump\t// out\n        /* \"#utility.yul\":22339:22530   */\n    tag_205:\n        /* \"#utility.yul\":22379:22383   */\n      0x00\n        /* \"#utility.yul\":22399:22419   */\n      tag_579\n        /* \"#utility.yul\":22417:22418   */\n      dup3\n        /* \"#utility.yul\":22399:22419   */\n      tag_506\n      jump\t// in\n    tag_579:\n        /* \"#utility.yul\":22394:22419   */\n      swap2\n      pop\n        /* \"#utility.yul\":22433:22453   */\n      tag_580\n        /* \"#utility.yul\":22451:22452   */\n      dup4\n        /* \"#utility.yul\":22433:22453   */\n      tag_506\n      jump\t// in\n    tag_580:\n        /* \"#utility.yul\":22428:22453   */\n      swap3\n      pop\n        /* \"#utility.yul\":22472:22473   */\n      dup3\n        /* \"#utility.yul\":22469:22470   */\n      dup3\n        /* \"#utility.yul\":22466:22474   */\n      lt\n        /* \"#utility.yul\":22463:22465   */\n      iszero\n      tag_581\n      jumpi\n        /* \"#utility.yul\":22477:22495   */\n      tag_582\n      tag_571\n      jump\t// in\n    tag_582:\n        /* \"#utility.yul\":22463:22465   */\n    tag_581:\n        /* \"#utility.yul\":22522:22523   */\n      dup3\n        /* \"#utility.yul\":22519:22520   */\n      dup3\n        /* \"#utility.yul\":22515:22524   */\n      sub\n        /* \"#utility.yul\":22507:22524   */\n      swap1\n      pop\n        /* \"#utility.yul\":22384:22530   */\n      swap3\n      swap2\n      pop\n      pop\n      jump\t// out\n        /* \"#utility.yul\":22536:22632   */\n    tag_414:\n        /* \"#utility.yul\":22573:22580   */\n      0x00\n        /* \"#utility.yul\":22602:22626   */\n      tag_584\n        /* \"#utility.yul\":22620:22625   */\n      dup3\n        /* \"#utility.yul\":22602:22626   */\n      tag_585\n      jump\t// in\n    tag_584:\n        /* \"#utility.yul\":22591:22626   */\n      swap1\n      pop\n        /* \"#utility.yul\":22581:22632   */\n      swap2\n      swap1\n      pop\n      jump\t// out\n        /* \"#utility.yul\":22638:22728   */\n    tag_418:\n        /* \"#utility.yul\":22672:22679   */\n      0x00\n        /* \"#utility.yul\":22715:22720   */\n      dup2\n        /* \"#utility.yul\":22708:22721   */\n      iszero\n        /* \"#utility.yul\":22701:22722   */\n      iszero\n        /* \"#utility.yul\":22690:22722   */\n      swap1\n      pop\n        /* \"#utility.yul\":22680:22728   */\n      swap2\n      swap1\n      pop\n      jump\t// out\n        /* \"#utility.yul\":22734:22883   */\n    tag_587:\n        /* \"#utility.yul\":22770:22777   */\n      0x00\n        /* \"#utility.yul\":22810:22876   */\n      0xffffffff00000000000000000000000000000000000000000000000000000000\n        /* \"#utility.yul\":22803:22808   */\n      dup3\n        /* \"#utility.yul\":22799:22877   */\n      and\n        /* \"#utility.yul\":22788:22877   */\n      swap1\n      pop\n        /* \"#utility.yul\":22778:22883   */\n      swap2\n      swap1\n      pop\n      jump\t// out\n        /* \"#utility.yul\":22889:23015   */\n    tag_585:\n        /* \"#utility.yul\":22926:22933   */\n      0x00\n        /* \"#utility.yul\":22966:23008   */\n      0xffffffffffffffffffffffffffffffffffffffff\n        /* \"#utility.yul\":22959:22964   */\n      dup3\n        /* \"#utility.yul\":22955:23009   */\n      and\n        /* \"#utility.yul\":22944:23009   */\n      swap1\n      pop\n        /* \"#utility.yul\":22934:23015   */\n      swap2\n      swap1\n      pop\n      jump\t// out\n        /* \"#utility.yul\":23021:23098   */\n    tag_506:\n        /* \"#utility.yul\":23058:23065   */\n      0x00\n        /* \"#utility.yul\":23087:23092   */\n      dup2\n        /* \"#utility.yul\":23076:23092   */\n      swap1\n      pop\n        /* \"#utility.yul\":23066:23098   */\n      swap2\n      swap1\n      pop\n      jump\t// out\n        /* \"#utility.yul\":23104:23258   */\n    tag_318:\n        /* \"#utility.yul\":23188:23194   */\n      dup3\n        /* \"#utility.yul\":23183:23186   */\n      dup2\n        /* \"#utility.yul\":23178:23181   */\n      dup4\n        /* \"#utility.yul\":23165:23195   */\n      calldatacopy\n        /* \"#utility.yul\":23250:23251   */\n      0x00\n        /* \"#utility.yul\":23241:23247   */\n      dup4\n        /* \"#utility.yul\":23236:23239   */\n      dup4\n        /* \"#utility.yul\":23232:23248   */\n      add\n        /* \"#utility.yul\":23225:23252   */\n      mstore\n        /* \"#utility.yul\":23155:23258   */\n      pop\n      pop\n      pop\n      jump\t// out\n        /* \"#utility.yul\":23264:23571   */\n    tag_426:\n        /* \"#utility.yul\":23332:23333   */\n      0x00\n        /* \"#utility.yul\":23342:23455   */\n    tag_593:\n        /* \"#utility.yul\":23356:23362   */\n      dup4\n        /* \"#utility.yul\":23353:23354   */\n      dup2\n        /* \"#utility.yul\":23350:23363   */\n      lt\n        /* \"#utility.yul\":23342:23455   */\n      iszero\n      tag_595\n      jumpi\n        /* \"#utility.yul\":23441:23442   */\n      dup1\n        /* \"#utility.yul\":23436:23439   */\n      dup3\n        /* \"#utility.yul\":23432:23443   */\n      add\n        /* \"#utility.yul\":23426:23444   */\n      mload\n        /* \"#utility.yul\":23422:23423   */\n      dup2\n        /* \"#utility.yul\":23417:23420   */\n      dup5\n        /* \"#utility.yul\":23413:23424   */\n      add\n        /* \"#utility.yul\":23406:23445   */\n      mstore\n        /* \"#utility.yul\":23378:23380   */\n      0x20\n        /* \"#utility.yul\":23375:23376   */\n      dup2\n        /* \"#utility.yul\":23371:23381   */\n      add\n        /* \"#utility.yul\":23366:23381   */\n      swap1\n      pop\n        /* \"#utility.yul\":23342:23455   */\n      jump(tag_593)\n    tag_595:\n        /* \"#utility.yul\":23473:23479   */\n      dup4\n        /* \"#utility.yul\":23470:23471   */\n      dup2\n        /* \"#utility.yul\":23467:23480   */\n      gt\n        /* \"#utility.yul\":23464:23466   */\n      iszero\n      tag_596\n      jumpi\n        /* \"#utility.yul\":23553:23554   */\n      0x00\n        /* \"#utility.yul\":23544:23550   */\n      dup5\n        /* \"#utility.yul\":23539:23542   */\n      dup5\n        /* \"#utility.yul\":23535:23551   */\n      add\n        /* \"#utility.yul\":23528:23555   */\n      mstore\n        /* \"#utility.yul\":23464:23466   */\n    tag_596:\n        /* \"#utility.yul\":23313:23571   */\n      pop\n      pop\n      pop\n      pop\n      jump\t// out\n        /* \"#utility.yul\":23577:23897   */\n    tag_94:\n        /* \"#utility.yul\":23621:23627   */\n      0x00\n        /* \"#utility.yul\":23658:23659   */\n      0x02\n        /* \"#utility.yul\":23652:23656   */\n      dup3\n        /* \"#utility.yul\":23648:23660   */\n      div\n        /* \"#utility.yul\":23638:23660   */\n      swap1\n      pop\n        /* \"#utility.yul\":23705:23706   */\n      0x01\n        /* \"#utility.yul\":23699:23703   */\n      dup3\n        /* \"#utility.yul\":23695:23707   */\n      and\n        /* \"#utility.yul\":23726:23744   */\n      dup1\n        /* \"#utility.yul\":23716:23718   */\n      tag_598\n      jumpi\n        /* \"#utility.yul\":23782:23786   */\n      0x7f\n        /* \"#utility.yul\":23774:23780   */\n      dup3\n        /* \"#utility.yul\":23770:23787   */\n      and\n        /* \"#utility.yul\":23760:23787   */\n      swap2\n      pop\n        /* \"#utility.yul\":23716:23718   */\n    tag_598:\n        /* \"#utility.yul\":23844:23846   */\n      0x20\n        /* \"#utility.yul\":23836:23842   */\n      dup3\n        /* \"#utility.yul\":23833:23847   */\n      lt\n        /* \"#utility.yul\":23813:23831   */\n      dup2\n        /* \"#utility.yul\":23810:23848   */\n      eq\n        /* \"#utility.yul\":23807:23809   */\n      iszero\n      tag_599\n      jumpi\n        /* \"#utility.yul\":23863:23881   */\n      tag_600\n      tag_601\n      jump\t// in\n    tag_600:\n        /* \"#utility.yul\":23807:23809   */\n    tag_599:\n        /* \"#utility.yul\":23628:23897   */\n      pop\n      swap2\n      swap1\n      pop\n      jump\t// out\n        /* \"#utility.yul\":23903:24184   */\n    tag_551:\n        /* \"#utility.yul\":23986:24013   */\n      tag_603\n        /* \"#utility.yul\":24008:24012   */\n      dup3\n        /* \"#utility.yul\":23986:24013   */\n      tag_428\n      jump\t// in\n    tag_603:\n        /* \"#utility.yul\":23978:23984   */\n      dup2\n        /* \"#utility.yul\":23974:24014   */\n      add\n        /* \"#utility.yul\":24116:24122   */\n      dup2\n        /* \"#utility.yul\":24104:24114   */\n      dup2\n        /* \"#utility.yul\":24101:24123   */\n      lt\n        /* \"#utility.yul\":24080:24098   */\n      0xffffffffffffffff\n        /* \"#utility.yul\":24068:24078   */\n      dup3\n        /* \"#utility.yul\":24065:24099   */\n      gt\n        /* \"#utility.yul\":24062:24124   */\n      or\n        /* \"#utility.yul\":24059:24061   */\n      iszero\n      tag_604\n      jumpi\n        /* \"#utility.yul\":24127:24145   */\n      tag_605\n      tag_243\n      jump\t// in\n    tag_605:\n        /* \"#utility.yul\":24059:24061   */\n    tag_604:\n        /* \"#utility.yul\":24167:24177   */\n      dup1\n        /* \"#utility.yul\":24163:24165   */\n      0x40\n        /* \"#utility.yul\":24156:24178   */\n      mstore\n        /* \"#utility.yul\":23946:24184   */\n      pop\n      pop\n      pop\n      jump\t// out\n        /* \"#utility.yul\":24190:24423   */\n    tag_132:\n        /* \"#utility.yul\":24229:24232   */\n      0x00\n        /* \"#utility.yul\":24252:24276   */\n      tag_607\n        /* \"#utility.yul\":24270:24275   */\n      dup3\n        /* \"#utility.yul\":24252:24276   */\n      tag_506\n      jump\t// in\n    tag_607:\n        /* \"#utility.yul\":24243:24276   */\n      swap2\n      pop\n        /* \"#utility.yul\":24298:24364   */\n      0xffffffffffffffffffffffffffffffffffffffffffffffffffffffffffffffff\n        /* \"#utility.yul\":24291:24296   */\n      dup3\n        /* \"#utility.yul\":24288:24365   */\n      eq\n        /* \"#utility.yul\":24285:24287   */\n      iszero\n      tag_608\n      jumpi\n        /* \"#utility.yul\":24368:24386   */\n      tag_609\n      tag_571\n      jump\t// in\n    tag_609:\n        /* \"#utility.yul\":24285:24287   */\n    tag_608:\n        /* \"#utility.yul\":24415:24416   */\n      0x01\n        /* \"#utility.yul\":24408:24413   */\n      dup3\n        /* \"#utility.yul\":24404:24417   */\n      add\n        /* \"#utility.yul\":24397:24417   */\n      swap1\n      pop\n        /* \"#utility.yul\":24233:24423   */\n      swap2\n      swap1\n      pop\n      jump\t// out\n        /* \"#utility.yul\":24429:24605   */\n    tag_249:\n        /* \"#utility.yul\":24461:24462   */\n      0x00\n        /* \"#utility.yul\":24478:24498   */\n      tag_611\n        /* \"#utility.yul\":24496:24497   */\n      dup3\n        /* \"#utility.yul\":24478:24498   */\n      tag_506\n      jump\t// in\n    tag_611:\n        /* \"#utility.yul\":24473:24498   */\n      swap2\n      pop\n        /* \"#utility.yul\":24512:24532   */\n      tag_612\n        /* \"#utility.yul\":24530:24531   */\n      dup4\n        /* \"#utility.yul\":24512:24532   */\n      tag_506\n      jump\t// in\n    tag_612:\n        /* \"#utility.yul\":24507:24532   */\n      swap3\n      pop\n        /* \"#utility.yul\":24551:24552   */\n      dup3\n        /* \"#utility.yul\":24541:24543   */\n      tag_613\n      jumpi\n        /* \"#utility.yul\":24556:24574   */\n      tag_614\n      tag_577\n      jump\t// in\n    tag_614:\n        /* \"#utility.yul\":24541:24543   */\n    tag_613:\n        /* \"#utility.yul\":24597:24598   */\n      dup3\n        /* \"#utility.yul\":24594:24595   */\n      dup3\n        /* \"#utility.yul\":24590:24599   */\n      mod\n        /* \"#utility.yul\":24585:24599   */\n      swap1\n      pop\n        /* \"#utility.yul\":24463:24605   */\n      swap3\n      swap2\n      pop\n      pop\n      jump\t// out\n        /* \"#utility.yul\":24611:24791   */\n    tag_571:\n        /* \"#utility.yul\":24659:24736   */\n      0x4e487b7100000000000000000000000000000000000000000000000000000000\n        /* \"#utility.yul\":24656:24657   */\n      0x00\n        /* \"#utility.yul\":24649:24737   */\n      mstore\n        /* \"#utility.yul\":24756:24760   */\n      0x11\n        /* \"#utility.yul\":24753:24754   */\n      0x04\n        /* \"#utility.yul\":24746:24761   */\n      mstore\n        /* \"#utility.yul\":24780:24784   */\n      0x24\n        /* \"#utility.yul\":24777:24778   */\n      0x00\n        /* \"#utility.yul\":24770:24785   */\n      revert\n        /* \"#utility.yul\":24797:24977   */\n    tag_577:\n        /* \"#utility.yul\":24845:24922   */\n      0x4e487b7100000000000000000000000000000000000000000000000000000000\n        /* \"#utility.yul\":24842:24843   */\n      0x00\n        /* \"#utility.yul\":24835:24923   */\n      mstore\n        /* \"#utility.yul\":24942:24946   */\n      0x12\n        /* \"#utility.yul\":24939:24940   */\n      0x04\n        /* \"#utility.yul\":24932:24947   */\n      mstore\n        /* \"#utility.yul\":24966:24970   */\n      0x24\n        /* \"#utility.yul\":24963:24964   */\n      0x00\n        /* \"#utility.yul\":24956:24971   */\n      revert\n        /* \"#utility.yul\":24983:25163   */\n    tag_601:\n        /* \"#utility.yul\":25031:25108   */\n      0x4e487b7100000000000000000000000000000000000000000000000000000000\n        /* \"#utility.yul\":25028:25029   */\n      0x00\n        /* \"#utility.yul\":25021:25109   */\n      mstore\n        /* \"#utility.yul\":25128:25132   */\n      0x22\n        /* \"#utility.yul\":25125:25126   */\n      0x04\n        /* \"#utility.yul\":25118:25133   */\n      mstore\n        /* \"#utility.yul\":25152:25156   */\n      0x24\n        /* \"#utility.yul\":25149:25150   */\n      0x00\n        /* \"#utility.yul\":25142:25157   */\n      revert\n        /* \"#utility.yul\":25169:25349   */\n    tag_253:\n        /* \"#utility.yul\":25217:25294   */\n      0x4e487b7100000000000000000000000000000000000000000000000000000000\n        /* \"#utility.yul\":25214:25215   */\n      0x00\n        /* \"#utility.yul\":25207:25295   */\n      mstore\n        /* \"#utility.yul\":25314:25318   */\n      0x32\n        /* \"#utility.yul\":25311:25312   */\n      0x04\n        /* \"#utility.yul\":25304:25319   */\n      mstore\n        /* \"#utility.yul\":25338:25342   */\n      0x24\n        /* \"#utility.yul\":25335:25336   */\n      0x00\n        /* \"#utility.yul\":25328:25343   */\n      revert\n        /* \"#utility.yul\":25355:25535   */\n    tag_243:\n        /* \"#utility.yul\":25403:25480   */\n      0x4e487b7100000000000000000000000000000000000000000000000000000000\n        /* \"#utility.yul\":25400:25401   */\n      0x00\n        /* \"#utility.yul\":25393:25481   */\n      mstore\n        /* \"#utility.yul\":25500:25504   */\n      0x41\n        /* \"#utility.yul\":25497:25498   */\n      0x04\n        /* \"#utility.yul\":25490:25505   */\n      mstore\n        /* \"#utility.yul\":25524:25528   */\n      0x24\n        /* \"#utility.yul\":25521:25522   */\n      0x00\n        /* \"#utility.yul\":25514:25529   */\n      revert\n        /* \"#utility.yul\":25541:25658   */\n    tag_346:\n        /* \"#utility.yul\":25650:25651   */\n      0x00\n        /* \"#utility.yul\":25647:25648   */\n      dup1\n        /* \"#utility.yul\":25640:25652   */\n      revert\n        /* \"#utility.yul\":25664:25781   */\n    tag_316:\n        /* \"#utility.yul\":25773:25774   */\n      0x00\n        /* \"#utility.yul\":25770:25771   */\n      dup1\n        /* \"#utility.yul\":25763:25775   */\n      revert\n        /* \"#utility.yul\":25787:25904   */\n    tag_381:\n        /* \"#utility.yul\":25896:25897   */\n      0x00\n        /* \"#utility.yul\":25893:25894   */\n      dup1\n        /* \"#utility.yul\":25886:25898   */\n      revert\n        /* \"#utility.yul\":25910:26027   */\n    tag_360:\n        /* \"#utility.yul\":26019:26020   */\n      0x00\n        /* \"#utility.yul\":26016:26017   */\n      dup1\n        /* \"#utility.yul\":26009:26021   */\n      revert\n        /* \"#utility.yul\":26033:26135   */\n    tag_428:\n        /* \"#utility.yul\":26074:26080   */\n      0x00\n        /* \"#utility.yul\":26125:26127   */\n      0x1f\n        /* \"#utility.yul\":26121:26128   */\n      not\n        /* \"#utility.yul\":26116:26118   */\n      0x1f\n        /* \"#utility.yul\":26109:26114   */\n      dup4\n        /* \"#utility.yul\":26105:26119   */\n      add\n        /* \"#utility.yul\":26101:26129   */\n      and\n        /* \"#utility.yul\":26091:26129   */\n      swap1\n      pop\n        /* \"#utility.yul\":26081:26135   */\n      swap2\n      swap1\n      pop\n      jump\t// out\n        /* \"#utility.yul\":26141:26378   */\n    tag_447:\n        /* \"#utility.yul\":26281:26315   */\n      0x4552433732313a207472616e7366657220746f206e6f6e204552433732315265\n        /* \"#utility.yul\":26277:26278   */\n      0x00\n        /* \"#utility.yul\":26269:26275   */\n      dup3\n        /* \"#utility.yul\":26265:26279   */\n      add\n        /* \"#utility.yul\":26258:26316   */\n      mstore\n        /* \"#utility.yul\":26350:26370   */\n      0x63656976657220696d706c656d656e7465720000000000000000000000000000\n        /* \"#utility.yul\":26345:26347   */\n      0x20\n        /* \"#utility.yul\":26337:26343   */\n      dup3\n        /* \"#utility.yul\":26333:26348   */\n      add\n        /* \"#utility.yul\":26326:26371   */\n      mstore\n        /* \"#utility.yul\":26247:26378   */\n      pop\n      jump\t// out\n        /* \"#utility.yul\":26384:26608   */\n    tag_452:\n        /* \"#utility.yul\":26524:26558   */\n      0x4552433732313a207472616e736665722066726f6d20696e636f727265637420\n        /* \"#utility.yul\":26520:26521   */\n      0x00\n        /* \"#utility.yul\":26512:26518   */\n      dup3\n        /* \"#utility.yul\":26508:26522   */\n      add\n        /* \"#utility.yul\":26501:26559   */\n      mstore\n        /* \"#utility.yul\":26593:26600   */\n      0x6f776e6572000000000000000000000000000000000000000000000000000000\n        /* \"#utility.yul\":26588:26590   */\n      0x20\n        /* \"#utility.yul\":26580:26586   */\n      dup3\n        /* \"#utility.yul\":26576:26591   */\n      add\n        /* \"#utility.yul\":26569:26601   */\n      mstore\n        /* \"#utility.yul\":26490:26608   */\n      pop\n      jump\t// out\n        /* \"#utility.yul\":26614:26792   */\n    tag_457:\n        /* \"#utility.yul\":26754:26784   */\n      0x4552433732313a20746f6b656e20616c7265616479206d696e74656400000000\n        /* \"#utility.yul\":26750:26751   */\n      0x00\n        /* \"#utility.yul\":26742:26748   */\n      dup3\n        /* \"#utility.yul\":26738:26752   */\n      add\n        /* \"#utility.yul\":26731:26785   */\n      mstore\n        /* \"#utility.yul\":26720:26792   */\n      pop\n      jump\t// out\n        /* \"#utility.yul\":26798:27021   */\n    tag_462:\n        /* \"#utility.yul\":26938:26972   */\n      0x4552433732313a207472616e7366657220746f20746865207a65726f20616464\n        /* \"#utility.yul\":26934:26935   */\n      0x00\n        /* \"#utility.yul\":26926:26932   */\n      dup3\n        /* \"#utility.yul\":26922:26936   */\n      add\n        /* \"#utility.yul\":26915:26973   */\n      mstore\n        /* \"#utility.yul\":27007:27013   */\n      0x7265737300000000000000000000000000000000000000000000000000000000\n        /* \"#utility.yul\":27002:27004   */\n      0x20\n        /* \"#utility.yul\":26994:27000   */\n      dup3\n        /* \"#utility.yul\":26990:27005   */\n      add\n        /* \"#utility.yul\":26983:27014   */\n      mstore\n        /* \"#utility.yul\":26904:27021   */\n      pop\n      jump\t// out\n        /* \"#utility.yul\":27027:27202   */\n    tag_467:\n        /* \"#utility.yul\":27167:27194   */\n      0x4552433732313a20617070726f766520746f2063616c6c657200000000000000\n        /* \"#utility.yul\":27163:27164   */\n      0x00\n        /* \"#utility.yul\":27155:27161   */\n      dup3\n        /* \"#utility.yul\":27151:27165   */\n      add\n        /* \"#utility.yul\":27144:27195   */\n      mstore\n        /* \"#utility.yul\":27133:27202   */\n      pop\n      jump\t// out\n        /* \"#utility.yul\":27208:27373   */\n    tag_472:\n        /* \"#utility.yul\":27348:27365   */\n      0x656d70747920746f6b656e205552490000000000000000000000000000000000\n        /* \"#utility.yul\":27344:27345   */\n      0x00\n        /* \"#utility.yul\":27336:27342   */\n      dup3\n        /* \"#utility.yul\":27332:27346   */\n      add\n        /* \"#utility.yul\":27325:27366   */\n      mstore\n        /* \"#utility.yul\":27314:27373   */\n      pop\n      jump\t// out\n        /* \"#utility.yul\":27379:27607   */\n    tag_477:\n        /* \"#utility.yul\":27519:27553   */\n      0x4552433732313a2061646472657373207a65726f206973206e6f742061207661\n        /* \"#utility.yul\":27515:27516   */\n      0x00\n        /* \"#utility.yul\":27507:27513   */\n      dup3\n        /* \"#utility.yul\":27503:27517   */\n      add\n        /* \"#utility.yul\":27496:27554   */\n      mstore\n        /* \"#utility.yul\":27588:27599   */\n      0x6c6964206f776e65720000000000000000000000000000000000000000000000\n        /* \"#utility.yul\":27583:27585   */\n      0x20\n        /* \"#utility.yul\":27575:27581   */\n      dup3\n        /* \"#utility.yul\":27571:27586   */\n      add\n        /* \"#utility.yul\":27564:27600   */\n      mstore\n        /* \"#utility.yul\":27485:27607   */\n      pop\n      jump\t// out\n        /* \"#utility.yul\":27613:27862   */\n    tag_482:\n        /* \"#utility.yul\":27753:27787   */\n      0x4552433732313a20617070726f76652063616c6c6572206973206e6f7420746f\n        /* \"#utility.yul\":27749:27750   */\n      0x00\n        /* \"#utility.yul\":27741:27747   */\n      dup3\n        /* \"#utility.yul\":27737:27751   */\n      add\n        /* \"#utility.yul\":27730:27788   */\n      mstore\n        /* \"#utility.yul\":27822:27854   */\n      0x6b656e206f776e6572206e6f7220617070726f76656420666f7220616c6c0000\n        /* \"#utility.yul\":27817:27819   */\n      0x20\n        /* \"#utility.yul\":27809:27815   */\n      dup3\n        /* \"#utility.yul\":27805:27820   */\n      add\n        /* \"#utility.yul\":27798:27855   */\n      mstore\n        /* \"#utility.yul\":27719:27862   */\n      pop\n      jump\t// out\n        /* \"#utility.yul\":27868:28050   */\n    tag_487:\n        /* \"#utility.yul\":28008:28042   */\n      0x4552433732313a206d696e7420746f20746865207a65726f2061646472657373\n        /* \"#utility.yul\":28004:28005   */\n      0x00\n        /* \"#utility.yul\":27996:28002   */\n      dup3\n        /* \"#utility.yul\":27992:28006   */\n      add\n        /* \"#utility.yul\":27985:28043   */\n      mstore\n        /* \"#utility.yul\":27974:28050   */\n      pop\n      jump\t// out\n        /* \"#utility.yul\":28056:28230   */\n    tag_492:\n        /* \"#utility.yul\":28196:28222   */\n      0x4552433732313a20696e76616c696420746f6b656e2049440000000000000000\n        /* \"#utility.yul\":28192:28193   */\n      0x00\n        /* \"#utility.yul\":28184:28190   */\n      dup3\n        /* \"#utility.yul\":28180:28194   */\n      add\n        /* \"#utility.yul\":28173:28223   */\n      mstore\n        /* \"#utility.yul\":28162:28230   */\n      pop\n      jump\t// out\n        /* \"#utility.yul\":28236:28456   */\n    tag_497:\n        /* \"#utility.yul\":28376:28410   */\n      0x4552433732313a20617070726f76616c20746f2063757272656e74206f776e65\n        /* \"#utility.yul\":28372:28373   */\n      0x00\n        /* \"#utility.yul\":28364:28370   */\n      dup3\n        /* \"#utility.yul\":28360:28374   */\n      add\n        /* \"#utility.yul\":28353:28411   */\n      mstore\n        /* \"#utility.yul\":28445:28448   */\n      0x7200000000000000000000000000000000000000000000000000000000000000\n        /* \"#utility.yul\":28440:28442   */\n      0x20\n        /* \"#utility.yul\":28432:28438   */\n      dup3\n        /* \"#utility.yul\":28428:28443   */\n      add\n        /* \"#utility.yul\":28421:28449   */\n      mstore\n        /* \"#utility.yul\":28342:28456   */\n      pop\n      jump\t// out\n        /* \"#utility.yul\":28462:28695   */\n    tag_502:\n        /* \"#utility.yul\":28602:28636   */\n      0x4552433732313a2063616c6c6572206973206e6f7420746f6b656e206f776e65\n        /* \"#utility.yul\":28598:28599   */\n      0x00\n        /* \"#utility.yul\":28590:28596   */\n      dup3\n        /* \"#utility.yul\":28586:28600   */\n      add\n        /* \"#utility.yul\":28579:28637   */\n      mstore\n        /* \"#utility.yul\":28671:28687   */\n      0x72206e6f7220617070726f766564000000000000000000000000000000000000\n        /* \"#utility.yul\":28666:28668   */\n      0x20\n        /* \"#utility.yul\":28658:28664   */\n      dup3\n        /* \"#utility.yul\":28654:28669   */\n      add\n        /* \"#utility.yul\":28647:28688   */\n      mstore\n        /* \"#utility.yul\":28568:28695   */\n      pop\n      jump\t// out\n        /* \"#utility.yul\":28701:28823   */\n    tag_330:\n        /* \"#utility.yul\":28774:28798   */\n      tag_638\n        /* \"#utility.yul\":28792:28797   */\n      dup2\n        /* \"#utility.yul\":28774:28798   */\n      tag_414\n      jump\t// in\n    tag_638:\n        /* \"#utility.yul\":28767:28772   */\n      dup2\n        /* \"#utility.yul\":28764:28799   */\n      eq\n        /* \"#utility.yul\":28754:28756   */\n      tag_639\n      jumpi\n        /* \"#utility.yul\":28813:28814   */\n      0x00\n        /* \"#utility.yul\":28810:28811   */\n      dup1\n        /* \"#utility.yul\":28803:28815   */\n      revert\n        /* \"#utility.yul\":28754:28756   */\n    tag_639:\n        /* \"#utility.yul\":28744:28823   */\n      pop\n      jump\t// out\n        /* \"#utility.yul\":28829:28945   */\n    tag_334:\n        /* \"#utility.yul\":28899:28920   */\n      tag_641\n        /* \"#utility.yul\":28914:28919   */\n      dup2\n        /* \"#utility.yul\":28899:28920   */\n      tag_418\n      jump\t// in\n    tag_641:\n        /* \"#utility.yul\":28892:28897   */\n      dup2\n        /* \"#utility.yul\":28889:28921   */\n      eq\n        /* \"#utility.yul\":28879:28881   */\n      tag_642\n      jumpi\n        /* \"#utility.yul\":28935:28936   */\n      0x00\n        /* \"#utility.yul\":28932:28933   */\n      dup1\n        /* \"#utility.yul\":28925:28937   */\n      revert\n        /* \"#utility.yul\":28879:28881   */\n    tag_642:\n        /* \"#utility.yul\":28869:28945   */\n      pop\n      jump\t// out\n        /* \"#utility.yul\":28951:29071   */\n    tag_338:\n        /* \"#utility.yul\":29023:29046   */\n      tag_644\n        /* \"#utility.yul\":29040:29045   */\n      dup2\n        /* \"#utility.yul\":29023:29046   */\n      tag_587\n      jump\t// in\n    tag_644:\n        /* \"#utility.yul\":29016:29021   */\n      dup2\n        /* \"#utility.yul\":29013:29047   */\n      eq\n        /* \"#utility.yul\":29003:29005   */\n      tag_645\n      jumpi\n        /* \"#utility.yul\":29061:29062   */\n      0x00\n        /* \"#utility.yul\":29058:29059   */\n      dup1\n        /* \"#utility.yul\":29051:29063   */\n      revert\n        /* \"#utility.yul\":29003:29005   */\n    tag_645:\n        /* \"#utility.yul\":28993:29071   */\n      pop\n      jump\t// out\n        /* \"#utility.yul\":29077:29199   */\n    tag_356:\n        /* \"#utility.yul\":29150:29174   */\n      tag_647\n        /* \"#utility.yul\":29168:29173   */\n      dup2\n        /* \"#utility.yul\":29150:29174   */\n      tag_506\n      jump\t// in\n    tag_647:\n        /* \"#utility.yul\":29143:29148   */\n      dup2\n        /* \"#utility.yul\":29140:29175   */\n      eq\n        /* \"#utility.yul\":29130:29132   */\n      tag_648\n      jumpi\n        /* \"#utility.yul\":29189:29190   */\n      0x00\n        /* \"#utility.yul\":29186:29187   */\n      dup1\n        /* \"#utility.yul\":29179:29191   */\n      revert\n        /* \"#utility.yul\":29130:29132   */\n    tag_648:\n        /* \"#utility.yul\":29120:29199   */\n      pop\n      jump\t// out\n\n    auxdata: 0xa2646970667358221220bb749dfb3be393c1d26bec10c3cdc7853788391ad9c942bc6fabbdf7211ba02364736f6c63430008060033\n}\n",
				"bytecode": {
					"linkReferences": {},
					"object": "60806040523480156200001157600080fd5b506040518060400160405280600681526020017f446f6767696500000000000000000000000000000000000000000000000000008152506040518060400160405280600381526020017f446f670000000000000000000000000000000000000000000000000000000000815250816000908051906020019062000096929190620000c0565b508060019080519060200190620000af929190620000c0565b5050506000600681905550620001d5565b828054620000ce9062000170565b90600052602060002090601f016020900481019282620000f257600085556200013e565b82601f106200010d57805160ff19168380011785556200013e565b828001600101855582156200013e579182015b828111156200013d57825182559160200191906001019062000120565b5b5090506200014d919062000151565b5090565b5b808211156200016c57600081600090555060010162000152565b5090565b600060028204905060018216806200018957607f821691505b60208210811415620001a0576200019f620001a6565b5b50919050565b7f4e487b7100000000000000000000000000000000000000000000000000000000600052602260045260246000fd5b6128a480620001e56000396000f3fe608060405234801561001057600080fd5b50600436106100f55760003560e01c806342842e0e11610097578063a22cb46511610066578063a22cb465146102aa578063b88d4fde146102c6578063c87b56dd146102e2578063e985e9c514610312576100f5565b806342842e0e146102105780636352211e1461022c57806370a082311461025c57806395d89b411461028c576100f5565b8063095ea7b3116100d3578063095ea7b31461017857806323b872dd1461019457806331f1f3c3146101b05780633bb3a24d146101e0576100f5565b806301ffc9a7146100fa57806306fdde031461012a578063081812fc14610148575b600080fd5b610114600480360381019061010f9190611b4d565b610342565b6040516101219190611f1c565b60405180910390f35b610132610424565b60405161013f9190611f37565b60405180910390f35b610162600480360381019061015d9190611bf0565b6104b6565b60405161016f9190611eb5565b60405180910390f35b610192600480360381019061018d9190611b0d565b6104fc565b005b6101ae60048036038101906101a991906119f7565b610614565b005b6101ca60048036038101906101c59190611ba7565b610674565b6040516101d791906120d9565b60405180910390f35b6101fa60048036038101906101f59190611bf0565b6106af565b6040516102079190611f37565b60405180910390f35b61022a600480360381019061022591906119f7565b61075e565b005b61024660048036038101906102419190611bf0565b61077e565b6040516102539190611eb5565b60405180910390f35b6102766004803603810190610271919061198a565b610830565b60405161028391906120d9565b60405180910390f35b6102946108e8565b6040516102a19190611f37565b60405180910390f35b6102c460048036038101906102bf9190611acd565b61097a565b005b6102e060048036038101906102db9190611a4a565b610990565b005b6102fc60048036038101906102f79190611bf0565b6109f2565b6040516103099190611f37565b60405180910390f35b61032c600480360381019061032791906119b7565b610a5a565b6040516103399190611f1c565b60405180910390f35b60007f80ac58cd000000000000000000000000000000000000000000000000000000007bffffffffffffffffffffffffffffffffffffffffffffffffffffffff1916827bffffffffffffffffffffffffffffffffffffffffffffffffffffffff1916148061040d57507f5b5e139f000000000000000000000000000000000000000000000000000000007bffffffffffffffffffffffffffffffffffffffffffffffffffffffff1916827bffffffffffffffffffffffffffffffffffffffffffffffffffffffff1916145b8061041d575061041c82610aee565b5b9050919050565b6060600080546104339061232f565b80601f016020809104026020016040519081016040528092919081815260200182805461045f9061232f565b80156104ac5780601f10610481576101008083540402835291602001916104ac565b820191906000526020600020905b81548152906001019060200180831161048f57829003601f168201915b5050505050905090565b60006104c182610b58565b6004600083815260200190815260200160002060009054906101000a900473ffffffffffffffffffffffffffffffffffffffff169050919050565b60006105078261077e565b90508073ffffffffffffffffffffffffffffffffffffffff168373ffffffffffffffffffffffffffffffffffffffff161415610578576040517f08c379a000000000000000000000000000000000000000000000000000000000815260040161056f90612099565b60405180910390fd5b8073ffffffffffffffffffffffffffffffffffffffff16610597610ba3565b73ffffffffffffffffffffffffffffffffffffffff1614806105c657506105c5816105c0610ba3565b610a5a565b5b610605576040517f08c379a00000000000000000000000000000000000000000000000000000000081526004016105fc90612039565b60405180910390fd5b61060f8383610bab565b505050565b61062561061f610ba3565b82610c64565b610664576040517f08c379a000000000000000000000000000000000000000000000000000000000815260040161065b906120b9565b60405180910390fd5b61066f838383610cf9565b505050565b60008060065490506106863382610f60565b6106908184610f7e565b60066000815461069f90612392565b9190508190555080915050919050565b60606106ba82610ff8565b506007600083815260200190815260200160002080546106d99061232f565b80601f01602080910402602001604051908101604052809291908181526020018280546107059061232f565b80156107525780601f1061072757610100808354040283529160200191610752565b820191906000526020600020905b81548152906001019060200180831161073557829003601f168201915b50505050509050919050565b61077983838360405180602001604052806000815250610990565b505050565b6000806002600084815260200190815260200160002060009054906101000a900473ffffffffffffffffffffffffffffffffffffffff169050600073ffffffffffffffffffffffffffffffffffffffff168173ffffffffffffffffffffffffffffffffffffffff161415610827576040517f08c379a000000000000000000000000000000000000000000000000000000000815260040161081e90612079565b60405180910390fd5b80915050919050565b60008073ffffffffffffffffffffffffffffffffffffffff168273ffffffffffffffffffffffffffffffffffffffff1614156108a1576040517f08c379a000000000000000000000000000000000000000000000000000000000815260040161089890612019565b60405180910390fd5b600360008373ffffffffffffffffffffffffffffffffffffffff1673ffffffffffffffffffffffffffffffffffffffff168152602001908152602001600020549050919050565b6060600180546108f79061232f565b80601f01602080910402602001604051908101604052809291908181526020018280546109239061232f565b80156109705780601f1061094557610100808354040283529160200191610970565b820191906000526020600020905b81548152906001019060200180831161095357829003601f168201915b5050505050905090565b61098c610985610ba3565b8383611064565b5050565b6109a161099b610ba3565b83610c64565b6109e0576040517f08c379a00000000000000000000000000000000000000000000000000000000081526004016109d7906120b9565b60405180910390fd5b6109ec848484846111d1565b50505050565b60606109fd82610b58565b6000610a0761122d565b90506000815111610a275760405180602001604052806000815250610a52565b80610a3184611244565b604051602001610a42929190611e91565b6040516020818303038152906040525b915050919050565b6000600560008473ffffffffffffffffffffffffffffffffffffffff1673ffffffffffffffffffffffffffffffffffffffff16815260200190815260200160002060008373ffffffffffffffffffffffffffffffffffffffff1673ffffffffffffffffffffffffffffffffffffffff16815260200190815260200160002060009054906101000a900460ff16905092915050565b60007f01ffc9a7000000000000000000000000000000000000000000000000000000007bffffffffffffffffffffffffffffffffffffffffffffffffffffffff1916827bffffffffffffffffffffffffffffffffffffffffffffffffffffffff1916149050919050565b610b6181610ff8565b610ba0576040517f08c379a0000000000000000000000000000000000000000000000000000000008152600401610b9790612079565b60405180910390fd5b50565b600033905090565b816004600083815260200190815260200160002060006101000a81548173ffffffffffffffffffffffffffffffffffffffff021916908373ffffffffffffffffffffffffffffffffffffffff160217905550808273ffffffffffffffffffffffffffffffffffffffff16610c1e8361077e565b73ffffffffffffffffffffffffffffffffffffffff167f8c5be1e5ebec7d5bd14f71427d1e84f3dd0314c0f7b2291e5b200ac8c7c3b92560405160405180910390a45050565b600080610c708361077e565b90508073ffffffffffffffffffffffffffffffffffffffff168473ffffffffffffffffffffffffffffffffffffffff161480610cb25750610cb18185610a5a565b5b80610cf057508373ffffffffffffffffffffffffffffffffffffffff16610cd8846104b6565b73ffffffffffffffffffffffffffffffffffffffff16145b91505092915050565b8273ffffffffffffffffffffffffffffffffffffffff16610d198261077e565b73ffffffffffffffffffffffffffffffffffffffff1614610d6f576040517f08c379a0000000000000000000000000000000000000000000000000000000008152600401610d6690611f79565b60405180910390fd5b600073ffffffffffffffffffffffffffffffffffffffff168273ffffffffffffffffffffffffffffffffffffffff161415610ddf576040517f08c379a0000000000000000000000000000000000000000000000000000000008152600401610dd690611fb9565b60405180910390fd5b610dea8383836113a5565b610df5600082610bab565b6001600360008573ffffffffffffffffffffffffffffffffffffffff1673ffffffffffffffffffffffffffffffffffffffff1681526020019081526020016000206000828254610e459190612245565b925050819055506001600360008473ffffffffffffffffffffffffffffffffffffffff1673ffffffffffffffffffffffffffffffffffffffff1681526020019081526020016000206000828254610e9c91906121be565b92505081905550816002600083815260200190815260200160002060006101000a81548173ffffffffffffffffffffffffffffffffffffffff021916908373ffffffffffffffffffffffffffffffffffffffff160217905550808273ffffffffffffffffffffffffffffffffffffffff168473ffffffffffffffffffffffffffffffffffffffff167fddf252ad1be2c89b69c2b068fc378daa952ba7f163c4a11628f55a4df523b3ef60405160405180910390a4610f5b8383836113aa565b505050565b610f7a8282604051806020016040528060008152506113af565b5050565b610f8782610ff8565b506000815111610fcc576040517f08c379a0000000000000000000000000000000000000000000000000000000008152600401610fc390611ff9565b60405180910390fd5b80600760008481526020019081526020016000209080519060200190610ff392919061179e565b505050565b60008073ffffffffffffffffffffffffffffffffffffffff166002600084815260200190815260200160002060009054906101000a900473ffffffffffffffffffffffffffffffffffffffff1673ffffffffffffffffffffffffffffffffffffffff1614159050919050565b8173ffffffffffffffffffffffffffffffffffffffff168373ffffffffffffffffffffffffffffffffffffffff1614156110d3576040517f08c379a00000000000000000000000000000000000000000000000000000000081526004016110ca90611fd9565b60405180910390fd5b80600560008573ffffffffffffffffffffffffffffffffffffffff1673ffffffffffffffffffffffffffffffffffffffff16815260200190815260200160002060008473ffffffffffffffffffffffffffffffffffffffff1673ffffffffffffffffffffffffffffffffffffffff16815260200190815260200160002060006101000a81548160ff0219169083151502179055508173ffffffffffffffffffffffffffffffffffffffff168373ffffffffffffffffffffffffffffffffffffffff167f17307eab39ab6107e8899845ad3d59bd9653f200f220920489ca2b5937696c31836040516111c49190611f1c565b60405180910390a3505050565b6111dc848484610cf9565b6111e88484848461140a565b611227576040517f08c379a000000000000000000000000000000000000000000000000000000000815260040161121e90611f59565b60405180910390fd5b50505050565b606060405180602001604052806000815250905090565b6060600082141561128c576040518060400160405280600181526020017f300000000000000000000000000000000000000000000000000000000000000081525090506113a0565b600082905060005b600082146112be5780806112a790612392565b915050600a826112b79190612214565b9150611294565b60008167ffffffffffffffff8111156112da576112d96124c8565b5b6040519080825280601f01601f19166020018201604052801561130c5781602001600182028036833780820191505090505b5090505b60008514611399576001826113259190612245565b9150600a8561133491906123db565b603061134091906121be565b60f81b81838151811061135657611355612499565b5b60200101907effffffffffffffffffffffffffffffffffffffffffffffffffffffffffffff1916908160001a905350600a856113929190612214565b9450611310565b8093505050505b919050565b505050565b505050565b6113b983836115a1565b6113c6600084848461140a565b611405576040517f08c379a00000000000000000000000000000000000000000000000000000000081526004016113fc90611f59565b60405180910390fd5b505050565b600061142b8473ffffffffffffffffffffffffffffffffffffffff1661177b565b15611594578373ffffffffffffffffffffffffffffffffffffffff1663150b7a02611454610ba3565b8786866040518563ffffffff1660e01b81526004016114769493929190611ed0565b602060405180830381600087803b15801561149057600080fd5b505af19250505080156114c157506040513d601f19601f820116820180604052508101906114be9190611b7a565b60015b611544573d80600081146114f1576040519150601f19603f3d011682016040523d82523d6000602084013e6114f6565b606091505b5060008151141561153c576040517f08c379a000000000000000000000000000000000000000000000000000000000815260040161153390611f59565b60405180910390fd5b805181602001fd5b63150b7a0260e01b7bffffffffffffffffffffffffffffffffffffffffffffffffffffffff1916817bffffffffffffffffffffffffffffffffffffffffffffffffffffffff191614915050611599565b600190505b949350505050565b600073ffffffffffffffffffffffffffffffffffffffff168273ffffffffffffffffffffffffffffffffffffffff161415611611576040517f08c379a000000000000000000000000000000000000000000000000000000000815260040161160890612059565b60405180910390fd5b61161a81610ff8565b1561165a576040517f08c379a000000000000000000000000000000000000000000000000000000000815260040161165190611f99565b60405180910390fd5b611666600083836113a5565b6001600360008473ffffffffffffffffffffffffffffffffffffffff1673ffffffffffffffffffffffffffffffffffffffff16815260200190815260200160002060008282546116b691906121be565b92505081905550816002600083815260200190815260200160002060006101000a81548173ffffffffffffffffffffffffffffffffffffffff021916908373ffffffffffffffffffffffffffffffffffffffff160217905550808273ffffffffffffffffffffffffffffffffffffffff16600073ffffffffffffffffffffffffffffffffffffffff167fddf252ad1be2c89b69c2b068fc378daa952ba7f163c4a11628f55a4df523b3ef60405160405180910390a4611777600083836113aa565b5050565b6000808273ffffffffffffffffffffffffffffffffffffffff163b119050919050565b8280546117aa9061232f565b90600052602060002090601f0160209004810192826117cc5760008555611813565b82601f106117e557805160ff1916838001178555611813565b82800160010185558215611813579182015b828111156118125782518255916020019190600101906117f7565b5b5090506118209190611824565b5090565b5b8082111561183d576000816000905550600101611825565b5090565b600061185461184f84612119565b6120f4565b9050828152602081018484840111156118705761186f6124fc565b5b61187b8482856122ed565b509392505050565b60006118966118918461214a565b6120f4565b9050828152602081018484840111156118b2576118b16124fc565b5b6118bd8482856122ed565b509392505050565b6000813590506118d481612812565b92915050565b6000813590506118e981612829565b92915050565b6000813590506118fe81612840565b92915050565b60008151905061191381612840565b92915050565b600082601f83011261192e5761192d6124f7565b5b813561193e848260208601611841565b91505092915050565b600082601f83011261195c5761195b6124f7565b5b813561196c848260208601611883565b91505092915050565b60008135905061198481612857565b92915050565b6000602082840312156119a05761199f612506565b5b60006119ae848285016118c5565b91505092915050565b600080604083850312156119ce576119cd612506565b5b60006119dc858286016118c5565b92505060206119ed858286016118c5565b9150509250929050565b600080600060608486031215611a1057611a0f612506565b5b6000611a1e868287016118c5565b9350506020611a2f868287016118c5565b9250506040611a4086828701611975565b9150509250925092565b60008060008060808587031215611a6457611a63612506565b5b6000611a72878288016118c5565b9450506020611a83878288016118c5565b9350506040611a9487828801611975565b925050606085013567ffffffffffffffff811115611ab557611ab4612501565b5b611ac187828801611919565b91505092959194509250565b60008060408385031215611ae457611ae3612506565b5b6000611af2858286016118c5565b9250506020611b03858286016118da565b9150509250929050565b60008060408385031215611b2457611b23612506565b5b6000611b32858286016118c5565b9250506020611b4385828601611975565b9150509250929050565b600060208284031215611b6357611b62612506565b5b6000611b71848285016118ef565b91505092915050565b600060208284031215611b9057611b8f612506565b5b6000611b9e84828501611904565b91505092915050565b600060208284031215611bbd57611bbc612506565b5b600082013567ffffffffffffffff811115611bdb57611bda612501565b5b611be784828501611947565b91505092915050565b600060208284031215611c0657611c05612506565b5b6000611c1484828501611975565b91505092915050565b611c2681612279565b82525050565b611c358161228b565b82525050565b6000611c468261217b565b611c508185612191565b9350611c608185602086016122fc565b611c698161250b565b840191505092915050565b6000611c7f82612186565b611c8981856121a2565b9350611c998185602086016122fc565b611ca28161250b565b840191505092915050565b6000611cb882612186565b611cc281856121b3565b9350611cd28185602086016122fc565b80840191505092915050565b6000611ceb6032836121a2565b9150611cf68261251c565b604082019050919050565b6000611d0e6025836121a2565b9150611d198261256b565b604082019050919050565b6000611d31601c836121a2565b9150611d3c826125ba565b602082019050919050565b6000611d546024836121a2565b9150611d5f826125e3565b604082019050919050565b6000611d776019836121a2565b9150611d8282612632565b602082019050919050565b6000611d9a600f836121a2565b9150611da58261265b565b602082019050919050565b6000611dbd6029836121a2565b9150611dc882612684565b604082019050919050565b6000611de0603e836121a2565b9150611deb826126d3565b604082019050919050565b6000611e036020836121a2565b9150611e0e82612722565b602082019050919050565b6000611e266018836121a2565b9150611e318261274b565b602082019050919050565b6000611e496021836121a2565b9150611e5482612774565b604082019050919050565b6000611e6c602e836121a2565b9150611e77826127c3565b604082019050919050565b611e8b816122e3565b82525050565b6000611e9d8285611cad565b9150611ea98284611cad565b91508190509392505050565b6000602082019050611eca6000830184611c1d565b92915050565b6000608082019050611ee56000830187611c1d565b611ef26020830186611c1d565b611eff6040830185611e82565b8181036060830152611f118184611c3b565b905095945050505050565b6000602082019050611f316000830184611c2c565b92915050565b60006020820190508181036000830152611f518184611c74565b905092915050565b60006020820190508181036000830152611f7281611cde565b9050919050565b60006020820190508181036000830152611f9281611d01565b9050919050565b60006020820190508181036000830152611fb281611d24565b9050919050565b60006020820190508181036000830152611fd281611d47565b9050919050565b60006020820190508181036000830152611ff281611d6a565b9050919050565b6000602082019050818103600083015261201281611d8d565b9050919050565b6000602082019050818103600083015261203281611db0565b9050919050565b6000602082019050818103600083015261205281611dd3565b9050919050565b6000602082019050818103600083015261207281611df6565b9050919050565b6000602082019050818103600083015261209281611e19565b9050919050565b600060208201905081810360008301526120b281611e3c565b9050919050565b600060208201905081810360008301526120d281611e5f565b9050919050565b60006020820190506120ee6000830184611e82565b92915050565b60006120fe61210f565b905061210a8282612361565b919050565b6000604051905090565b600067ffffffffffffffff821115612134576121336124c8565b5b61213d8261250b565b9050602081019050919050565b600067ffffffffffffffff821115612165576121646124c8565b5b61216e8261250b565b9050602081019050919050565b600081519050919050565b600081519050919050565b600082825260208201905092915050565b600082825260208201905092915050565b600081905092915050565b60006121c9826122e3565b91506121d4836122e3565b9250827fffffffffffffffffffffffffffffffffffffffffffffffffffffffffffffffff038211156122095761220861240c565b5b828201905092915050565b600061221f826122e3565b915061222a836122e3565b92508261223a5761223961243b565b5b828204905092915050565b6000612250826122e3565b915061225b836122e3565b92508282101561226e5761226d61240c565b5b828203905092915050565b6000612284826122c3565b9050919050565b60008115159050919050565b60007fffffffff0000000000000000000000000000000000000000000000000000000082169050919050565b600073ffffffffffffffffffffffffffffffffffffffff82169050919050565b6000819050919050565b82818337600083830152505050565b60005b8381101561231a5780820151818401526020810190506122ff565b83811115612329576000848401525b50505050565b6000600282049050600182168061234757607f821691505b6020821081141561235b5761235a61246a565b5b50919050565b61236a8261250b565b810181811067ffffffffffffffff82111715612389576123886124c8565b5b80604052505050565b600061239d826122e3565b91507fffffffffffffffffffffffffffffffffffffffffffffffffffffffffffffffff8214156123d0576123cf61240c565b5b600182019050919050565b60006123e6826122e3565b91506123f1836122e3565b9250826124015761240061243b565b5b828206905092915050565b7f4e487b7100000000000000000000000000000000000000000000000000000000600052601160045260246000fd5b7f4e487b7100000000000000000000000000000000000000000000000000000000600052601260045260246000fd5b7f4e487b7100000000000000000000000000000000000000000000000000000000600052602260045260246000fd5b7f4e487b7100000000000000000000000000000000000000000000000000000000600052603260045260246000fd5b7f4e487b7100000000000000000000000000000000000000000000000000000000600052604160045260246000fd5b600080fd5b600080fd5b600080fd5b600080fd5b6000601f19601f8301169050919050565b7f4552433732313a207472616e7366657220746f206e6f6e20455243373231526560008201527f63656976657220696d706c656d656e7465720000000000000000000000000000602082015250565b7f4552433732313a207472616e736665722066726f6d20696e636f72726563742060008201527f6f776e6572000000000000000000000000000000000000000000000000000000602082015250565b7f4552433732313a20746f6b656e20616c7265616479206d696e74656400000000600082015250565b7f4552433732313a207472616e7366657220746f20746865207a65726f2061646460008201527f7265737300000000000000000000000000000000000000000000000000000000602082015250565b7f4552433732313a20617070726f766520746f2063616c6c657200000000000000600082015250565b7f656d70747920746f6b656e205552490000000000000000000000000000000000600082015250565b7f4552433732313a2061646472657373207a65726f206973206e6f74206120766160008201527f6c6964206f776e65720000000000000000000000000000000000000000000000602082015250565b7f4552433732313a20617070726f76652063616c6c6572206973206e6f7420746f60008201527f6b656e206f776e6572206e6f7220617070726f76656420666f7220616c6c0000602082015250565b7f4552433732313a206d696e7420746f20746865207a65726f2061646472657373600082015250565b7f4552433732313a20696e76616c696420746f6b656e2049440000000000000000600082015250565b7f4552433732313a20617070726f76616c20746f2063757272656e74206f776e6560008201527f7200000000000000000000000000000000000000000000000000000000000000602082015250565b7f4552433732313a2063616c6c6572206973206e6f7420746f6b656e206f776e6560008201527f72206e6f7220617070726f766564000000000000000000000000000000000000602082015250565b61281b81612279565b811461282657600080fd5b50565b6128328161228b565b811461283d57600080fd5b50565b61284981612297565b811461285457600080fd5b50565b612860816122e3565b811461286b57600080fd5b5056fea2646970667358221220bb749dfb3be393c1d26bec10c3cdc7853788391ad9c942bc6fabbdf7211ba02364736f6c63430008060033",
					"opcodes": "PUSH1 0x80 PUSH1 0x40 MSTORE CALLVALUE DUP1 ISZERO PUSH3 0x11 JUMPI PUSH1 0x0 DUP1 REVERT JUMPDEST POP PUSH1 0x40 MLOAD DUP1 PUSH1 0x40 ADD PUSH1 0x40 MSTORE DUP1 PUSH1 0x6 DUP2 MSTORE PUSH1 0x20 ADD PUSH32 0x446F676769650000000000000000000000000000000000000000000000000000 DUP2 MSTORE POP PUSH1 0x40 MLOAD DUP1 PUSH1 0x40 ADD PUSH1 0x40 MSTORE DUP1 PUSH1 0x3 DUP2 MSTORE PUSH1 0x20 ADD PUSH32 0x446F670000000000000000000000000000000000000000000000000000000000 DUP2 MSTORE POP DUP2 PUSH1 0x0 SWAP1 DUP1 MLOAD SWAP1 PUSH1 0x20 ADD SWAP1 PUSH3 0x96 SWAP3 SWAP2 SWAP1 PUSH3 0xC0 JUMP JUMPDEST POP DUP1 PUSH1 0x1 SWAP1 DUP1 MLOAD SWAP1 PUSH1 0x20 ADD SWAP1 PUSH3 0xAF SWAP3 SWAP2 SWAP1 PUSH3 0xC0 JUMP JUMPDEST POP POP POP PUSH1 0x0 PUSH1 0x6 DUP2 SWAP1 SSTORE POP PUSH3 0x1D5 JUMP JUMPDEST DUP3 DUP1 SLOAD PUSH3 0xCE SWAP1 PUSH3 0x170 JUMP JUMPDEST SWAP1 PUSH1 0x0 MSTORE PUSH1 0x20 PUSH1 0x0 KECCAK256 SWAP1 PUSH1 0x1F ADD PUSH1 0x20 SWAP1 DIV DUP2 ADD SWAP3 DUP3 PUSH3 0xF2 JUMPI PUSH1 0x0 DUP6 SSTORE PUSH3 0x13E JUMP JUMPDEST DUP3 PUSH1 0x1F LT PUSH3 0x10D JUMPI DUP1 MLOAD PUSH1 0xFF NOT AND DUP4 DUP1 ADD OR DUP6 SSTORE PUSH3 0x13E JUMP JUMPDEST DUP3 DUP1 ADD PUSH1 0x1 ADD DUP6 SSTORE DUP3 ISZERO PUSH3 0x13E JUMPI SWAP2 DUP3 ADD JUMPDEST DUP3 DUP2 GT ISZERO PUSH3 0x13D JUMPI DUP3 MLOAD DUP3 SSTORE SWAP2 PUSH1 0x20 ADD SWAP2 SWAP1 PUSH1 0x1 ADD SWAP1 PUSH3 0x120 JUMP JUMPDEST JUMPDEST POP SWAP1 POP PUSH3 0x14D SWAP2 SWAP1 PUSH3 0x151 JUMP JUMPDEST POP SWAP1 JUMP JUMPDEST JUMPDEST DUP1 DUP3 GT ISZERO PUSH3 0x16C JUMPI PUSH1 0x0 DUP2 PUSH1 0x0 SWAP1 SSTORE POP PUSH1 0x1 ADD PUSH3 0x152 JUMP JUMPDEST POP SWAP1 JUMP JUMPDEST PUSH1 0x0 PUSH1 0x2 DUP3 DIV SWAP1 POP PUSH1 0x1 DUP3 AND DUP1 PUSH3 0x189 JUMPI PUSH1 0x7F DUP3 AND SWAP2 POP JUMPDEST PUSH1 0x20 DUP3 LT DUP2 EQ ISZERO PUSH3 0x1A0 JUMPI PUSH3 0x19F PUSH3 0x1A6 JUMP JUMPDEST JUMPDEST POP SWAP2 SWAP1 POP JUMP JUMPDEST PUSH32 0x4E487B7100000000000000000000000000000000000000000000000000000000 PUSH1 0x0 MSTORE PUSH1 0x22 PUSH1 0x4 MSTORE PUSH1 0x24 PUSH1 0x0 REVERT JUMPDEST PUSH2 0x28A4 DUP1 PUSH3 0x1E5 PUSH1 0x0 CODECOPY PUSH1 0x0 RETURN INVALID PUSH1 0x80 PUSH1 0x40 MSTORE CALLVALUE DUP1 ISZERO PUSH2 0x10 JUMPI PUSH1 0x0 DUP1 REVERT JUMPDEST POP PUSH1 0x4 CALLDATASIZE LT PUSH2 0xF5 JUMPI PUSH1 0x0 CALLDATALOAD PUSH1 0xE0 SHR DUP1 PUSH4 0x42842E0E GT PUSH2 0x97 JUMPI DUP1 PUSH4 0xA22CB465 GT PUSH2 0x66 JUMPI DUP1 PUSH4 0xA22CB465 EQ PUSH2 0x2AA JUMPI DUP1 PUSH4 0xB88D4FDE EQ PUSH2 0x2C6 JUMPI DUP1 PUSH4 0xC87B56DD EQ PUSH2 0x2E2 JUMPI DUP1 PUSH4 0xE985E9C5 EQ PUSH2 0x312 JUMPI PUSH2 0xF5 JUMP JUMPDEST DUP1 PUSH4 0x42842E0E EQ PUSH2 0x210 JUMPI DUP1 PUSH4 0x6352211E EQ PUSH2 0x22C JUMPI DUP1 PUSH4 0x70A08231 EQ PUSH2 0x25C JUMPI DUP1 PUSH4 0x95D89B41 EQ PUSH2 0x28C JUMPI PUSH2 0xF5 JUMP JUMPDEST DUP1 PUSH4 0x95EA7B3 GT PUSH2 0xD3 JUMPI DUP1 PUSH4 0x95EA7B3 EQ PUSH2 0x178 JUMPI DUP1 PUSH4 0x23B872DD EQ PUSH2 0x194 JUMPI DUP1 PUSH4 0x31F1F3C3 EQ PUSH2 0x1B0 JUMPI DUP1 PUSH4 0x3BB3A24D EQ PUSH2 0x1E0 JUMPI PUSH2 0xF5 JUMP JUMPDEST DUP1 PUSH4 0x1FFC9A7 EQ PUSH2 0xFA JUMPI DUP1 PUSH4 0x6FDDE03 EQ PUSH2 0x12A JUMPI DUP1 PUSH4 0x81812FC EQ PUSH2 0x148 JUMPI JUMPDEST PUSH1 0x0 DUP1 REVERT JUMPDEST PUSH2 0x114 PUSH1 0x4 DUP1 CALLDATASIZE SUB DUP2 ADD SWAP1 PUSH2 0x10F SWAP2 SWAP1 PUSH2 0x1B4D JUMP JUMPDEST PUSH2 0x342 JUMP JUMPDEST PUSH1 0x40 MLOAD PUSH2 0x121 SWAP2 SWAP1 PUSH2 0x1F1C JUMP JUMPDEST PUSH1 0x40 MLOAD DUP1 SWAP2 SUB SWAP1 RETURN JUMPDEST PUSH2 0x132 PUSH2 0x424 JUMP JUMPDEST PUSH1 0x40 MLOAD PUSH2 0x13F SWAP2 SWAP1 PUSH2 0x1F37 JUMP JUMPDEST PUSH1 0x40 MLOAD DUP1 SWAP2 SUB SWAP1 RETURN JUMPDEST PUSH2 0x162 PUSH1 0x4 DUP1 CALLDATASIZE SUB DUP2 ADD SWAP1 PUSH2 0x15D SWAP2 SWAP1 PUSH2 0x1BF0 JUMP JUMPDEST PUSH2 0x4B6 JUMP JUMPDEST PUSH1 0x40 MLOAD PUSH2 0x16F SWAP2 SWAP1 PUSH2 0x1EB5 JUMP JUMPDEST PUSH1 0x40 MLOAD DUP1 SWAP2 SUB SWAP1 RETURN JUMPDEST PUSH2 0x192 PUSH1 0x4 DUP1 CALLDATASIZE SUB DUP2 ADD SWAP1 PUSH2 0x18D SWAP2 SWAP1 PUSH2 0x1B0D JUMP JUMPDEST PUSH2 0x4FC JUMP JUMPDEST STOP JUMPDEST PUSH2 0x1AE PUSH1 0x4 DUP1 CALLDATASIZE SUB DUP2 ADD SWAP1 PUSH2 0x1A9 SWAP2 SWAP1 PUSH2 0x19F7 JUMP JUMPDEST PUSH2 0x614 JUMP JUMPDEST STOP JUMPDEST PUSH2 0x1CA PUSH1 0x4 DUP1 CALLDATASIZE SUB DUP2 ADD SWAP1 PUSH2 0x1C5 SWAP2 SWAP1 PUSH2 0x1BA7 JUMP JUMPDEST PUSH2 0x674 JUMP JUMPDEST PUSH1 0x40 MLOAD PUSH2 0x1D7 SWAP2 SWAP1 PUSH2 0x20D9 JUMP JUMPDEST PUSH1 0x40 MLOAD DUP1 SWAP2 SUB SWAP1 RETURN JUMPDEST PUSH2 0x1FA PUSH1 0x4 DUP1 CALLDATASIZE SUB DUP2 ADD SWAP1 PUSH2 0x1F5 SWAP2 SWAP1 PUSH2 0x1BF0 JUMP JUMPDEST PUSH2 0x6AF JUMP JUMPDEST PUSH1 0x40 MLOAD PUSH2 0x207 SWAP2 SWAP1 PUSH2 0x1F37 JUMP JUMPDEST PUSH1 0x40 MLOAD DUP1 SWAP2 SUB SWAP1 RETURN JUMPDEST PUSH2 0x22A PUSH1 0x4 DUP1 CALLDATASIZE SUB DUP2 ADD SWAP1 PUSH2 0x225 SWAP2 SWAP1 PUSH2 0x19F7 JUMP JUMPDEST PUSH2 0x75E JUMP JUMPDEST STOP JUMPDEST PUSH2 0x246 PUSH1 0x4 DUP1 CALLDATASIZE SUB DUP2 ADD SWAP1 PUSH2 0x241 SWAP2 SWAP1 PUSH2 0x1BF0 JUMP JUMPDEST PUSH2 0x77E JUMP JUMPDEST PUSH1 0x40 MLOAD PUSH2 0x253 SWAP2 SWAP1 PUSH2 0x1EB5 JUMP JUMPDEST PUSH1 0x40 MLOAD DUP1 SWAP2 SUB SWAP1 RETURN JUMPDEST PUSH2 0x276 PUSH1 0x4 DUP1 CALLDATASIZE SUB DUP2 ADD SWAP1 PUSH2 0x271 SWAP2 SWAP1 PUSH2 0x198A JUMP JUMPDEST PUSH2 0x830 JUMP JUMPDEST PUSH1 0x40 MLOAD PUSH2 0x283 SWAP2 SWAP1 PUSH2 0x20D9 JUMP JUMPDEST PUSH1 0x40 MLOAD DUP1 SWAP2 SUB SWAP1 RETURN JUMPDEST PUSH2 0x294 PUSH2 0x8E8 JUMP JUMPDEST PUSH1 0x40 MLOAD PUSH2 0x2A1 SWAP2 SWAP1 PUSH2 0x1F37 JUMP JUMPDEST PUSH1 0x40 MLOAD DUP1 SWAP2 SUB SWAP1 RETURN JUMPDEST PUSH2 0x2C4 PUSH1 0x4 DUP1 CALLDATASIZE SUB DUP2 ADD SWAP1 PUSH2 0x2BF SWAP2 SWAP1 PUSH2 0x1ACD JUMP JUMPDEST PUSH2 0x97A JUMP JUMPDEST STOP JUMPDEST PUSH2 0x2E0 PUSH1 0x4 DUP1 CALLDATASIZE SUB DUP2 ADD SWAP1 PUSH2 0x2DB SWAP2 SWAP1 PUSH2 0x1A4A JUMP JUMPDEST PUSH2 0x990 JUMP JUMPDEST STOP JUMPDEST PUSH2 0x2FC PUSH1 0x4 DUP1 CALLDATASIZE SUB DUP2 ADD SWAP1 PUSH2 0x2F7 SWAP2 SWAP1 PUSH2 0x1BF0 JUMP JUMPDEST PUSH2 0x9F2 JUMP JUMPDEST PUSH1 0x40 MLOAD PUSH2 0x309 SWAP2 SWAP1 PUSH2 0x1F37 JUMP JUMPDEST PUSH1 0x40 MLOAD DUP1 SWAP2 SUB SWAP1 RETURN JUMPDEST PUSH2 0x32C PUSH1 0x4 DUP1 CALLDATASIZE SUB DUP2 ADD SWAP1 PUSH2 0x327 SWAP2 SWAP1 PUSH2 0x19B7 JUMP JUMPDEST PUSH2 0xA5A JUMP JUMPDEST PUSH1 0x40 MLOAD PUSH2 0x339 SWAP2 SWAP1 PUSH2 0x1F1C JUMP JUMPDEST PUSH1 0x40 MLOAD DUP1 SWAP2 SUB SWAP1 RETURN JUMPDEST PUSH1 0x0 PUSH32 0x80AC58CD00000000000000000000000000000000000000000000000000000000 PUSH28 0xFFFFFFFFFFFFFFFFFFFFFFFFFFFFFFFFFFFFFFFFFFFFFFFFFFFFFFFF NOT AND DUP3 PUSH28 0xFFFFFFFFFFFFFFFFFFFFFFFFFFFFFFFFFFFFFFFFFFFFFFFFFFFFFFFF NOT AND EQ DUP1 PUSH2 0x40D JUMPI POP PUSH32 0x5B5E139F00000000000000000000000000000000000000000000000000000000 PUSH28 0xFFFFFFFFFFFFFFFFFFFFFFFFFFFFFFFFFFFFFFFFFFFFFFFFFFFFFFFF NOT AND DUP3 PUSH28 0xFFFFFFFFFFFFFFFFFFFFFFFFFFFFFFFFFFFFFFFFFFFFFFFFFFFFFFFF NOT AND EQ JUMPDEST DUP1 PUSH2 0x41D JUMPI POP PUSH2 0x41C DUP3 PUSH2 0xAEE JUMP JUMPDEST JUMPDEST SWAP1 POP SWAP2 SWAP1 POP JUMP JUMPDEST PUSH1 0x60 PUSH1 0x0 DUP1 SLOAD PUSH2 0x433 SWAP1 PUSH2 0x232F JUMP JUMPDEST DUP1 PUSH1 0x1F ADD PUSH1 0x20 DUP1 SWAP2 DIV MUL PUSH1 0x20 ADD PUSH1 0x40 MLOAD SWAP1 DUP2 ADD PUSH1 0x40 MSTORE DUP1 SWAP3 SWAP2 SWAP1 DUP2 DUP2 MSTORE PUSH1 0x20 ADD DUP3 DUP1 SLOAD PUSH2 0x45F SWAP1 PUSH2 0x232F JUMP JUMPDEST DUP1 ISZERO PUSH2 0x4AC JUMPI DUP1 PUSH1 0x1F LT PUSH2 0x481 JUMPI PUSH2 0x100 DUP1 DUP4 SLOAD DIV MUL DUP4 MSTORE SWAP2 PUSH1 0x20 ADD SWAP2 PUSH2 0x4AC JUMP JUMPDEST DUP3 ADD SWAP2 SWAP1 PUSH1 0x0 MSTORE PUSH1 0x20 PUSH1 0x0 KECCAK256 SWAP1 JUMPDEST DUP2 SLOAD DUP2 MSTORE SWAP1 PUSH1 0x1 ADD SWAP1 PUSH1 0x20 ADD DUP1 DUP4 GT PUSH2 0x48F JUMPI DUP3 SWAP1 SUB PUSH1 0x1F AND DUP3 ADD SWAP2 JUMPDEST POP POP POP POP POP SWAP1 POP SWAP1 JUMP JUMPDEST PUSH1 0x0 PUSH2 0x4C1 DUP3 PUSH2 0xB58 JUMP JUMPDEST PUSH1 0x4 PUSH1 0x0 DUP4 DUP2 MSTORE PUSH1 0x20 ADD SWAP1 DUP2 MSTORE PUSH1 0x20 ADD PUSH1 0x0 KECCAK256 PUSH1 0x0 SWAP1 SLOAD SWAP1 PUSH2 0x100 EXP SWAP1 DIV PUSH20 0xFFFFFFFFFFFFFFFFFFFFFFFFFFFFFFFFFFFFFFFF AND SWAP1 POP SWAP2 SWAP1 POP JUMP JUMPDEST PUSH1 0x0 PUSH2 0x507 DUP3 PUSH2 0x77E JUMP JUMPDEST SWAP1 POP DUP1 PUSH20 0xFFFFFFFFFFFFFFFFFFFFFFFFFFFFFFFFFFFFFFFF AND DUP4 PUSH20 0xFFFFFFFFFFFFFFFFFFFFFFFFFFFFFFFFFFFFFFFF AND EQ ISZERO PUSH2 0x578 JUMPI PUSH1 0x40 MLOAD PUSH32 0x8C379A000000000000000000000000000000000000000000000000000000000 DUP2 MSTORE PUSH1 0x4 ADD PUSH2 0x56F SWAP1 PUSH2 0x2099 JUMP JUMPDEST PUSH1 0x40 MLOAD DUP1 SWAP2 SUB SWAP1 REVERT JUMPDEST DUP1 PUSH20 0xFFFFFFFFFFFFFFFFFFFFFFFFFFFFFFFFFFFFFFFF AND PUSH2 0x597 PUSH2 0xBA3 JUMP JUMPDEST PUSH20 0xFFFFFFFFFFFFFFFFFFFFFFFFFFFFFFFFFFFFFFFF AND EQ DUP1 PUSH2 0x5C6 JUMPI POP PUSH2 0x5C5 DUP2 PUSH2 0x5C0 PUSH2 0xBA3 JUMP JUMPDEST PUSH2 0xA5A JUMP JUMPDEST JUMPDEST PUSH2 0x605 JUMPI PUSH1 0x40 MLOAD PUSH32 0x8C379A000000000000000000000000000000000000000000000000000000000 DUP2 MSTORE PUSH1 0x4 ADD PUSH2 0x5FC SWAP1 PUSH2 0x2039 JUMP JUMPDEST PUSH1 0x40 MLOAD DUP1 SWAP2 SUB SWAP1 REVERT JUMPDEST PUSH2 0x60F DUP4 DUP4 PUSH2 0xBAB JUMP JUMPDEST POP POP POP JUMP JUMPDEST PUSH2 0x625 PUSH2 0x61F PUSH2 0xBA3 JUMP JUMPDEST DUP3 PUSH2 0xC64 JUMP JUMPDEST PUSH2 0x664 JUMPI PUSH1 0x40 MLOAD PUSH32 0x8C379A000000000000000000000000000000000000000000000000000000000 DUP2 MSTORE PUSH1 0x4 ADD PUSH2 0x65B SWAP1 PUSH2 0x20B9 JUMP JUMPDEST PUSH1 0x40 MLOAD DUP1 SWAP2 SUB SWAP1 REVERT JUMPDEST PUSH2 0x66F DUP4 DUP4 DUP4 PUSH2 0xCF9 JUMP JUMPDEST POP POP POP JUMP JUMPDEST PUSH1 0x0 DUP1 PUSH1 0x6 SLOAD SWAP1 POP PUSH2 0x686 CALLER DUP3 PUSH2 0xF60 JUMP JUMPDEST PUSH2 0x690 DUP2 DUP5 PUSH2 0xF7E JUMP JUMPDEST PUSH1 0x6 PUSH1 0x0 DUP2 SLOAD PUSH2 0x69F SWAP1 PUSH2 0x2392 JUMP JUMPDEST SWAP2 SWAP1 POP DUP2 SWAP1 SSTORE POP DUP1 SWAP2 POP POP SWAP2 SWAP1 POP JUMP JUMPDEST PUSH1 0x60 PUSH2 0x6BA DUP3 PUSH2 0xFF8 JUMP JUMPDEST POP PUSH1 0x7 PUSH1 0x0 DUP4 DUP2 MSTORE PUSH1 0x20 ADD SWAP1 DUP2 MSTORE PUSH1 0x20 ADD PUSH1 0x0 KECCAK256 DUP1 SLOAD PUSH2 0x6D9 SWAP1 PUSH2 0x232F JUMP JUMPDEST DUP1 PUSH1 0x1F ADD PUSH1 0x20 DUP1 SWAP2 DIV MUL PUSH1 0x20 ADD PUSH1 0x40 MLOAD SWAP1 DUP2 ADD PUSH1 0x40 MSTORE DUP1 SWAP3 SWAP2 SWAP1 DUP2 DUP2 MSTORE PUSH1 0x20 ADD DUP3 DUP1 SLOAD PUSH2 0x705 SWAP1 PUSH2 0x232F JUMP JUMPDEST DUP1 ISZERO PUSH2 0x752 JUMPI DUP1 PUSH1 0x1F LT PUSH2 0x727 JUMPI PUSH2 0x100 DUP1 DUP4 SLOAD DIV MUL DUP4 MSTORE SWAP2 PUSH1 0x20 ADD SWAP2 PUSH2 0x752 JUMP JUMPDEST DUP3 ADD SWAP2 SWAP1 PUSH1 0x0 MSTORE PUSH1 0x20 PUSH1 0x0 KECCAK256 SWAP1 JUMPDEST DUP2 SLOAD DUP2 MSTORE SWAP1 PUSH1 0x1 ADD SWAP1 PUSH1 0x20 ADD DUP1 DUP4 GT PUSH2 0x735 JUMPI DUP3 SWAP1 SUB PUSH1 0x1F AND DUP3 ADD SWAP2 JUMPDEST POP POP POP POP POP SWAP1 POP SWAP2 SWAP1 POP JUMP JUMPDEST PUSH2 0x779 DUP4 DUP4 DUP4 PUSH1 0x40 MLOAD DUP1 PUSH1 0x20 ADD PUSH1 0x40 MSTORE DUP1 PUSH1 0x0 DUP2 MSTORE POP PUSH2 0x990 JUMP JUMPDEST POP POP POP JUMP JUMPDEST PUSH1 0x0 DUP1 PUSH1 0x2 PUSH1 0x0 DUP5 DUP2 MSTORE PUSH1 0x20 ADD SWAP1 DUP2 MSTORE PUSH1 0x20 ADD PUSH1 0x0 KECCAK256 PUSH1 0x0 SWAP1 SLOAD SWAP1 PUSH2 0x100 EXP SWAP1 DIV PUSH20 0xFFFFFFFFFFFFFFFFFFFFFFFFFFFFFFFFFFFFFFFF AND SWAP1 POP PUSH1 0x0 PUSH20 0xFFFFFFFFFFFFFFFFFFFFFFFFFFFFFFFFFFFFFFFF AND DUP2 PUSH20 0xFFFFFFFFFFFFFFFFFFFFFFFFFFFFFFFFFFFFFFFF AND EQ ISZERO PUSH2 0x827 JUMPI PUSH1 0x40 MLOAD PUSH32 0x8C379A000000000000000000000000000000000000000000000000000000000 DUP2 MSTORE PUSH1 0x4 ADD PUSH2 0x81E SWAP1 PUSH2 0x2079 JUMP JUMPDEST PUSH1 0x40 MLOAD DUP1 SWAP2 SUB SWAP1 REVERT JUMPDEST DUP1 SWAP2 POP POP SWAP2 SWAP1 POP JUMP JUMPDEST PUSH1 0x0 DUP1 PUSH20 0xFFFFFFFFFFFFFFFFFFFFFFFFFFFFFFFFFFFFFFFF AND DUP3 PUSH20 0xFFFFFFFFFFFFFFFFFFFFFFFFFFFFFFFFFFFFFFFF AND EQ ISZERO PUSH2 0x8A1 JUMPI PUSH1 0x40 MLOAD PUSH32 0x8C379A000000000000000000000000000000000000000000000000000000000 DUP2 MSTORE PUSH1 0x4 ADD PUSH2 0x898 SWAP1 PUSH2 0x2019 JUMP JUMPDEST PUSH1 0x40 MLOAD DUP1 SWAP2 SUB SWAP1 REVERT JUMPDEST PUSH1 0x3 PUSH1 0x0 DUP4 PUSH20 0xFFFFFFFFFFFFFFFFFFFFFFFFFFFFFFFFFFFFFFFF AND PUSH20 0xFFFFFFFFFFFFFFFFFFFFFFFFFFFFFFFFFFFFFFFF AND DUP2 MSTORE PUSH1 0x20 ADD SWAP1 DUP2 MSTORE PUSH1 0x20 ADD PUSH1 0x0 KECCAK256 SLOAD SWAP1 POP SWAP2 SWAP1 POP JUMP JUMPDEST PUSH1 0x60 PUSH1 0x1 DUP1 SLOAD PUSH2 0x8F7 SWAP1 PUSH2 0x232F JUMP JUMPDEST DUP1 PUSH1 0x1F ADD PUSH1 0x20 DUP1 SWAP2 DIV MUL PUSH1 0x20 ADD PUSH1 0x40 MLOAD SWAP1 DUP2 ADD PUSH1 0x40 MSTORE DUP1 SWAP3 SWAP2 SWAP1 DUP2 DUP2 MSTORE PUSH1 0x20 ADD DUP3 DUP1 SLOAD PUSH2 0x923 SWAP1 PUSH2 0x232F JUMP JUMPDEST DUP1 ISZERO PUSH2 0x970 JUMPI DUP1 PUSH1 0x1F LT PUSH2 0x945 JUMPI PUSH2 0x100 DUP1 DUP4 SLOAD DIV MUL DUP4 MSTORE SWAP2 PUSH1 0x20 ADD SWAP2 PUSH2 0x970 JUMP JUMPDEST DUP3 ADD SWAP2 SWAP1 PUSH1 0x0 MSTORE PUSH1 0x20 PUSH1 0x0 KECCAK256 SWAP1 JUMPDEST DUP2 SLOAD DUP2 MSTORE SWAP1 PUSH1 0x1 ADD SWAP1 PUSH1 0x20 ADD DUP1 DUP4 GT PUSH2 0x953 JUMPI DUP3 SWAP1 SUB PUSH1 0x1F AND DUP3 ADD SWAP2 JUMPDEST POP POP POP POP POP SWAP1 POP SWAP1 JUMP JUMPDEST PUSH2 0x98C PUSH2 0x985 PUSH2 0xBA3 JUMP JUMPDEST DUP4 DUP4 PUSH2 0x1064 JUMP JUMPDEST POP POP JUMP JUMPDEST PUSH2 0x9A1 PUSH2 0x99B PUSH2 0xBA3 JUMP JUMPDEST DUP4 PUSH2 0xC64 JUMP JUMPDEST PUSH2 0x9E0 JUMPI PUSH1 0x40 MLOAD PUSH32 0x8C379A000000000000000000000000000000000000000000000000000000000 DUP2 MSTORE PUSH1 0x4 ADD PUSH2 0x9D7 SWAP1 PUSH2 0x20B9 JUMP JUMPDEST PUSH1 0x40 MLOAD DUP1 SWAP2 SUB SWAP1 REVERT JUMPDEST PUSH2 0x9EC DUP5 DUP5 DUP5 DUP5 PUSH2 0x11D1 JUMP JUMPDEST POP POP POP POP JUMP JUMPDEST PUSH1 0x60 PUSH2 0x9FD DUP3 PUSH2 0xB58 JUMP JUMPDEST PUSH1 0x0 PUSH2 0xA07 PUSH2 0x122D JUMP JUMPDEST SWAP1 POP PUSH1 0x0 DUP2 MLOAD GT PUSH2 0xA27 JUMPI PUSH1 0x40 MLOAD DUP1 PUSH1 0x20 ADD PUSH1 0x40 MSTORE DUP1 PUSH1 0x0 DUP2 MSTORE POP PUSH2 0xA52 JUMP JUMPDEST DUP1 PUSH2 0xA31 DUP5 PUSH2 0x1244 JUMP JUMPDEST PUSH1 0x40 MLOAD PUSH1 0x20 ADD PUSH2 0xA42 SWAP3 SWAP2 SWAP1 PUSH2 0x1E91 JUMP JUMPDEST PUSH1 0x40 MLOAD PUSH1 0x20 DUP2 DUP4 SUB SUB DUP2 MSTORE SWAP1 PUSH1 0x40 MSTORE JUMPDEST SWAP2 POP POP SWAP2 SWAP1 POP JUMP JUMPDEST PUSH1 0x0 PUSH1 0x5 PUSH1 0x0 DUP5 PUSH20 0xFFFFFFFFFFFFFFFFFFFFFFFFFFFFFFFFFFFFFFFF AND PUSH20 0xFFFFFFFFFFFFFFFFFFFFFFFFFFFFFFFFFFFFFFFF AND DUP2 MSTORE PUSH1 0x20 ADD SWAP1 DUP2 MSTORE PUSH1 0x20 ADD PUSH1 0x0 KECCAK256 PUSH1 0x0 DUP4 PUSH20 0xFFFFFFFFFFFFFFFFFFFFFFFFFFFFFFFFFFFFFFFF AND PUSH20 0xFFFFFFFFFFFFFFFFFFFFFFFFFFFFFFFFFFFFFFFF AND DUP2 MSTORE PUSH1 0x20 ADD SWAP1 DUP2 MSTORE PUSH1 0x20 ADD PUSH1 0x0 KECCAK256 PUSH1 0x0 SWAP1 SLOAD SWAP1 PUSH2 0x100 EXP SWAP1 DIV PUSH1 0xFF AND SWAP1 POP SWAP3 SWAP2 POP POP JUMP JUMPDEST PUSH1 0x0 PUSH32 0x1FFC9A700000000000000000000000000000000000000000000000000000000 PUSH28 0xFFFFFFFFFFFFFFFFFFFFFFFFFFFFFFFFFFFFFFFFFFFFFFFFFFFFFFFF NOT AND DUP3 PUSH28 0xFFFFFFFFFFFFFFFFFFFFFFFFFFFFFFFFFFFFFFFFFFFFFFFFFFFFFFFF NOT AND EQ SWAP1 POP SWAP2 SWAP1 POP JUMP JUMPDEST PUSH2 0xB61 DUP2 PUSH2 0xFF8 JUMP JUMPDEST PUSH2 0xBA0 JUMPI PUSH1 0x40 MLOAD PUSH32 0x8C379A000000000000000000000000000000000000000000000000000000000 DUP2 MSTORE PUSH1 0x4 ADD PUSH2 0xB97 SWAP1 PUSH2 0x2079 JUMP JUMPDEST PUSH1 0x40 MLOAD DUP1 SWAP2 SUB SWAP1 REVERT JUMPDEST POP JUMP JUMPDEST PUSH1 0x0 CALLER SWAP1 POP SWAP1 JUMP JUMPDEST DUP2 PUSH1 0x4 PUSH1 0x0 DUP4 DUP2 MSTORE PUSH1 0x20 ADD SWAP1 DUP2 MSTORE PUSH1 0x20 ADD PUSH1 0x0 KECCAK256 PUSH1 0x0 PUSH2 0x100 EXP DUP2 SLOAD DUP2 PUSH20 0xFFFFFFFFFFFFFFFFFFFFFFFFFFFFFFFFFFFFFFFF MUL NOT AND SWAP1 DUP4 PUSH20 0xFFFFFFFFFFFFFFFFFFFFFFFFFFFFFFFFFFFFFFFF AND MUL OR SWAP1 SSTORE POP DUP1 DUP3 PUSH20 0xFFFFFFFFFFFFFFFFFFFFFFFFFFFFFFFFFFFFFFFF AND PUSH2 0xC1E DUP4 PUSH2 0x77E JUMP JUMPDEST PUSH20 0xFFFFFFFFFFFFFFFFFFFFFFFFFFFFFFFFFFFFFFFF AND PUSH32 0x8C5BE1E5EBEC7D5BD14F71427D1E84F3DD0314C0F7B2291E5B200AC8C7C3B925 PUSH1 0x40 MLOAD PUSH1 0x40 MLOAD DUP1 SWAP2 SUB SWAP1 LOG4 POP POP JUMP JUMPDEST PUSH1 0x0 DUP1 PUSH2 0xC70 DUP4 PUSH2 0x77E JUMP JUMPDEST SWAP1 POP DUP1 PUSH20 0xFFFFFFFFFFFFFFFFFFFFFFFFFFFFFFFFFFFFFFFF AND DUP5 PUSH20 0xFFFFFFFFFFFFFFFFFFFFFFFFFFFFFFFFFFFFFFFF AND EQ DUP1 PUSH2 0xCB2 JUMPI POP PUSH2 0xCB1 DUP2 DUP6 PUSH2 0xA5A JUMP JUMPDEST JUMPDEST DUP1 PUSH2 0xCF0 JUMPI POP DUP4 PUSH20 0xFFFFFFFFFFFFFFFFFFFFFFFFFFFFFFFFFFFFFFFF AND PUSH2 0xCD8 DUP5 PUSH2 0x4B6 JUMP JUMPDEST PUSH20 0xFFFFFFFFFFFFFFFFFFFFFFFFFFFFFFFFFFFFFFFF AND EQ JUMPDEST SWAP2 POP POP SWAP3 SWAP2 POP POP JUMP JUMPDEST DUP3 PUSH20 0xFFFFFFFFFFFFFFFFFFFFFFFFFFFFFFFFFFFFFFFF AND PUSH2 0xD19 DUP3 PUSH2 0x77E JUMP JUMPDEST PUSH20 0xFFFFFFFFFFFFFFFFFFFFFFFFFFFFFFFFFFFFFFFF AND EQ PUSH2 0xD6F JUMPI PUSH1 0x40 MLOAD PUSH32 0x8C379A000000000000000000000000000000000000000000000000000000000 DUP2 MSTORE PUSH1 0x4 ADD PUSH2 0xD66 SWAP1 PUSH2 0x1F79 JUMP JUMPDEST PUSH1 0x40 MLOAD DUP1 SWAP2 SUB SWAP1 REVERT JUMPDEST PUSH1 0x0 PUSH20 0xFFFFFFFFFFFFFFFFFFFFFFFFFFFFFFFFFFFFFFFF AND DUP3 PUSH20 0xFFFFFFFFFFFFFFFFFFFFFFFFFFFFFFFFFFFFFFFF AND EQ ISZERO PUSH2 0xDDF JUMPI PUSH1 0x40 MLOAD PUSH32 0x8C379A000000000000000000000000000000000000000000000000000000000 DUP2 MSTORE PUSH1 0x4 ADD PUSH2 0xDD6 SWAP1 PUSH2 0x1FB9 JUMP JUMPDEST PUSH1 0x40 MLOAD DUP1 SWAP2 SUB SWAP1 REVERT JUMPDEST PUSH2 0xDEA DUP4 DUP4 DUP4 PUSH2 0x13A5 JUMP JUMPDEST PUSH2 0xDF5 PUSH1 0x0 DUP3 PUSH2 0xBAB JUMP JUMPDEST PUSH1 0x1 PUSH1 0x3 PUSH1 0x0 DUP6 PUSH20 0xFFFFFFFFFFFFFFFFFFFFFFFFFFFFFFFFFFFFFFFF AND PUSH20 0xFFFFFFFFFFFFFFFFFFFFFFFFFFFFFFFFFFFFFFFF AND DUP2 MSTORE PUSH1 0x20 ADD SWAP1 DUP2 MSTORE PUSH1 0x20 ADD PUSH1 0x0 KECCAK256 PUSH1 0x0 DUP3 DUP3 SLOAD PUSH2 0xE45 SWAP2 SWAP1 PUSH2 0x2245 JUMP JUMPDEST SWAP3 POP POP DUP2 SWAP1 SSTORE POP PUSH1 0x1 PUSH1 0x3 PUSH1 0x0 DUP5 PUSH20 0xFFFFFFFFFFFFFFFFFFFFFFFFFFFFFFFFFFFFFFFF AND PUSH20 0xFFFFFFFFFFFFFFFFFFFFFFFFFFFFFFFFFFFFFFFF AND DUP2 MSTORE PUSH1 0x20 ADD SWAP1 DUP2 MSTORE PUSH1 0x20 ADD PUSH1 0x0 KECCAK256 PUSH1 0x0 DUP3 DUP3 SLOAD PUSH2 0xE9C SWAP2 SWAP1 PUSH2 0x21BE JUMP JUMPDEST SWAP3 POP POP DUP2 SWAP1 SSTORE POP DUP2 PUSH1 0x2 PUSH1 0x0 DUP4 DUP2 MSTORE PUSH1 0x20 ADD SWAP1 DUP2 MSTORE PUSH1 0x20 ADD PUSH1 0x0 KECCAK256 PUSH1 0x0 PUSH2 0x100 EXP DUP2 SLOAD DUP2 PUSH20 0xFFFFFFFFFFFFFFFFFFFFFFFFFFFFFFFFFFFFFFFF MUL NOT AND SWAP1 DUP4 PUSH20 0xFFFFFFFFFFFFFFFFFFFFFFFFFFFFFFFFFFFFFFFF AND MUL OR SWAP1 SSTORE POP DUP1 DUP3 PUSH20 0xFFFFFFFFFFFFFFFFFFFFFFFFFFFFFFFFFFFFFFFF AND DUP5 PUSH20 0xFFFFFFFFFFFFFFFFFFFFFFFFFFFFFFFFFFFFFFFF AND PUSH32 0xDDF252AD1BE2C89B69C2B068FC378DAA952BA7F163C4A11628F55A4DF523B3EF PUSH1 0x40 MLOAD PUSH1 0x40 MLOAD DUP1 SWAP2 SUB SWAP1 LOG4 PUSH2 0xF5B DUP4 DUP4 DUP4 PUSH2 0x13AA JUMP JUMPDEST POP POP POP JUMP JUMPDEST PUSH2 0xF7A DUP3 DUP3 PUSH1 0x40 MLOAD DUP1 PUSH1 0x20 ADD PUSH1 0x40 MSTORE DUP1 PUSH1 0x0 DUP2 MSTORE POP PUSH2 0x13AF JUMP JUMPDEST POP POP JUMP JUMPDEST PUSH2 0xF87 DUP3 PUSH2 0xFF8 JUMP JUMPDEST POP PUSH1 0x0 DUP2 MLOAD GT PUSH2 0xFCC JUMPI PUSH1 0x40 MLOAD PUSH32 0x8C379A000000000000000000000000000000000000000000000000000000000 DUP2 MSTORE PUSH1 0x4 ADD PUSH2 0xFC3 SWAP1 PUSH2 0x1FF9 JUMP JUMPDEST PUSH1 0x40 MLOAD DUP1 SWAP2 SUB SWAP1 REVERT JUMPDEST DUP1 PUSH1 0x7 PUSH1 0x0 DUP5 DUP2 MSTORE PUSH1 0x20 ADD SWAP1 DUP2 MSTORE PUSH1 0x20 ADD PUSH1 0x0 KECCAK256 SWAP1 DUP1 MLOAD SWAP1 PUSH1 0x20 ADD SWAP1 PUSH2 0xFF3 SWAP3 SWAP2 SWAP1 PUSH2 0x179E JUMP JUMPDEST POP POP POP JUMP JUMPDEST PUSH1 0x0 DUP1 PUSH20 0xFFFFFFFFFFFFFFFFFFFFFFFFFFFFFFFFFFFFFFFF AND PUSH1 0x2 PUSH1 0x0 DUP5 DUP2 MSTORE PUSH1 0x20 ADD SWAP1 DUP2 MSTORE PUSH1 0x20 ADD PUSH1 0x0 KECCAK256 PUSH1 0x0 SWAP1 SLOAD SWAP1 PUSH2 0x100 EXP SWAP1 DIV PUSH20 0xFFFFFFFFFFFFFFFFFFFFFFFFFFFFFFFFFFFFFFFF AND PUSH20 0xFFFFFFFFFFFFFFFFFFFFFFFFFFFFFFFFFFFFFFFF AND EQ ISZERO SWAP1 POP SWAP2 SWAP1 POP JUMP JUMPDEST DUP2 PUSH20 0xFFFFFFFFFFFFFFFFFFFFFFFFFFFFFFFFFFFFFFFF AND DUP4 PUSH20 0xFFFFFFFFFFFFFFFFFFFFFFFFFFFFFFFFFFFFFFFF AND EQ ISZERO PUSH2 0x10D3 JUMPI PUSH1 0x40 MLOAD PUSH32 0x8C379A000000000000000000000000000000000000000000000000000000000 DUP2 MSTORE PUSH1 0x4 ADD PUSH2 0x10CA SWAP1 PUSH2 0x1FD9 JUMP JUMPDEST PUSH1 0x40 MLOAD DUP1 SWAP2 SUB SWAP1 REVERT JUMPDEST DUP1 PUSH1 0x5 PUSH1 0x0 DUP6 PUSH20 0xFFFFFFFFFFFFFFFFFFFFFFFFFFFFFFFFFFFFFFFF AND PUSH20 0xFFFFFFFFFFFFFFFFFFFFFFFFFFFFFFFFFFFFFFFF AND DUP2 MSTORE PUSH1 0x20 ADD SWAP1 DUP2 MSTORE PUSH1 0x20 ADD PUSH1 0x0 KECCAK256 PUSH1 0x0 DUP5 PUSH20 0xFFFFFFFFFFFFFFFFFFFFFFFFFFFFFFFFFFFFFFFF AND PUSH20 0xFFFFFFFFFFFFFFFFFFFFFFFFFFFFFFFFFFFFFFFF AND DUP2 MSTORE PUSH1 0x20 ADD SWAP1 DUP2 MSTORE PUSH1 0x20 ADD PUSH1 0x0 KECCAK256 PUSH1 0x0 PUSH2 0x100 EXP DUP2 SLOAD DUP2 PUSH1 0xFF MUL NOT AND SWAP1 DUP4 ISZERO ISZERO MUL OR SWAP1 SSTORE POP DUP2 PUSH20 0xFFFFFFFFFFFFFFFFFFFFFFFFFFFFFFFFFFFFFFFF AND DUP4 PUSH20 0xFFFFFFFFFFFFFFFFFFFFFFFFFFFFFFFFFFFFFFFF AND PUSH32 0x17307EAB39AB6107E8899845AD3D59BD9653F200F220920489CA2B5937696C31 DUP4 PUSH1 0x40 MLOAD PUSH2 0x11C4 SWAP2 SWAP1 PUSH2 0x1F1C JUMP JUMPDEST PUSH1 0x40 MLOAD DUP1 SWAP2 SUB SWAP1 LOG3 POP POP POP JUMP JUMPDEST PUSH2 0x11DC DUP5 DUP5 DUP5 PUSH2 0xCF9 JUMP JUMPDEST PUSH2 0x11E8 DUP5 DUP5 DUP5 DUP5 PUSH2 0x140A JUMP JUMPDEST PUSH2 0x1227 JUMPI PUSH1 0x40 MLOAD PUSH32 0x8C379A000000000000000000000000000000000000000000000000000000000 DUP2 MSTORE PUSH1 0x4 ADD PUSH2 0x121E SWAP1 PUSH2 0x1F59 JUMP JUMPDEST PUSH1 0x40 MLOAD DUP1 SWAP2 SUB SWAP1 REVERT JUMPDEST POP POP POP POP JUMP JUMPDEST PUSH1 0x60 PUSH1 0x40 MLOAD DUP1 PUSH1 0x20 ADD PUSH1 0x40 MSTORE DUP1 PUSH1 0x0 DUP2 MSTORE POP SWAP1 POP SWAP1 JUMP JUMPDEST PUSH1 0x60 PUSH1 0x0 DUP3 EQ ISZERO PUSH2 0x128C JUMPI PUSH1 0x40 MLOAD DUP1 PUSH1 0x40 ADD PUSH1 0x40 MSTORE DUP1 PUSH1 0x1 DUP2 MSTORE PUSH1 0x20 ADD PUSH32 0x3000000000000000000000000000000000000000000000000000000000000000 DUP2 MSTORE POP SWAP1 POP PUSH2 0x13A0 JUMP JUMPDEST PUSH1 0x0 DUP3 SWAP1 POP PUSH1 0x0 JUMPDEST PUSH1 0x0 DUP3 EQ PUSH2 0x12BE JUMPI DUP1 DUP1 PUSH2 0x12A7 SWAP1 PUSH2 0x2392 JUMP JUMPDEST SWAP2 POP POP PUSH1 0xA DUP3 PUSH2 0x12B7 SWAP2 SWAP1 PUSH2 0x2214 JUMP JUMPDEST SWAP2 POP PUSH2 0x1294 JUMP JUMPDEST PUSH1 0x0 DUP2 PUSH8 0xFFFFFFFFFFFFFFFF DUP2 GT ISZERO PUSH2 0x12DA JUMPI PUSH2 0x12D9 PUSH2 0x24C8 JUMP JUMPDEST JUMPDEST PUSH1 0x40 MLOAD SWAP1 DUP1 DUP3 MSTORE DUP1 PUSH1 0x1F ADD PUSH1 0x1F NOT AND PUSH1 0x20 ADD DUP3 ADD PUSH1 0x40 MSTORE DUP1 ISZERO PUSH2 0x130C JUMPI DUP2 PUSH1 0x20 ADD PUSH1 0x1 DUP3 MUL DUP1 CALLDATASIZE DUP4 CALLDATACOPY DUP1 DUP3 ADD SWAP2 POP POP SWAP1 POP JUMPDEST POP SWAP1 POP JUMPDEST PUSH1 0x0 DUP6 EQ PUSH2 0x1399 JUMPI PUSH1 0x1 DUP3 PUSH2 0x1325 SWAP2 SWAP1 PUSH2 0x2245 JUMP JUMPDEST SWAP2 POP PUSH1 0xA DUP6 PUSH2 0x1334 SWAP2 SWAP1 PUSH2 0x23DB JUMP JUMPDEST PUSH1 0x30 PUSH2 0x1340 SWAP2 SWAP1 PUSH2 0x21BE JUMP JUMPDEST PUSH1 0xF8 SHL DUP2 DUP4 DUP2 MLOAD DUP2 LT PUSH2 0x1356 JUMPI PUSH2 0x1355 PUSH2 0x2499 JUMP JUMPDEST JUMPDEST PUSH1 0x20 ADD ADD SWAP1 PUSH31 0xFFFFFFFFFFFFFFFFFFFFFFFFFFFFFFFFFFFFFFFFFFFFFFFFFFFFFFFFFFFFFF NOT AND SWAP1 DUP2 PUSH1 0x0 BYTE SWAP1 MSTORE8 POP PUSH1 0xA DUP6 PUSH2 0x1392 SWAP2 SWAP1 PUSH2 0x2214 JUMP JUMPDEST SWAP5 POP PUSH2 0x1310 JUMP JUMPDEST DUP1 SWAP4 POP POP POP POP JUMPDEST SWAP2 SWAP1 POP JUMP JUMPDEST POP POP POP JUMP JUMPDEST POP POP POP JUMP JUMPDEST PUSH2 0x13B9 DUP4 DUP4 PUSH2 0x15A1 JUMP JUMPDEST PUSH2 0x13C6 PUSH1 0x0 DUP5 DUP5 DUP5 PUSH2 0x140A JUMP JUMPDEST PUSH2 0x1405 JUMPI PUSH1 0x40 MLOAD PUSH32 0x8C379A000000000000000000000000000000000000000000000000000000000 DUP2 MSTORE PUSH1 0x4 ADD PUSH2 0x13FC SWAP1 PUSH2 0x1F59 JUMP JUMPDEST PUSH1 0x40 MLOAD DUP1 SWAP2 SUB SWAP1 REVERT JUMPDEST POP POP POP JUMP JUMPDEST PUSH1 0x0 PUSH2 0x142B DUP5 PUSH20 0xFFFFFFFFFFFFFFFFFFFFFFFFFFFFFFFFFFFFFFFF AND PUSH2 0x177B JUMP JUMPDEST ISZERO PUSH2 0x1594 JUMPI DUP4 PUSH20 0xFFFFFFFFFFFFFFFFFFFFFFFFFFFFFFFFFFFFFFFF AND PUSH4 0x150B7A02 PUSH2 0x1454 PUSH2 0xBA3 JUMP JUMPDEST DUP8 DUP7 DUP7 PUSH1 0x40 MLOAD DUP6 PUSH4 0xFFFFFFFF AND PUSH1 0xE0 SHL DUP2 MSTORE PUSH1 0x4 ADD PUSH2 0x1476 SWAP5 SWAP4 SWAP3 SWAP2 SWAP1 PUSH2 0x1ED0 JUMP JUMPDEST PUSH1 0x20 PUSH1 0x40 MLOAD DUP1 DUP4 SUB DUP2 PUSH1 0x0 DUP8 DUP1 EXTCODESIZE ISZERO DUP1 ISZERO PUSH2 0x1490 JUMPI PUSH1 0x0 DUP1 REVERT JUMPDEST POP GAS CALL SWAP3 POP POP POP DUP1 ISZERO PUSH2 0x14C1 JUMPI POP PUSH1 0x40 MLOAD RETURNDATASIZE PUSH1 0x1F NOT PUSH1 0x1F DUP3 ADD AND DUP3 ADD DUP1 PUSH1 0x40 MSTORE POP DUP2 ADD SWAP1 PUSH2 0x14BE SWAP2 SWAP1 PUSH2 0x1B7A JUMP JUMPDEST PUSH1 0x1 JUMPDEST PUSH2 0x1544 JUMPI RETURNDATASIZE DUP1 PUSH1 0x0 DUP2 EQ PUSH2 0x14F1 JUMPI PUSH1 0x40 MLOAD SWAP2 POP PUSH1 0x1F NOT PUSH1 0x3F RETURNDATASIZE ADD AND DUP3 ADD PUSH1 0x40 MSTORE RETURNDATASIZE DUP3 MSTORE RETURNDATASIZE PUSH1 0x0 PUSH1 0x20 DUP5 ADD RETURNDATACOPY PUSH2 0x14F6 JUMP JUMPDEST PUSH1 0x60 SWAP2 POP JUMPDEST POP PUSH1 0x0 DUP2 MLOAD EQ ISZERO PUSH2 0x153C JUMPI PUSH1 0x40 MLOAD PUSH32 0x8C379A000000000000000000000000000000000000000000000000000000000 DUP2 MSTORE PUSH1 0x4 ADD PUSH2 0x1533 SWAP1 PUSH2 0x1F59 JUMP JUMPDEST PUSH1 0x40 MLOAD DUP1 SWAP2 SUB SWAP1 REVERT JUMPDEST DUP1 MLOAD DUP2 PUSH1 0x20 ADD REVERT JUMPDEST PUSH4 0x150B7A02 PUSH1 0xE0 SHL PUSH28 0xFFFFFFFFFFFFFFFFFFFFFFFFFFFFFFFFFFFFFFFFFFFFFFFFFFFFFFFF NOT AND DUP2 PUSH28 0xFFFFFFFFFFFFFFFFFFFFFFFFFFFFFFFFFFFFFFFFFFFFFFFFFFFFFFFF NOT AND EQ SWAP2 POP POP PUSH2 0x1599 JUMP JUMPDEST PUSH1 0x1 SWAP1 POP JUMPDEST SWAP5 SWAP4 POP POP POP POP JUMP JUMPDEST PUSH1 0x0 PUSH20 0xFFFFFFFFFFFFFFFFFFFFFFFFFFFFFFFFFFFFFFFF AND DUP3 PUSH20 0xFFFFFFFFFFFFFFFFFFFFFFFFFFFFFFFFFFFFFFFF AND EQ ISZERO PUSH2 0x1611 JUMPI PUSH1 0x40 MLOAD PUSH32 0x8C379A000000000000000000000000000000000000000000000000000000000 DUP2 MSTORE PUSH1 0x4 ADD PUSH2 0x1608 SWAP1 PUSH2 0x2059 JUMP JUMPDEST PUSH1 0x40 MLOAD DUP1 SWAP2 SUB SWAP1 REVERT JUMPDEST PUSH2 0x161A DUP2 PUSH2 0xFF8 JUMP JUMPDEST ISZERO PUSH2 0x165A JUMPI PUSH1 0x40 MLOAD PUSH32 0x8C379A000000000000000000000000000000000000000000000000000000000 DUP2 MSTORE PUSH1 0x4 ADD PUSH2 0x1651 SWAP1 PUSH2 0x1F99 JUMP JUMPDEST PUSH1 0x40 MLOAD DUP1 SWAP2 SUB SWAP1 REVERT JUMPDEST PUSH2 0x1666 PUSH1 0x0 DUP4 DUP4 PUSH2 0x13A5 JUMP JUMPDEST PUSH1 0x1 PUSH1 0x3 PUSH1 0x0 DUP5 PUSH20 0xFFFFFFFFFFFFFFFFFFFFFFFFFFFFFFFFFFFFFFFF AND PUSH20 0xFFFFFFFFFFFFFFFFFFFFFFFFFFFFFFFFFFFFFFFF AND DUP2 MSTORE PUSH1 0x20 ADD SWAP1 DUP2 MSTORE PUSH1 0x20 ADD PUSH1 0x0 KECCAK256 PUSH1 0x0 DUP3 DUP3 SLOAD PUSH2 0x16B6 SWAP2 SWAP1 PUSH2 0x21BE JUMP JUMPDEST SWAP3 POP POP DUP2 SWAP1 SSTORE POP DUP2 PUSH1 0x2 PUSH1 0x0 DUP4 DUP2 MSTORE PUSH1 0x20 ADD SWAP1 DUP2 MSTORE PUSH1 0x20 ADD PUSH1 0x0 KECCAK256 PUSH1 0x0 PUSH2 0x100 EXP DUP2 SLOAD DUP2 PUSH20 0xFFFFFFFFFFFFFFFFFFFFFFFFFFFFFFFFFFFFFFFF MUL NOT AND SWAP1 DUP4 PUSH20 0xFFFFFFFFFFFFFFFFFFFFFFFFFFFFFFFFFFFFFFFF AND MUL OR SWAP1 SSTORE POP DUP1 DUP3 PUSH20 0xFFFFFFFFFFFFFFFFFFFFFFFFFFFFFFFFFFFFFFFF AND PUSH1 0x0 PUSH20 0xFFFFFFFFFFFFFFFFFFFFFFFFFFFFFFFFFFFFFFFF AND PUSH32 0xDDF252AD1BE2C89B69C2B068FC378DAA952BA7F163C4A11628F55A4DF523B3EF PUSH1 0x40 MLOAD PUSH1 0x40 MLOAD DUP1 SWAP2 SUB SWAP1 LOG4 PUSH2 0x1777 PUSH1 0x0 DUP4 DUP4 PUSH2 0x13AA JUMP JUMPDEST POP POP JUMP JUMPDEST PUSH1 0x0 DUP1 DUP3 PUSH20 0xFFFFFFFFFFFFFFFFFFFFFFFFFFFFFFFFFFFFFFFF AND EXTCODESIZE GT SWAP1 POP SWAP2 SWAP1 POP JUMP JUMPDEST DUP3 DUP1 SLOAD PUSH2 0x17AA SWAP1 PUSH2 0x232F JUMP JUMPDEST SWAP1 PUSH1 0x0 MSTORE PUSH1 0x20 PUSH1 0x0 KECCAK256 SWAP1 PUSH1 0x1F ADD PUSH1 0x20 SWAP1 DIV DUP2 ADD SWAP3 DUP3 PUSH2 0x17CC JUMPI PUSH1 0x0 DUP6 SSTORE PUSH2 0x1813 JUMP JUMPDEST DUP3 PUSH1 0x1F LT PUSH2 0x17E5 JUMPI DUP1 MLOAD PUSH1 0xFF NOT AND DUP4 DUP1 ADD OR DUP6 SSTORE PUSH2 0x1813 JUMP JUMPDEST DUP3 DUP1 ADD PUSH1 0x1 ADD DUP6 SSTORE DUP3 ISZERO PUSH2 0x1813 JUMPI SWAP2 DUP3 ADD JUMPDEST DUP3 DUP2 GT ISZERO PUSH2 0x1812 JUMPI DUP3 MLOAD DUP3 SSTORE SWAP2 PUSH1 0x20 ADD SWAP2 SWAP1 PUSH1 0x1 ADD SWAP1 PUSH2 0x17F7 JUMP JUMPDEST JUMPDEST POP SWAP1 POP PUSH2 0x1820 SWAP2 SWAP1 PUSH2 0x1824 JUMP JUMPDEST POP SWAP1 JUMP JUMPDEST JUMPDEST DUP1 DUP3 GT ISZERO PUSH2 0x183D JUMPI PUSH1 0x0 DUP2 PUSH1 0x0 SWAP1 SSTORE POP PUSH1 0x1 ADD PUSH2 0x1825 JUMP JUMPDEST POP SWAP1 JUMP JUMPDEST PUSH1 0x0 PUSH2 0x1854 PUSH2 0x184F DUP5 PUSH2 0x2119 JUMP JUMPDEST PUSH2 0x20F4 JUMP JUMPDEST SWAP1 POP DUP3 DUP2 MSTORE PUSH1 0x20 DUP2 ADD DUP5 DUP5 DUP5 ADD GT ISZERO PUSH2 0x1870 JUMPI PUSH2 0x186F PUSH2 0x24FC JUMP JUMPDEST JUMPDEST PUSH2 0x187B DUP5 DUP3 DUP6 PUSH2 0x22ED JUMP JUMPDEST POP SWAP4 SWAP3 POP POP POP JUMP JUMPDEST PUSH1 0x0 PUSH2 0x1896 PUSH2 0x1891 DUP5 PUSH2 0x214A JUMP JUMPDEST PUSH2 0x20F4 JUMP JUMPDEST SWAP1 POP DUP3 DUP2 MSTORE PUSH1 0x20 DUP2 ADD DUP5 DUP5 DUP5 ADD GT ISZERO PUSH2 0x18B2 JUMPI PUSH2 0x18B1 PUSH2 0x24FC JUMP JUMPDEST JUMPDEST PUSH2 0x18BD DUP5 DUP3 DUP6 PUSH2 0x22ED JUMP JUMPDEST POP SWAP4 SWAP3 POP POP POP JUMP JUMPDEST PUSH1 0x0 DUP2 CALLDATALOAD SWAP1 POP PUSH2 0x18D4 DUP2 PUSH2 0x2812 JUMP JUMPDEST SWAP3 SWAP2 POP POP JUMP JUMPDEST PUSH1 0x0 DUP2 CALLDATALOAD SWAP1 POP PUSH2 0x18E9 DUP2 PUSH2 0x2829 JUMP JUMPDEST SWAP3 SWAP2 POP POP JUMP JUMPDEST PUSH1 0x0 DUP2 CALLDATALOAD SWAP1 POP PUSH2 0x18FE DUP2 PUSH2 0x2840 JUMP JUMPDEST SWAP3 SWAP2 POP POP JUMP JUMPDEST PUSH1 0x0 DUP2 MLOAD SWAP1 POP PUSH2 0x1913 DUP2 PUSH2 0x2840 JUMP JUMPDEST SWAP3 SWAP2 POP POP JUMP JUMPDEST PUSH1 0x0 DUP3 PUSH1 0x1F DUP4 ADD SLT PUSH2 0x192E JUMPI PUSH2 0x192D PUSH2 0x24F7 JUMP JUMPDEST JUMPDEST DUP2 CALLDATALOAD PUSH2 0x193E DUP5 DUP3 PUSH1 0x20 DUP7 ADD PUSH2 0x1841 JUMP JUMPDEST SWAP2 POP POP SWAP3 SWAP2 POP POP JUMP JUMPDEST PUSH1 0x0 DUP3 PUSH1 0x1F DUP4 ADD SLT PUSH2 0x195C JUMPI PUSH2 0x195B PUSH2 0x24F7 JUMP JUMPDEST JUMPDEST DUP2 CALLDATALOAD PUSH2 0x196C DUP5 DUP3 PUSH1 0x20 DUP7 ADD PUSH2 0x1883 JUMP JUMPDEST SWAP2 POP POP SWAP3 SWAP2 POP POP JUMP JUMPDEST PUSH1 0x0 DUP2 CALLDATALOAD SWAP1 POP PUSH2 0x1984 DUP2 PUSH2 0x2857 JUMP JUMPDEST SWAP3 SWAP2 POP POP JUMP JUMPDEST PUSH1 0x0 PUSH1 0x20 DUP3 DUP5 SUB SLT ISZERO PUSH2 0x19A0 JUMPI PUSH2 0x199F PUSH2 0x2506 JUMP JUMPDEST JUMPDEST PUSH1 0x0 PUSH2 0x19AE DUP5 DUP3 DUP6 ADD PUSH2 0x18C5 JUMP JUMPDEST SWAP2 POP POP SWAP3 SWAP2 POP POP JUMP JUMPDEST PUSH1 0x0 DUP1 PUSH1 0x40 DUP4 DUP6 SUB SLT ISZERO PUSH2 0x19CE JUMPI PUSH2 0x19CD PUSH2 0x2506 JUMP JUMPDEST JUMPDEST PUSH1 0x0 PUSH2 0x19DC DUP6 DUP3 DUP7 ADD PUSH2 0x18C5 JUMP JUMPDEST SWAP3 POP POP PUSH1 0x20 PUSH2 0x19ED DUP6 DUP3 DUP7 ADD PUSH2 0x18C5 JUMP JUMPDEST SWAP2 POP POP SWAP3 POP SWAP3 SWAP1 POP JUMP JUMPDEST PUSH1 0x0 DUP1 PUSH1 0x0 PUSH1 0x60 DUP5 DUP7 SUB SLT ISZERO PUSH2 0x1A10 JUMPI PUSH2 0x1A0F PUSH2 0x2506 JUMP JUMPDEST JUMPDEST PUSH1 0x0 PUSH2 0x1A1E DUP7 DUP3 DUP8 ADD PUSH2 0x18C5 JUMP JUMPDEST SWAP4 POP POP PUSH1 0x20 PUSH2 0x1A2F DUP7 DUP3 DUP8 ADD PUSH2 0x18C5 JUMP JUMPDEST SWAP3 POP POP PUSH1 0x40 PUSH2 0x1A40 DUP7 DUP3 DUP8 ADD PUSH2 0x1975 JUMP JUMPDEST SWAP2 POP POP SWAP3 POP SWAP3 POP SWAP3 JUMP JUMPDEST PUSH1 0x0 DUP1 PUSH1 0x0 DUP1 PUSH1 0x80 DUP6 DUP8 SUB SLT ISZERO PUSH2 0x1A64 JUMPI PUSH2 0x1A63 PUSH2 0x2506 JUMP JUMPDEST JUMPDEST PUSH1 0x0 PUSH2 0x1A72 DUP8 DUP3 DUP9 ADD PUSH2 0x18C5 JUMP JUMPDEST SWAP5 POP POP PUSH1 0x20 PUSH2 0x1A83 DUP8 DUP3 DUP9 ADD PUSH2 0x18C5 JUMP JUMPDEST SWAP4 POP POP PUSH1 0x40 PUSH2 0x1A94 DUP8 DUP3 DUP9 ADD PUSH2 0x1975 JUMP JUMPDEST SWAP3 POP POP PUSH1 0x60 DUP6 ADD CALLDATALOAD PUSH8 0xFFFFFFFFFFFFFFFF DUP2 GT ISZERO PUSH2 0x1AB5 JUMPI PUSH2 0x1AB4 PUSH2 0x2501 JUMP JUMPDEST JUMPDEST PUSH2 0x1AC1 DUP8 DUP3 DUP9 ADD PUSH2 0x1919 JUMP JUMPDEST SWAP2 POP POP SWAP3 SWAP6 SWAP2 SWAP5 POP SWAP3 POP JUMP JUMPDEST PUSH1 0x0 DUP1 PUSH1 0x40 DUP4 DUP6 SUB SLT ISZERO PUSH2 0x1AE4 JUMPI PUSH2 0x1AE3 PUSH2 0x2506 JUMP JUMPDEST JUMPDEST PUSH1 0x0 PUSH2 0x1AF2 DUP6 DUP3 DUP7 ADD PUSH2 0x18C5 JUMP JUMPDEST SWAP3 POP POP PUSH1 0x20 PUSH2 0x1B03 DUP6 DUP3 DUP7 ADD PUSH2 0x18DA JUMP JUMPDEST SWAP2 POP POP SWAP3 POP SWAP3 SWAP1 POP JUMP JUMPDEST PUSH1 0x0 DUP1 PUSH1 0x40 DUP4 DUP6 SUB SLT ISZERO PUSH2 0x1B24 JUMPI PUSH2 0x1B23 PUSH2 0x2506 JUMP JUMPDEST JUMPDEST PUSH1 0x0 PUSH2 0x1B32 DUP6 DUP3 DUP7 ADD PUSH2 0x18C5 JUMP JUMPDEST SWAP3 POP POP PUSH1 0x20 PUSH2 0x1B43 DUP6 DUP3 DUP7 ADD PUSH2 0x1975 JUMP JUMPDEST SWAP2 POP POP SWAP3 POP SWAP3 SWAP1 POP JUMP JUMPDEST PUSH1 0x0 PUSH1 0x20 DUP3 DUP5 SUB SLT ISZERO PUSH2 0x1B63 JUMPI PUSH2 0x1B62 PUSH2 0x2506 JUMP JUMPDEST JUMPDEST PUSH1 0x0 PUSH2 0x1B71 DUP5 DUP3 DUP6 ADD PUSH2 0x18EF JUMP JUMPDEST SWAP2 POP POP SWAP3 SWAP2 POP POP JUMP JUMPDEST PUSH1 0x0 PUSH1 0x20 DUP3 DUP5 SUB SLT ISZERO PUSH2 0x1B90 JUMPI PUSH2 0x1B8F PUSH2 0x2506 JUMP JUMPDEST JUMPDEST PUSH1 0x0 PUSH2 0x1B9E DUP5 DUP3 DUP6 ADD PUSH2 0x1904 JUMP JUMPDEST SWAP2 POP POP SWAP3 SWAP2 POP POP JUMP JUMPDEST PUSH1 0x0 PUSH1 0x20 DUP3 DUP5 SUB SLT ISZERO PUSH2 0x1BBD JUMPI PUSH2 0x1BBC PUSH2 0x2506 JUMP JUMPDEST JUMPDEST PUSH1 0x0 DUP3 ADD CALLDATALOAD PUSH8 0xFFFFFFFFFFFFFFFF DUP2 GT ISZERO PUSH2 0x1BDB JUMPI PUSH2 0x1BDA PUSH2 0x2501 JUMP JUMPDEST JUMPDEST PUSH2 0x1BE7 DUP5 DUP3 DUP6 ADD PUSH2 0x1947 JUMP JUMPDEST SWAP2 POP POP SWAP3 SWAP2 POP POP JUMP JUMPDEST PUSH1 0x0 PUSH1 0x20 DUP3 DUP5 SUB SLT ISZERO PUSH2 0x1C06 JUMPI PUSH2 0x1C05 PUSH2 0x2506 JUMP JUMPDEST JUMPDEST PUSH1 0x0 PUSH2 0x1C14 DUP5 DUP3 DUP6 ADD PUSH2 0x1975 JUMP JUMPDEST SWAP2 POP POP SWAP3 SWAP2 POP POP JUMP JUMPDEST PUSH2 0x1C26 DUP2 PUSH2 0x2279 JUMP JUMPDEST DUP3 MSTORE POP POP JUMP JUMPDEST PUSH2 0x1C35 DUP2 PUSH2 0x228B JUMP JUMPDEST DUP3 MSTORE POP POP JUMP JUMPDEST PUSH1 0x0 PUSH2 0x1C46 DUP3 PUSH2 0x217B JUMP JUMPDEST PUSH2 0x1C50 DUP2 DUP6 PUSH2 0x2191 JUMP JUMPDEST SWAP4 POP PUSH2 0x1C60 DUP2 DUP6 PUSH1 0x20 DUP7 ADD PUSH2 0x22FC JUMP JUMPDEST PUSH2 0x1C69 DUP2 PUSH2 0x250B JUMP JUMPDEST DUP5 ADD SWAP2 POP POP SWAP3 SWAP2 POP POP JUMP JUMPDEST PUSH1 0x0 PUSH2 0x1C7F DUP3 PUSH2 0x2186 JUMP JUMPDEST PUSH2 0x1C89 DUP2 DUP6 PUSH2 0x21A2 JUMP JUMPDEST SWAP4 POP PUSH2 0x1C99 DUP2 DUP6 PUSH1 0x20 DUP7 ADD PUSH2 0x22FC JUMP JUMPDEST PUSH2 0x1CA2 DUP2 PUSH2 0x250B JUMP JUMPDEST DUP5 ADD SWAP2 POP POP SWAP3 SWAP2 POP POP JUMP JUMPDEST PUSH1 0x0 PUSH2 0x1CB8 DUP3 PUSH2 0x2186 JUMP JUMPDEST PUSH2 0x1CC2 DUP2 DUP6 PUSH2 0x21B3 JUMP JUMPDEST SWAP4 POP PUSH2 0x1CD2 DUP2 DUP6 PUSH1 0x20 DUP7 ADD PUSH2 0x22FC JUMP JUMPDEST DUP1 DUP5 ADD SWAP2 POP POP SWAP3 SWAP2 POP POP JUMP JUMPDEST PUSH1 0x0 PUSH2 0x1CEB PUSH1 0x32 DUP4 PUSH2 0x21A2 JUMP JUMPDEST SWAP2 POP PUSH2 0x1CF6 DUP3 PUSH2 0x251C JUMP JUMPDEST PUSH1 0x40 DUP3 ADD SWAP1 POP SWAP2 SWAP1 POP JUMP JUMPDEST PUSH1 0x0 PUSH2 0x1D0E PUSH1 0x25 DUP4 PUSH2 0x21A2 JUMP JUMPDEST SWAP2 POP PUSH2 0x1D19 DUP3 PUSH2 0x256B JUMP JUMPDEST PUSH1 0x40 DUP3 ADD SWAP1 POP SWAP2 SWAP1 POP JUMP JUMPDEST PUSH1 0x0 PUSH2 0x1D31 PUSH1 0x1C DUP4 PUSH2 0x21A2 JUMP JUMPDEST SWAP2 POP PUSH2 0x1D3C DUP3 PUSH2 0x25BA JUMP JUMPDEST PUSH1 0x20 DUP3 ADD SWAP1 POP SWAP2 SWAP1 POP JUMP JUMPDEST PUSH1 0x0 PUSH2 0x1D54 PUSH1 0x24 DUP4 PUSH2 0x21A2 JUMP JUMPDEST SWAP2 POP PUSH2 0x1D5F DUP3 PUSH2 0x25E3 JUMP JUMPDEST PUSH1 0x40 DUP3 ADD SWAP1 POP SWAP2 SWAP1 POP JUMP JUMPDEST PUSH1 0x0 PUSH2 0x1D77 PUSH1 0x19 DUP4 PUSH2 0x21A2 JUMP JUMPDEST SWAP2 POP PUSH2 0x1D82 DUP3 PUSH2 0x2632 JUMP JUMPDEST PUSH1 0x20 DUP3 ADD SWAP1 POP SWAP2 SWAP1 POP JUMP JUMPDEST PUSH1 0x0 PUSH2 0x1D9A PUSH1 0xF DUP4 PUSH2 0x21A2 JUMP JUMPDEST SWAP2 POP PUSH2 0x1DA5 DUP3 PUSH2 0x265B JUMP JUMPDEST PUSH1 0x20 DUP3 ADD SWAP1 POP SWAP2 SWAP1 POP JUMP JUMPDEST PUSH1 0x0 PUSH2 0x1DBD PUSH1 0x29 DUP4 PUSH2 0x21A2 JUMP JUMPDEST SWAP2 POP PUSH2 0x1DC8 DUP3 PUSH2 0x2684 JUMP JUMPDEST PUSH1 0x40 DUP3 ADD SWAP1 POP SWAP2 SWAP1 POP JUMP JUMPDEST PUSH1 0x0 PUSH2 0x1DE0 PUSH1 0x3E DUP4 PUSH2 0x21A2 JUMP JUMPDEST SWAP2 POP PUSH2 0x1DEB DUP3 PUSH2 0x26D3 JUMP JUMPDEST PUSH1 0x40 DUP3 ADD SWAP1 POP SWAP2 SWAP1 POP JUMP JUMPDEST PUSH1 0x0 PUSH2 0x1E03 PUSH1 0x20 DUP4 PUSH2 0x21A2 JUMP JUMPDEST SWAP2 POP PUSH2 0x1E0E DUP3 PUSH2 0x2722 JUMP JUMPDEST PUSH1 0x20 DUP3 ADD SWAP1 POP SWAP2 SWAP1 POP JUMP JUMPDEST PUSH1 0x0 PUSH2 0x1E26 PUSH1 0x18 DUP4 PUSH2 0x21A2 JUMP JUMPDEST SWAP2 POP PUSH2 0x1E31 DUP3 PUSH2 0x274B JUMP JUMPDEST PUSH1 0x20 DUP3 ADD SWAP1 POP SWAP2 SWAP1 POP JUMP JUMPDEST PUSH1 0x0 PUSH2 0x1E49 PUSH1 0x21 DUP4 PUSH2 0x21A2 JUMP JUMPDEST SWAP2 POP PUSH2 0x1E54 DUP3 PUSH2 0x2774 JUMP JUMPDEST PUSH1 0x40 DUP3 ADD SWAP1 POP SWAP2 SWAP1 POP JUMP JUMPDEST PUSH1 0x0 PUSH2 0x1E6C PUSH1 0x2E DUP4 PUSH2 0x21A2 JUMP JUMPDEST SWAP2 POP PUSH2 0x1E77 DUP3 PUSH2 0x27C3 JUMP JUMPDEST PUSH1 0x40 DUP3 ADD SWAP1 POP SWAP2 SWAP1 POP JUMP JUMPDEST PUSH2 0x1E8B DUP2 PUSH2 0x22E3 JUMP JUMPDEST DUP3 MSTORE POP POP JUMP JUMPDEST PUSH1 0x0 PUSH2 0x1E9D DUP3 DUP6 PUSH2 0x1CAD JUMP JUMPDEST SWAP2 POP PUSH2 0x1EA9 DUP3 DUP5 PUSH2 0x1CAD JUMP JUMPDEST SWAP2 POP DUP2 SWAP1 POP SWAP4 SWAP3 POP POP POP JUMP JUMPDEST PUSH1 0x0 PUSH1 0x20 DUP3 ADD SWAP1 POP PUSH2 0x1ECA PUSH1 0x0 DUP4 ADD DUP5 PUSH2 0x1C1D JUMP JUMPDEST SWAP3 SWAP2 POP POP JUMP JUMPDEST PUSH1 0x0 PUSH1 0x80 DUP3 ADD SWAP1 POP PUSH2 0x1EE5 PUSH1 0x0 DUP4 ADD DUP8 PUSH2 0x1C1D JUMP JUMPDEST PUSH2 0x1EF2 PUSH1 0x20 DUP4 ADD DUP7 PUSH2 0x1C1D JUMP JUMPDEST PUSH2 0x1EFF PUSH1 0x40 DUP4 ADD DUP6 PUSH2 0x1E82 JUMP JUMPDEST DUP2 DUP2 SUB PUSH1 0x60 DUP4 ADD MSTORE PUSH2 0x1F11 DUP2 DUP5 PUSH2 0x1C3B JUMP JUMPDEST SWAP1 POP SWAP6 SWAP5 POP POP POP POP POP JUMP JUMPDEST PUSH1 0x0 PUSH1 0x20 DUP3 ADD SWAP1 POP PUSH2 0x1F31 PUSH1 0x0 DUP4 ADD DUP5 PUSH2 0x1C2C JUMP JUMPDEST SWAP3 SWAP2 POP POP JUMP JUMPDEST PUSH1 0x0 PUSH1 0x20 DUP3 ADD SWAP1 POP DUP2 DUP2 SUB PUSH1 0x0 DUP4 ADD MSTORE PUSH2 0x1F51 DUP2 DUP5 PUSH2 0x1C74 JUMP JUMPDEST SWAP1 POP SWAP3 SWAP2 POP POP JUMP JUMPDEST PUSH1 0x0 PUSH1 0x20 DUP3 ADD SWAP1 POP DUP2 DUP2 SUB PUSH1 0x0 DUP4 ADD MSTORE PUSH2 0x1F72 DUP2 PUSH2 0x1CDE JUMP JUMPDEST SWAP1 POP SWAP2 SWAP1 POP JUMP JUMPDEST PUSH1 0x0 PUSH1 0x20 DUP3 ADD SWAP1 POP DUP2 DUP2 SUB PUSH1 0x0 DUP4 ADD MSTORE PUSH2 0x1F92 DUP2 PUSH2 0x1D01 JUMP JUMPDEST SWAP1 POP SWAP2 SWAP1 POP JUMP JUMPDEST PUSH1 0x0 PUSH1 0x20 DUP3 ADD SWAP1 POP DUP2 DUP2 SUB PUSH1 0x0 DUP4 ADD MSTORE PUSH2 0x1FB2 DUP2 PUSH2 0x1D24 JUMP JUMPDEST SWAP1 POP SWAP2 SWAP1 POP JUMP JUMPDEST PUSH1 0x0 PUSH1 0x20 DUP3 ADD SWAP1 POP DUP2 DUP2 SUB PUSH1 0x0 DUP4 ADD MSTORE PUSH2 0x1FD2 DUP2 PUSH2 0x1D47 JUMP JUMPDEST SWAP1 POP SWAP2 SWAP1 POP JUMP JUMPDEST PUSH1 0x0 PUSH1 0x20 DUP3 ADD SWAP1 POP DUP2 DUP2 SUB PUSH1 0x0 DUP4 ADD MSTORE PUSH2 0x1FF2 DUP2 PUSH2 0x1D6A JUMP JUMPDEST SWAP1 POP SWAP2 SWAP1 POP JUMP JUMPDEST PUSH1 0x0 PUSH1 0x20 DUP3 ADD SWAP1 POP DUP2 DUP2 SUB PUSH1 0x0 DUP4 ADD MSTORE PUSH2 0x2012 DUP2 PUSH2 0x1D8D JUMP JUMPDEST SWAP1 POP SWAP2 SWAP1 POP JUMP JUMPDEST PUSH1 0x0 PUSH1 0x20 DUP3 ADD SWAP1 POP DUP2 DUP2 SUB PUSH1 0x0 DUP4 ADD MSTORE PUSH2 0x2032 DUP2 PUSH2 0x1DB0 JUMP JUMPDEST SWAP1 POP SWAP2 SWAP1 POP JUMP JUMPDEST PUSH1 0x0 PUSH1 0x20 DUP3 ADD SWAP1 POP DUP2 DUP2 SUB PUSH1 0x0 DUP4 ADD MSTORE PUSH2 0x2052 DUP2 PUSH2 0x1DD3 JUMP JUMPDEST SWAP1 POP SWAP2 SWAP1 POP JUMP JUMPDEST PUSH1 0x0 PUSH1 0x20 DUP3 ADD SWAP1 POP DUP2 DUP2 SUB PUSH1 0x0 DUP4 ADD MSTORE PUSH2 0x2072 DUP2 PUSH2 0x1DF6 JUMP JUMPDEST SWAP1 POP SWAP2 SWAP1 POP JUMP JUMPDEST PUSH1 0x0 PUSH1 0x20 DUP3 ADD SWAP1 POP DUP2 DUP2 SUB PUSH1 0x0 DUP4 ADD MSTORE PUSH2 0x2092 DUP2 PUSH2 0x1E19 JUMP JUMPDEST SWAP1 POP SWAP2 SWAP1 POP JUMP JUMPDEST PUSH1 0x0 PUSH1 0x20 DUP3 ADD SWAP1 POP DUP2 DUP2 SUB PUSH1 0x0 DUP4 ADD MSTORE PUSH2 0x20B2 DUP2 PUSH2 0x1E3C JUMP JUMPDEST SWAP1 POP SWAP2 SWAP1 POP JUMP JUMPDEST PUSH1 0x0 PUSH1 0x20 DUP3 ADD SWAP1 POP DUP2 DUP2 SUB PUSH1 0x0 DUP4 ADD MSTORE PUSH2 0x20D2 DUP2 PUSH2 0x1E5F JUMP JUMPDEST SWAP1 POP SWAP2 SWAP1 POP JUMP JUMPDEST PUSH1 0x0 PUSH1 0x20 DUP3 ADD SWAP1 POP PUSH2 0x20EE PUSH1 0x0 DUP4 ADD DUP5 PUSH2 0x1E82 JUMP JUMPDEST SWAP3 SWAP2 POP POP JUMP JUMPDEST PUSH1 0x0 PUSH2 0x20FE PUSH2 0x210F JUMP JUMPDEST SWAP1 POP PUSH2 0x210A DUP3 DUP3 PUSH2 0x2361 JUMP JUMPDEST SWAP2 SWAP1 POP JUMP JUMPDEST PUSH1 0x0 PUSH1 0x40 MLOAD SWAP1 POP SWAP1 JUMP JUMPDEST PUSH1 0x0 PUSH8 0xFFFFFFFFFFFFFFFF DUP3 GT ISZERO PUSH2 0x2134 JUMPI PUSH2 0x2133 PUSH2 0x24C8 JUMP JUMPDEST JUMPDEST PUSH2 0x213D DUP3 PUSH2 0x250B JUMP JUMPDEST SWAP1 POP PUSH1 0x20 DUP2 ADD SWAP1 POP SWAP2 SWAP1 POP JUMP JUMPDEST PUSH1 0x0 PUSH8 0xFFFFFFFFFFFFFFFF DUP3 GT ISZERO PUSH2 0x2165 JUMPI PUSH2 0x2164 PUSH2 0x24C8 JUMP JUMPDEST JUMPDEST PUSH2 0x216E DUP3 PUSH2 0x250B JUMP JUMPDEST SWAP1 POP PUSH1 0x20 DUP2 ADD SWAP1 POP SWAP2 SWAP1 POP JUMP JUMPDEST PUSH1 0x0 DUP2 MLOAD SWAP1 POP SWAP2 SWAP1 POP JUMP JUMPDEST PUSH1 0x0 DUP2 MLOAD SWAP1 POP SWAP2 SWAP1 POP JUMP JUMPDEST PUSH1 0x0 DUP3 DUP3 MSTORE PUSH1 0x20 DUP3 ADD SWAP1 POP SWAP3 SWAP2 POP POP JUMP JUMPDEST PUSH1 0x0 DUP3 DUP3 MSTORE PUSH1 0x20 DUP3 ADD SWAP1 POP SWAP3 SWAP2 POP POP JUMP JUMPDEST PUSH1 0x0 DUP2 SWAP1 POP SWAP3 SWAP2 POP POP JUMP JUMPDEST PUSH1 0x0 PUSH2 0x21C9 DUP3 PUSH2 0x22E3 JUMP JUMPDEST SWAP2 POP PUSH2 0x21D4 DUP4 PUSH2 0x22E3 JUMP JUMPDEST SWAP3 POP DUP3 PUSH32 0xFFFFFFFFFFFFFFFFFFFFFFFFFFFFFFFFFFFFFFFFFFFFFFFFFFFFFFFFFFFFFFFF SUB DUP3 GT ISZERO PUSH2 0x2209 JUMPI PUSH2 0x2208 PUSH2 0x240C JUMP JUMPDEST JUMPDEST DUP3 DUP3 ADD SWAP1 POP SWAP3 SWAP2 POP POP JUMP JUMPDEST PUSH1 0x0 PUSH2 0x221F DUP3 PUSH2 0x22E3 JUMP JUMPDEST SWAP2 POP PUSH2 0x222A DUP4 PUSH2 0x22E3 JUMP JUMPDEST SWAP3 POP DUP3 PUSH2 0x223A JUMPI PUSH2 0x2239 PUSH2 0x243B JUMP JUMPDEST JUMPDEST DUP3 DUP3 DIV SWAP1 POP SWAP3 SWAP2 POP POP JUMP JUMPDEST PUSH1 0x0 PUSH2 0x2250 DUP3 PUSH2 0x22E3 JUMP JUMPDEST SWAP2 POP PUSH2 0x225B DUP4 PUSH2 0x22E3 JUMP JUMPDEST SWAP3 POP DUP3 DUP3 LT ISZERO PUSH2 0x226E JUMPI PUSH2 0x226D PUSH2 0x240C JUMP JUMPDEST JUMPDEST DUP3 DUP3 SUB SWAP1 POP SWAP3 SWAP2 POP POP JUMP JUMPDEST PUSH1 0x0 PUSH2 0x2284 DUP3 PUSH2 0x22C3 JUMP JUMPDEST SWAP1 POP SWAP2 SWAP1 POP JUMP JUMPDEST PUSH1 0x0 DUP2 ISZERO ISZERO SWAP1 POP SWAP2 SWAP1 POP JUMP JUMPDEST PUSH1 0x0 PUSH32 0xFFFFFFFF00000000000000000000000000000000000000000000000000000000 DUP3 AND SWAP1 POP SWAP2 SWAP1 POP JUMP JUMPDEST PUSH1 0x0 PUSH20 0xFFFFFFFFFFFFFFFFFFFFFFFFFFFFFFFFFFFFFFFF DUP3 AND SWAP1 POP SWAP2 SWAP1 POP JUMP JUMPDEST PUSH1 0x0 DUP2 SWAP1 POP SWAP2 SWAP1 POP JUMP JUMPDEST DUP3 DUP2 DUP4 CALLDATACOPY PUSH1 0x0 DUP4 DUP4 ADD MSTORE POP POP POP JUMP JUMPDEST PUSH1 0x0 JUMPDEST DUP4 DUP2 LT ISZERO PUSH2 0x231A JUMPI DUP1 DUP3 ADD MLOAD DUP2 DUP5 ADD MSTORE PUSH1 0x20 DUP2 ADD SWAP1 POP PUSH2 0x22FF JUMP JUMPDEST DUP4 DUP2 GT ISZERO PUSH2 0x2329 JUMPI PUSH1 0x0 DUP5 DUP5 ADD MSTORE JUMPDEST POP POP POP POP JUMP JUMPDEST PUSH1 0x0 PUSH1 0x2 DUP3 DIV SWAP1 POP PUSH1 0x1 DUP3 AND DUP1 PUSH2 0x2347 JUMPI PUSH1 0x7F DUP3 AND SWAP2 POP JUMPDEST PUSH1 0x20 DUP3 LT DUP2 EQ ISZERO PUSH2 0x235B JUMPI PUSH2 0x235A PUSH2 0x246A JUMP JUMPDEST JUMPDEST POP SWAP2 SWAP1 POP JUMP JUMPDEST PUSH2 0x236A DUP3 PUSH2 0x250B JUMP JUMPDEST DUP2 ADD DUP2 DUP2 LT PUSH8 0xFFFFFFFFFFFFFFFF DUP3 GT OR ISZERO PUSH2 0x2389 JUMPI PUSH2 0x2388 PUSH2 0x24C8 JUMP JUMPDEST JUMPDEST DUP1 PUSH1 0x40 MSTORE POP POP POP JUMP JUMPDEST PUSH1 0x0 PUSH2 0x239D DUP3 PUSH2 0x22E3 JUMP JUMPDEST SWAP2 POP PUSH32 0xFFFFFFFFFFFFFFFFFFFFFFFFFFFFFFFFFFFFFFFFFFFFFFFFFFFFFFFFFFFFFFFF DUP3 EQ ISZERO PUSH2 0x23D0 JUMPI PUSH2 0x23CF PUSH2 0x240C JUMP JUMPDEST JUMPDEST PUSH1 0x1 DUP3 ADD SWAP1 POP SWAP2 SWAP1 POP JUMP JUMPDEST PUSH1 0x0 PUSH2 0x23E6 DUP3 PUSH2 0x22E3 JUMP JUMPDEST SWAP2 POP PUSH2 0x23F1 DUP4 PUSH2 0x22E3 JUMP JUMPDEST SWAP3 POP DUP3 PUSH2 0x2401 JUMPI PUSH2 0x2400 PUSH2 0x243B JUMP JUMPDEST JUMPDEST DUP3 DUP3 MOD SWAP1 POP SWAP3 SWAP2 POP POP JUMP JUMPDEST PUSH32 0x4E487B7100000000000000000000000000000000000000000000000000000000 PUSH1 0x0 MSTORE PUSH1 0x11 PUSH1 0x4 MSTORE PUSH1 0x24 PUSH1 0x0 REVERT JUMPDEST PUSH32 0x4E487B7100000000000000000000000000000000000000000000000000000000 PUSH1 0x0 MSTORE PUSH1 0x12 PUSH1 0x4 MSTORE PUSH1 0x24 PUSH1 0x0 REVERT JUMPDEST PUSH32 0x4E487B7100000000000000000000000000000000000000000000000000000000 PUSH1 0x0 MSTORE PUSH1 0x22 PUSH1 0x4 MSTORE PUSH1 0x24 PUSH1 0x0 REVERT JUMPDEST PUSH32 0x4E487B7100000000000000000000000000000000000000000000000000000000 PUSH1 0x0 MSTORE PUSH1 0x32 PUSH1 0x4 MSTORE PUSH1 0x24 PUSH1 0x0 REVERT JUMPDEST PUSH32 0x4E487B7100000000000000000000000000000000000000000000000000000000 PUSH1 0x0 MSTORE PUSH1 0x41 PUSH1 0x4 MSTORE PUSH1 0x24 PUSH1 0x0 REVERT JUMPDEST PUSH1 0x0 DUP1 REVERT JUMPDEST PUSH1 0x0 DUP1 REVERT JUMPDEST PUSH1 0x0 DUP1 REVERT JUMPDEST PUSH1 0x0 DUP1 REVERT JUMPDEST PUSH1 0x0 PUSH1 0x1F NOT PUSH1 0x1F DUP4 ADD AND SWAP1 POP SWAP2 SWAP1 POP JUMP JUMPDEST PUSH32 0x4552433732313A207472616E7366657220746F206E6F6E204552433732315265 PUSH1 0x0 DUP3 ADD MSTORE PUSH32 0x63656976657220696D706C656D656E7465720000000000000000000000000000 PUSH1 0x20 DUP3 ADD MSTORE POP JUMP JUMPDEST PUSH32 0x4552433732313A207472616E736665722066726F6D20696E636F727265637420 PUSH1 0x0 DUP3 ADD MSTORE PUSH32 0x6F776E6572000000000000000000000000000000000000000000000000000000 PUSH1 0x20 DUP3 ADD MSTORE POP JUMP JUMPDEST PUSH32 0x4552433732313A20746F6B656E20616C7265616479206D696E74656400000000 PUSH1 0x0 DUP3 ADD MSTORE POP JUMP JUMPDEST PUSH32 0x4552433732313A207472616E7366657220746F20746865207A65726F20616464 PUSH1 0x0 DUP3 ADD MSTORE PUSH32 0x7265737300000000000000000000000000000000000000000000000000000000 PUSH1 0x20 DUP3 ADD MSTORE POP JUMP JUMPDEST PUSH32 0x4552433732313A20617070726F766520746F2063616C6C657200000000000000 PUSH1 0x0 DUP3 ADD MSTORE POP JUMP JUMPDEST PUSH32 0x656D70747920746F6B656E205552490000000000000000000000000000000000 PUSH1 0x0 DUP3 ADD MSTORE POP JUMP JUMPDEST PUSH32 0x4552433732313A2061646472657373207A65726F206973206E6F742061207661 PUSH1 0x0 DUP3 ADD MSTORE PUSH32 0x6C6964206F776E65720000000000000000000000000000000000000000000000 PUSH1 0x20 DUP3 ADD MSTORE POP JUMP JUMPDEST PUSH32 0x4552433732313A20617070726F76652063616C6C6572206973206E6F7420746F PUSH1 0x0 DUP3 ADD MSTORE PUSH32 0x6B656E206F776E6572206E6F7220617070726F76656420666F7220616C6C0000 PUSH1 0x20 DUP3 ADD MSTORE POP JUMP JUMPDEST PUSH32 0x4552433732313A206D696E7420746F20746865207A65726F2061646472657373 PUSH1 0x0 DUP3 ADD MSTORE POP JUMP JUMPDEST PUSH32 0x4552433732313A20696E76616C696420746F6B656E2049440000000000000000 PUSH1 0x0 DUP3 ADD MSTORE POP JUMP JUMPDEST PUSH32 0x4552433732313A20617070726F76616C20746F2063757272656E74206F776E65 PUSH1 0x0 DUP3 ADD MSTORE PUSH32 0x7200000000000000000000000000000000000000000000000000000000000000 PUSH1 0x20 DUP3 ADD MSTORE POP JUMP JUMPDEST PUSH32 0x4552433732313A2063616C6C6572206973206E6F7420746F6B656E206F776E65 PUSH1 0x0 DUP3 ADD MSTORE PUSH32 0x72206E6F7220617070726F766564000000000000000000000000000000000000 PUSH1 0x20 DUP3 ADD MSTORE POP JUMP JUMPDEST PUSH2 0x281B DUP2 PUSH2 0x2279 JUMP JUMPDEST DUP2 EQ PUSH2 0x2826 JUMPI PUSH1 0x0 DUP1 REVERT JUMPDEST POP JUMP JUMPDEST PUSH2 0x2832 DUP2 PUSH2 0x228B JUMP JUMPDEST DUP2 EQ PUSH2 0x283D JUMPI PUSH1 0x0 DUP1 REVERT JUMPDEST POP JUMP JUMPDEST PUSH2 0x2849 DUP2 PUSH2 0x2297 JUMP JUMPDEST DUP2 EQ PUSH2 0x2854 JUMPI PUSH1 0x0 DUP1 REVERT JUMPDEST POP JUMP JUMPDEST PUSH2 0x2860 DUP2 PUSH2 0x22E3 JUMP JUMPDEST DUP2 EQ PUSH2 0x286B JUMPI PUSH1 0x0 DUP1 REVERT JUMPDEST POP JUMP INVALID LOG2 PUSH5 0x6970667358 0x22 SLT KECCAK256 0xBB PUSH21 0x9DFB3BE393C1D26BEC10C3CDC7853788391AD9C942 0xBC PUSH16 0xABBDF7211BA02364736F6C6343000806 STOP CALLER "
				},
				"gasEstimates": {
					"creation": {
						"codeDepositCost": "2080800",
						"executionCost": "infinite",
						"totalCost": "infinite"
					},
					"external": {
						"approve(address,uint256)": "infinite",
						"balanceOf(address)": "2946",
						"createCollectible(string)": "infinite",
						"getApproved(uint256)": "5257",
						"getTokenURI(uint256)": "infinite",
						"isApprovedForAll(address,address)": "infinite",
						"name()": "infinite",
						"ownerOf(uint256)": "3004",
						"safeTransferFrom(address,address,uint256)": "infinite",
						"safeTransferFrom(address,address,uint256,bytes)": "infinite",
						"setApprovalForAll(address,bool)": "infinite",
						"supportsInterface(bytes4)": "797",
						"symbol()": "infinite",
						"tokenURI(uint256)": "3424",
						"transferFrom(address,address,uint256)": "infinite"
					},
					"internal": {
						"_setTokenURI(uint256,string memory)": "infinite"
					}
				},
				"methodIdentifiers": {
					"approve(address,uint256)": "095ea7b3",
					"balanceOf(address)": "70a08231",
					"createCollectible(string)": "31f1f3c3",
					"getApproved(uint256)": "081812fc",
					"getTokenURI(uint256)": "3bb3a24d",
					"isApprovedForAll(address,address)": "e985e9c5",
					"name()": "06fdde03",
					"ownerOf(uint256)": "6352211e",
					"safeTransferFrom(address,address,uint256)": "42842e0e",
					"safeTransferFrom(address,address,uint256,bytes)": "b88d4fde",
					"setApprovalForAll(address,bool)": "a22cb465",
					"supportsInterface(bytes4)": "01ffc9a7",
					"symbol()": "95d89b41",
					"tokenURI(uint256)": "c87b56dd",
					"transferFrom(address,address,uint256)": "23b872dd"
				}
			},
			"storageLayout": {
				"storage": [
					{
						"astId": 122,
						"contract": "contracts/SimpleCollectible.sol:SimpleCollectible",
						"label": "_name",
						"offset": 0,
						"slot": "0",
						"type": "t_string_storage"
					},
					{
						"astId": 124,
						"contract": "contracts/SimpleCollectible.sol:SimpleCollectible",
						"label": "_symbol",
						"offset": 0,
						"slot": "1",
						"type": "t_string_storage"
					},
					{
						"astId": 128,
						"contract": "contracts/SimpleCollectible.sol:SimpleCollectible",
						"label": "_owners",
						"offset": 0,
						"slot": "2",
						"type": "t_mapping(t_uint256,t_address)"
					},
					{
						"astId": 132,
						"contract": "contracts/SimpleCollectible.sol:SimpleCollectible",
						"label": "_balances",
						"offset": 0,
						"slot": "3",
						"type": "t_mapping(t_address,t_uint256)"
					},
					{
						"astId": 136,
						"contract": "contracts/SimpleCollectible.sol:SimpleCollectible",
						"label": "_tokenApprovals",
						"offset": 0,
						"slot": "4",
						"type": "t_mapping(t_uint256,t_address)"
					},
					{
						"astId": 142,
						"contract": "contracts/SimpleCollectible.sol:SimpleCollectible",
						"label": "_operatorApprovals",
						"offset": 0,
						"slot": "5",
						"type": "t_mapping(t_address,t_mapping(t_address,t_bool))"
					},
					{
						"astId": 6,
						"contract": "contracts/SimpleCollectible.sol:SimpleCollectible",
						"label": "_tokenCounter",
						"offset": 0,
						"slot": "6",
						"type": "t_uint256"
					},
					{
						"astId": 10,
						"contract": "contracts/SimpleCollectible.sol:SimpleCollectible",
						"label": "_tokenURIs",
						"offset": 0,
						"slot": "7",
						"type": "t_mapping(t_uint256,t_string_storage)"
					}
				],
				"types": {
					"t_address": {
						"encoding": "inplace",
						"label": "address",
						"numberOfBytes": "20"
					},
					"t_bool": {
						"encoding": "inplace",
						"label": "bool",
						"numberOfBytes": "1"
					},
					"t_mapping(t_address,t_bool)": {
						"encoding": "mapping",
						"key": "t_address",
						"label": "mapping(address => bool)",
						"numberOfBytes": "32",
						"value": "t_bool"
					},
					"t_mapping(t_address,t_mapping(t_address,t_bool))": {
						"encoding": "mapping",
						"key": "t_address",
						"label": "mapping(address => mapping(address => bool))",
						"numberOfBytes": "32",
						"value": "t_mapping(t_address,t_bool)"
					},
					"t_mapping(t_address,t_uint256)": {
						"encoding": "mapping",
						"key": "t_address",
						"label": "mapping(address => uint256)",
						"numberOfBytes": "32",
						"value": "t_uint256"
					},
					"t_mapping(t_uint256,t_address)": {
						"encoding": "mapping",
						"key": "t_uint256",
						"label": "mapping(uint256 => address)",
						"numberOfBytes": "32",
						"value": "t_address"
					},
					"t_mapping(t_uint256,t_string_storage)": {
						"encoding": "mapping",
						"key": "t_uint256",
						"label": "mapping(uint256 => string)",
						"numberOfBytes": "32",
						"value": "t_string_storage"
					},
					"t_string_storage": {
						"encoding": "bytes",
						"label": "string",
						"numberOfBytes": "32"
					},
					"t_uint256": {
						"encoding": "inplace",
						"label": "uint256",
						"numberOfBytes": "32"
					}
				}
			},
			"userdoc": {
				"kind": "user",
				"methods": {},
				"version": 1
			}
		}
	}
}